{
  "_format": "hh-sol-artifact-1",
  "contractName": "ERC721A",
  "sourceName": "contracts/ERC721A.sol",
  "abi": [
    {
      "inputs": [
        {
          "internalType": "string",
          "name": "name_",
          "type": "string"
        },
        {
          "internalType": "string",
          "name": "symbol_",
          "type": "string"
        },
        {
          "internalType": "uint256",
          "name": "maxBatchSize_",
          "type": "uint256"
        },
        {
          "internalType": "uint256",
          "name": "collectionSize_",
          "type": "uint256"
        }
      ],
      "stateMutability": "nonpayable",
      "type": "constructor"
    },
    {
      "anonymous": false,
      "inputs": [
        {
          "indexed": true,
          "internalType": "address",
          "name": "owner",
          "type": "address"
        },
        {
          "indexed": true,
          "internalType": "address",
          "name": "approved",
          "type": "address"
        },
        {
          "indexed": true,
          "internalType": "uint256",
          "name": "tokenId",
          "type": "uint256"
        }
      ],
      "name": "Approval",
      "type": "event"
    },
    {
      "anonymous": false,
      "inputs": [
        {
          "indexed": true,
          "internalType": "address",
          "name": "owner",
          "type": "address"
        },
        {
          "indexed": true,
          "internalType": "address",
          "name": "operator",
          "type": "address"
        },
        {
          "indexed": false,
          "internalType": "bool",
          "name": "approved",
          "type": "bool"
        }
      ],
      "name": "ApprovalForAll",
      "type": "event"
    },
    {
      "anonymous": false,
      "inputs": [
        {
          "indexed": true,
          "internalType": "address",
          "name": "from",
          "type": "address"
        },
        {
          "indexed": true,
          "internalType": "address",
          "name": "to",
          "type": "address"
        },
        {
          "indexed": true,
          "internalType": "uint256",
          "name": "tokenId",
          "type": "uint256"
        }
      ],
      "name": "Transfer",
      "type": "event"
    },
    {
      "inputs": [
        {
          "internalType": "address",
          "name": "to",
          "type": "address"
        },
        {
          "internalType": "uint256",
          "name": "tokenId",
          "type": "uint256"
        }
      ],
      "name": "approve",
      "outputs": [],
      "stateMutability": "nonpayable",
      "type": "function"
    },
    {
      "inputs": [
        {
          "internalType": "address",
          "name": "owner",
          "type": "address"
        }
      ],
      "name": "balanceOf",
      "outputs": [
        {
          "internalType": "uint256",
          "name": "",
          "type": "uint256"
        }
      ],
      "stateMutability": "view",
      "type": "function"
    },
    {
      "inputs": [],
      "name": "baseExtension",
      "outputs": [
        {
          "internalType": "string",
          "name": "",
          "type": "string"
        }
      ],
      "stateMutability": "view",
      "type": "function"
    },
    {
      "inputs": [
        {
          "internalType": "uint256",
          "name": "tokenId",
          "type": "uint256"
        }
      ],
      "name": "getApproved",
      "outputs": [
        {
          "internalType": "address",
          "name": "",
          "type": "address"
        }
      ],
      "stateMutability": "view",
      "type": "function"
    },
    {
      "inputs": [
        {
          "internalType": "address",
          "name": "owner",
          "type": "address"
        },
        {
          "internalType": "address",
          "name": "operator",
          "type": "address"
        }
      ],
      "name": "isApprovedForAll",
      "outputs": [
        {
          "internalType": "bool",
          "name": "",
          "type": "bool"
        }
      ],
      "stateMutability": "view",
      "type": "function"
    },
    {
      "inputs": [],
      "name": "name",
      "outputs": [
        {
          "internalType": "string",
          "name": "",
          "type": "string"
        }
      ],
      "stateMutability": "view",
      "type": "function"
    },
    {
      "inputs": [],
      "name": "nextOwnerToExplicitlySet",
      "outputs": [
        {
          "internalType": "uint256",
          "name": "",
          "type": "uint256"
        }
      ],
      "stateMutability": "view",
      "type": "function"
    },
    {
      "inputs": [
        {
          "internalType": "uint256",
          "name": "tokenId",
          "type": "uint256"
        }
      ],
      "name": "ownerOf",
      "outputs": [
        {
          "internalType": "address",
          "name": "",
          "type": "address"
        }
      ],
      "stateMutability": "view",
      "type": "function"
    },
    {
      "inputs": [
        {
          "internalType": "address",
          "name": "from",
          "type": "address"
        },
        {
          "internalType": "address",
          "name": "to",
          "type": "address"
        },
        {
          "internalType": "uint256",
          "name": "tokenId",
          "type": "uint256"
        }
      ],
      "name": "safeTransferFrom",
      "outputs": [],
      "stateMutability": "nonpayable",
      "type": "function"
    },
    {
      "inputs": [
        {
          "internalType": "address",
          "name": "from",
          "type": "address"
        },
        {
          "internalType": "address",
          "name": "to",
          "type": "address"
        },
        {
          "internalType": "uint256",
          "name": "tokenId",
          "type": "uint256"
        },
        {
          "internalType": "bytes",
          "name": "_data",
          "type": "bytes"
        }
      ],
      "name": "safeTransferFrom",
      "outputs": [],
      "stateMutability": "nonpayable",
      "type": "function"
    },
    {
      "inputs": [
        {
          "internalType": "address",
          "name": "operator",
          "type": "address"
        },
        {
          "internalType": "bool",
          "name": "approved",
          "type": "bool"
        }
      ],
      "name": "setApprovalForAll",
      "outputs": [],
      "stateMutability": "nonpayable",
      "type": "function"
    },
    {
      "inputs": [
        {
          "internalType": "bytes4",
          "name": "interfaceId",
          "type": "bytes4"
        }
      ],
      "name": "supportsInterface",
      "outputs": [
        {
          "internalType": "bool",
          "name": "",
          "type": "bool"
        }
      ],
      "stateMutability": "view",
      "type": "function"
    },
    {
      "inputs": [],
      "name": "symbol",
      "outputs": [
        {
          "internalType": "string",
          "name": "",
          "type": "string"
        }
      ],
      "stateMutability": "view",
      "type": "function"
    },
    {
      "inputs": [
        {
          "internalType": "uint256",
          "name": "index",
          "type": "uint256"
        }
      ],
      "name": "tokenByIndex",
      "outputs": [
        {
          "internalType": "uint256",
          "name": "",
          "type": "uint256"
        }
      ],
      "stateMutability": "view",
      "type": "function"
    },
    {
      "inputs": [
        {
          "internalType": "address",
          "name": "owner",
          "type": "address"
        },
        {
          "internalType": "uint256",
          "name": "index",
          "type": "uint256"
        }
      ],
      "name": "tokenOfOwnerByIndex",
      "outputs": [
        {
          "internalType": "uint256",
          "name": "",
          "type": "uint256"
        }
      ],
      "stateMutability": "view",
      "type": "function"
    },
    {
      "inputs": [
        {
          "internalType": "uint256",
          "name": "tokenId",
          "type": "uint256"
        }
      ],
      "name": "tokenURI",
      "outputs": [
        {
          "internalType": "string",
          "name": "",
          "type": "string"
        }
      ],
      "stateMutability": "view",
      "type": "function"
    },
    {
      "inputs": [],
      "name": "totalSupply",
      "outputs": [
        {
          "internalType": "uint256",
          "name": "",
          "type": "uint256"
        }
      ],
      "stateMutability": "view",
      "type": "function"
    },
    {
      "inputs": [
        {
          "internalType": "address",
          "name": "from",
          "type": "address"
        },
        {
          "internalType": "address",
          "name": "to",
          "type": "address"
        },
        {
          "internalType": "uint256",
          "name": "tokenId",
          "type": "uint256"
        }
      ],
      "name": "transferFrom",
      "outputs": [],
      "stateMutability": "nonpayable",
      "type": "function"
    }
  ],
  "bytecode": "0x60008055610100604052600560c081905264173539b7b760d91b60e09081526200002d916001919062000170565b5060006008553480156200004057600080fd5b5060405162001caa38038062001caa8339810160408190526200006391620002e3565b60008111620000d05760405162461bcd60e51b815260206004820152602e60248201527f455243373231413a20636f6c6c656374696f6e206d757374206861766520612060448201526d6e6f6e7a65726f20737570706c7960901b60648201526084015b60405180910390fd5b60008211620001325760405162461bcd60e51b815260206004820152602760248201527f455243373231413a206d61782062617463682073697a65206d757374206265206044820152666e6f6e7a65726f60c81b6064820152608401620000c7565b83516200014790600290602087019062000170565b5082516200015d90600390602086019062000170565b5060a091909152608052506200039a9050565b8280546200017e906200035d565b90600052602060002090601f016020900481019282620001a25760008555620001ed565b82601f10620001bd57805160ff1916838001178555620001ed565b82800160010185558215620001ed579182015b82811115620001ed578251825591602001919060010190620001d0565b50620001fb929150620001ff565b5090565b5b80821115620001fb576000815560010162000200565b634e487b7160e01b600052604160045260246000fd5b600082601f8301126200023e57600080fd5b81516001600160401b03808211156200025b576200025b62000216565b604051601f8301601f19908116603f0116810190828211818310171562000286576200028662000216565b81604052838152602092508683858801011115620002a357600080fd5b600091505b83821015620002c75785820183015181830184015290820190620002a8565b83821115620002d95760008385830101525b9695505050505050565b60008060008060808587031215620002fa57600080fd5b84516001600160401b03808211156200031257600080fd5b62000320888389016200022c565b955060208701519150808211156200033757600080fd5b5062000346878288016200022c565b604087015160609097015195989097509350505050565b600181811c908216806200037257607f821691505b602082108114156200039457634e487b7160e01b600052602260045260246000fd5b50919050565b60805160a0516118e6620003c460003960008181610fe1015261100b0152600050506118e66000f3fe608060405234801561001057600080fd5b50600436106101365760003560e01c80636352211e116100b2578063b88d4fde11610081578063c87b56dd11610066578063c87b56dd14610272578063d7224ba014610285578063e985e9c51461028e57600080fd5b8063b88d4fde14610257578063c66828621461026a57600080fd5b80636352211e1461021657806370a082311461022957806395d89b411461023c578063a22cb4651461024457600080fd5b806318160ddd116101095780632f745c59116100ee5780632f745c59146101dd57806342842e0e146101f05780634f6ccce71461020357600080fd5b806318160ddd146101b857806323b872dd146101ca57600080fd5b806301ffc9a71461013b57806306fdde0314610163578063081812fc14610178578063095ea7b3146101a3575b600080fd5b61014e61014936600461139b565b6102ca565b60405190151581526020015b60405180910390f35b61016b610337565b60405161015a9190611410565b61018b610186366004611423565b6103c9565b6040516001600160a01b03909116815260200161015a565b6101b66101b1366004611458565b610469565b005b6000545b60405190815260200161015a565b6101b66101d8366004611482565b610581565b6101bc6101eb366004611458565b61058c565b6101b66101fe366004611482565b610709565b6101bc610211366004611423565b610724565b61018b610224366004611423565b610786565b6101bc6102373660046114be565b610798565b61016b61083b565b6101b66102523660046114d9565b61084a565b6101b661026536600461152b565b61090f565b61016b61099e565b61016b610280366004611423565b610a2c565b6101bc60085481565b61014e61029c366004611607565b6001600160a01b03918216600090815260076020908152604080832093909416825291909152205460ff1690565b60006001600160e01b031982166380ac58cd60e01b14806102fb57506001600160e01b03198216635b5e139f60e01b145b8061031657506001600160e01b0319821663780e9d6360e01b145b8061033157506301ffc9a760e01b6001600160e01b03198316145b92915050565b6060600280546103469061163a565b80601f01602080910402602001604051908101604052809291908181526020018280546103729061163a565b80156103bf5780601f10610394576101008083540402835291602001916103bf565b820191906000526020600020905b8154815290600101906020018083116103a257829003601f168201915b5050505050905090565b60006103d6826000541190565b61044d5760405162461bcd60e51b815260206004820152602d60248201527f455243373231413a20617070726f76656420717565727920666f72206e6f6e6560448201527f78697374656e7420746f6b656e0000000000000000000000000000000000000060648201526084015b60405180910390fd5b506000908152600660205260409020546001600160a01b031690565b600061047482610786565b9050806001600160a01b0316836001600160a01b031614156104e35760405162461bcd60e51b815260206004820152602260248201527f455243373231413a20617070726f76616c20746f2063757272656e74206f776e60448201526132b960f11b6064820152608401610444565b336001600160a01b03821614806104ff57506104ff813361029c565b6105715760405162461bcd60e51b815260206004820152603960248201527f455243373231413a20617070726f76652063616c6c6572206973206e6f74206f60448201527f776e6572206e6f7220617070726f76656420666f7220616c6c000000000000006064820152608401610444565b61057c838383610b17565b505050565b61057c838383610b8b565b600061059783610798565b82106105f05760405162461bcd60e51b815260206004820152602260248201527f455243373231413a206f776e657220696e646578206f7574206f6620626f756e604482015261647360f01b6064820152608401610444565b600080549080805b8381101561069a576000818152600460209081526040918290208251808401909352546001600160a01b038116808452600160a01b90910467ffffffffffffffff16918301919091521561064b57805192505b876001600160a01b0316836001600160a01b0316141561068757868414156106795750935061033192505050565b836106838161168b565b9450505b50806106928161168b565b9150506105f8565b5060405162461bcd60e51b815260206004820152602e60248201527f455243373231413a20756e61626c6520746f2067657420746f6b656e206f662060448201527f6f776e657220627920696e6465780000000000000000000000000000000000006064820152608401610444565b61057c8383836040518060200160405280600081525061090f565b6000805482106107825760405162461bcd60e51b815260206004820152602360248201527f455243373231413a20676c6f62616c20696e646578206f7574206f6620626f756044820152626e647360e81b6064820152608401610444565b5090565b600061079182610f4c565b5192915050565b60006001600160a01b0382166108165760405162461bcd60e51b815260206004820152602b60248201527f455243373231413a2062616c616e636520717565727920666f7220746865207a60448201527f65726f20616464726573730000000000000000000000000000000000000000006064820152608401610444565b506001600160a01b03166000908152600560205260409020546001600160801b031690565b6060600380546103469061163a565b6001600160a01b0382163314156108a35760405162461bcd60e51b815260206004820152601a60248201527f455243373231413a20617070726f766520746f2063616c6c65720000000000006044820152606401610444565b3360008181526007602090815260408083206001600160a01b03871680855290835292819020805460ff191686151590811790915590519081529192917f17307eab39ab6107e8899845ad3d59bd9653f200f220920489ca2b5937696c31910160405180910390a35050565b61091a848484610b8b565b61092684848484611117565b6109985760405162461bcd60e51b815260206004820152603360248201527f455243373231413a207472616e7366657220746f206e6f6e204552433732315260448201527f6563656976657220696d706c656d656e746572000000000000000000000000006064820152608401610444565b50505050565b600180546109ab9061163a565b80601f01602080910402602001604051908101604052809291908181526020018280546109d79061163a565b8015610a245780601f106109f957610100808354040283529160200191610a24565b820191906000526020600020905b815481529060010190602001808311610a0757829003601f168201915b505050505081565b6060610a39826000541190565b610aab5760405162461bcd60e51b815260206004820152602f60248201527f4552433732314d657461646174613a2055524920717565727920666f72206e6f60448201527f6e6578697374656e7420746f6b656e00000000000000000000000000000000006064820152608401610444565b6000610ac260408051602081019091526000815290565b90506000815111610ae25760405180602001604052806000815250610b10565b80610aec8461126c565b6001604051602001610b00939291906116a6565b6040516020818303038152906040525b9392505050565b60008281526006602052604080822080547fffffffffffffffffffffffff0000000000000000000000000000000000000000166001600160a01b0387811691821790925591518593918516917f8c5be1e5ebec7d5bd14f71427d1e84f3dd0314c0f7b2291e5b200ac8c7c3b92591a4505050565b6000610b9682610f4c565b80519091506000906001600160a01b0316336001600160a01b03161480610bcd575033610bc2846103c9565b6001600160a01b0316145b80610bdf57508151610bdf903361029c565b905080610c545760405162461bcd60e51b815260206004820152603260248201527f455243373231413a207472616e736665722063616c6c6572206973206e6f742060448201527f6f776e6572206e6f7220617070726f76656400000000000000000000000000006064820152608401610444565b846001600160a01b031682600001516001600160a01b031614610cdf5760405162461bcd60e51b815260206004820152602660248201527f455243373231413a207472616e736665722066726f6d20696e636f727265637460448201527f206f776e657200000000000000000000000000000000000000000000000000006064820152608401610444565b6001600160a01b038416610d5b5760405162461bcd60e51b815260206004820152602560248201527f455243373231413a207472616e7366657220746f20746865207a65726f20616460448201527f64726573730000000000000000000000000000000000000000000000000000006064820152608401610444565b610d6b6000848460000151610b17565b6001600160a01b0385166000908152600560205260408120805460019290610d9d9084906001600160801b031661176a565b82546101009290920a6001600160801b038181021990931691831602179091556001600160a01b03861660009081526005602052604081208054600194509092610de991859116611792565b82546001600160801b039182166101009390930a9283029190920219909116179055506040805180820182526001600160a01b03808716825267ffffffffffffffff428116602080850191825260008981526004909152948520935184549151909216600160a01b026001600160e01b03199091169190921617179055610e718460016117bd565b6000818152600460205260409020549091506001600160a01b0316610f0357610e9b816000541190565b15610f035760408051808201825284516001600160a01b03908116825260208087015167ffffffffffffffff9081168285019081526000878152600490935294909120925183549451909116600160a01b026001600160e01b03199094169116179190911790555b83856001600160a01b0316876001600160a01b03167fddf252ad1be2c89b69c2b068fc378daa952ba7f163c4a11628f55a4df523b3ef60405160405180910390a4505050505050565b6040805180820190915260008082526020820152610f6b826000541190565b610fdd5760405162461bcd60e51b815260206004820152602a60248201527f455243373231413a206f776e657220717565727920666f72206e6f6e6578697360448201527f74656e7420746f6b656e000000000000000000000000000000000000000000006064820152608401610444565b60007f0000000000000000000000000000000000000000000000000000000000000000831061103e576110307f0000000000000000000000000000000000000000000000000000000000000000846117d5565b61103b9060016117bd565b90505b825b8181106110a8576000818152600460209081526040918290208251808401909352546001600160a01b038116808452600160a01b90910467ffffffffffffffff16918301919091521561109557949350505050565b50806110a0816117ec565b915050611040565b5060405162461bcd60e51b815260206004820152602f60248201527f455243373231413a20756e61626c6520746f2064657465726d696e652074686560448201527f206f776e6572206f6620746f6b656e00000000000000000000000000000000006064820152608401610444565b60006001600160a01b0384163b1561126057604051630a85bd0160e11b81526001600160a01b0385169063150b7a029061115b903390899088908890600401611803565b6020604051808303816000875af1925050508015611196575060408051601f3d908101601f191682019092526111939181019061183f565b60015b611246573d8080156111c4576040519150601f19603f3d011682016040523d82523d6000602084013e6111c9565b606091505b50805161123e5760405162461bcd60e51b815260206004820152603360248201527f455243373231413a207472616e7366657220746f206e6f6e204552433732315260448201527f6563656976657220696d706c656d656e746572000000000000000000000000006064820152608401610444565b805181602001fd5b6001600160e01b031916630a85bd0160e11b149050611264565b5060015b949350505050565b6060816112905750506040805180820190915260018152600360fc1b602082015290565b8160005b81156112ba57806112a48161168b565b91506112b39050600a83611872565b9150611294565b60008167ffffffffffffffff8111156112d5576112d5611515565b6040519080825280601f01601f1916602001820160405280156112ff576020820181803683370190505b5090505b8415611264576113146001836117d5565b9150611321600a86611886565b61132c9060306117bd565b60f81b8183815181106113415761134161189a565b60200101907effffffffffffffffffffffffffffffffffffffffffffffffffffffffffffff1916908160001a90535061137b600a86611872565b9450611303565b6001600160e01b03198116811461139857600080fd5b50565b6000602082840312156113ad57600080fd5b8135610b1081611382565b60005b838110156113d35781810151838201526020016113bb565b838111156109985750506000910152565b600081518084526113fc8160208601602086016113b8565b601f01601f19169290920160200192915050565b602081526000610b1060208301846113e4565b60006020828403121561143557600080fd5b5035919050565b80356001600160a01b038116811461145357600080fd5b919050565b6000806040838503121561146b57600080fd5b6114748361143c565b946020939093013593505050565b60008060006060848603121561149757600080fd5b6114a08461143c565b92506114ae6020850161143c565b9150604084013590509250925092565b6000602082840312156114d057600080fd5b610b108261143c565b600080604083850312156114ec57600080fd5b6114f58361143c565b91506020830135801515811461150a57600080fd5b809150509250929050565b634e487b7160e01b600052604160045260246000fd5b6000806000806080858703121561154157600080fd5b61154a8561143c565b93506115586020860161143c565b925060408501359150606085013567ffffffffffffffff8082111561157c57600080fd5b818701915087601f83011261159057600080fd5b8135818111156115a2576115a2611515565b604051601f8201601f19908116603f011681019083821181831017156115ca576115ca611515565b816040528281528a60208487010111156115e357600080fd5b82602086016020830137600060208483010152809550505050505092959194509250565b6000806040838503121561161a57600080fd5b6116238361143c565b91506116316020840161143c565b90509250929050565b600181811c9082168061164e57607f821691505b6020821081141561166f57634e487b7160e01b600052602260045260246000fd5b50919050565b634e487b7160e01b600052601160045260246000fd5b600060001982141561169f5761169f611675565b5060010190565b6000845160206116b98285838a016113b8565b8551918401916116cc8184848a016113b8565b8554920191600090600181811c90808316806116e957607f831692505b85831081141561170757634e487b7160e01b85526022600452602485fd5b80801561171b576001811461172c57611759565b60ff19851688528388019550611759565b60008b81526020902060005b858110156117515781548a820152908401908801611738565b505083880195505b50939b9a5050505050505050505050565b60006001600160801b038381169083168181101561178a5761178a611675565b039392505050565b60006001600160801b038083168185168083038211156117b4576117b4611675565b01949350505050565b600082198211156117d0576117d0611675565b500190565b6000828210156117e7576117e7611675565b500390565b6000816117fb576117fb611675565b506000190190565b60006001600160a01b0380871683528086166020840152508360408301526080606083015261183560808301846113e4565b9695505050505050565b60006020828403121561185157600080fd5b8151610b1081611382565b634e487b7160e01b600052601260045260246000fd5b6000826118815761188161185c565b500490565b6000826118955761189561185c565b500690565b634e487b7160e01b600052603260045260246000fdfea2646970667358221220e0ebd9f6a59bd8dde22239afdd0a18e1a29ae79192f3e9b3fc160751caeefd8364736f6c634300080b0033",
  "linkReferences": {},
  "deployedLinkReferences": {}
}