{
  "_format": "hh-sol-artifact-1",
  "contractName": "Nexu5",
  "sourceName": "contracts/Nexu5.sol",
  "abi": [
    {
      "inputs": [
        {
          "internalType": "uint256",
          "name": "maxBatchSize_",
          "type": "uint256"
        },
        {
          "internalType": "uint256",
          "name": "collectionSize_",
          "type": "uint256"
        },
        {
          "internalType": "uint256",
          "name": "amountForFounders_",
          "type": "uint256"
        },
        {
          "internalType": "uint256",
          "name": "amountForDevs_",
          "type": "uint256"
        }
      ],
      "stateMutability": "nonpayable",
      "type": "constructor"
    },
    {
      "anonymous": false,
      "inputs": [
        {
          "indexed": true,
          "internalType": "address",
          "name": "owner",
          "type": "address"
        },
        {
          "indexed": true,
          "internalType": "address",
          "name": "approved",
          "type": "address"
        },
        {
          "indexed": true,
          "internalType": "uint256",
          "name": "tokenId",
          "type": "uint256"
        }
      ],
      "name": "Approval",
      "type": "event"
    },
    {
      "anonymous": false,
      "inputs": [
        {
          "indexed": true,
          "internalType": "address",
          "name": "owner",
          "type": "address"
        },
        {
          "indexed": true,
          "internalType": "address",
          "name": "operator",
          "type": "address"
        },
        {
          "indexed": false,
          "internalType": "bool",
          "name": "approved",
          "type": "bool"
        }
      ],
      "name": "ApprovalForAll",
      "type": "event"
    },
    {
      "anonymous": false,
      "inputs": [
        {
          "indexed": true,
          "internalType": "address",
          "name": "previousOwner",
          "type": "address"
        },
        {
          "indexed": true,
          "internalType": "address",
          "name": "newOwner",
          "type": "address"
        }
      ],
      "name": "OwnershipTransferred",
      "type": "event"
    },
    {
      "anonymous": false,
      "inputs": [
        {
          "indexed": true,
          "internalType": "address",
          "name": "from",
          "type": "address"
        },
        {
          "indexed": true,
          "internalType": "address",
          "name": "to",
          "type": "address"
        },
        {
          "indexed": true,
          "internalType": "uint256",
          "name": "tokenId",
          "type": "uint256"
        }
      ],
      "name": "Transfer",
      "type": "event"
    },
    {
      "inputs": [],
      "name": "FOUNDER_TOKEN_PRICE",
      "outputs": [
        {
          "internalType": "uint256",
          "name": "",
          "type": "uint256"
        }
      ],
      "stateMutability": "view",
      "type": "function"
    },
    {
      "inputs": [
        {
          "internalType": "uint64",
          "name": "_publicPriceWei",
          "type": "uint64"
        }
      ],
      "name": "SetupPublicSaleInfo",
      "outputs": [],
      "stateMutability": "nonpayable",
      "type": "function"
    },
    {
      "inputs": [
        {
          "internalType": "uint64",
          "name": "_WhiteListPriceWei",
          "type": "uint64"
        }
      ],
      "name": "SetupWhitelistSale",
      "outputs": [],
      "stateMutability": "nonpayable",
      "type": "function"
    },
    {
      "inputs": [
        {
          "internalType": "uint256",
          "name": "tokenId",
          "type": "uint256"
        }
      ],
      "name": "_tokenURI",
      "outputs": [
        {
          "internalType": "string",
          "name": "",
          "type": "string"
        }
      ],
      "stateMutability": "view",
      "type": "function"
    },
    {
      "inputs": [
        {
          "internalType": "address",
          "name": "",
          "type": "address"
        }
      ],
      "name": "allowlist",
      "outputs": [
        {
          "internalType": "uint256",
          "name": "",
          "type": "uint256"
        }
      ],
      "stateMutability": "view",
      "type": "function"
    },
    {
      "inputs": [],
      "name": "allowlistMint",
      "outputs": [],
      "stateMutability": "payable",
      "type": "function"
    },
    {
      "inputs": [],
      "name": "amountForDevs",
      "outputs": [
        {
          "internalType": "uint256",
          "name": "",
          "type": "uint256"
        }
      ],
      "stateMutability": "view",
      "type": "function"
    },
    {
      "inputs": [],
      "name": "amountForFounders",
      "outputs": [
        {
          "internalType": "uint256",
          "name": "",
          "type": "uint256"
        }
      ],
      "stateMutability": "view",
      "type": "function"
    },
    {
      "inputs": [
        {
          "internalType": "address",
          "name": "to",
          "type": "address"
        },
        {
          "internalType": "uint256",
          "name": "tokenId",
          "type": "uint256"
        }
      ],
      "name": "approve",
      "outputs": [],
      "stateMutability": "nonpayable",
      "type": "function"
    },
    {
      "inputs": [
        {
          "internalType": "address",
          "name": "owner",
          "type": "address"
        }
      ],
      "name": "balanceOf",
      "outputs": [
        {
          "internalType": "uint256",
          "name": "",
          "type": "uint256"
        }
      ],
      "stateMutability": "view",
      "type": "function"
    },
    {
      "inputs": [],
      "name": "baseExtension",
      "outputs": [
        {
          "internalType": "string",
          "name": "",
          "type": "string"
        }
      ],
      "stateMutability": "view",
      "type": "function"
    },
    {
      "inputs": [],
      "name": "baseURI",
      "outputs": [
        {
          "internalType": "string",
          "name": "",
          "type": "string"
        }
      ],
      "stateMutability": "view",
      "type": "function"
    },
    {
      "inputs": [
        {
          "internalType": "uint256",
          "name": "quantity",
          "type": "uint256"
        }
      ],
      "name": "devMint",
      "outputs": [],
      "stateMutability": "nonpayable",
      "type": "function"
    },
    {
      "inputs": [
        {
          "internalType": "uint256",
          "name": "tokenId",
          "type": "uint256"
        }
      ],
      "name": "exists",
      "outputs": [
        {
          "internalType": "bool",
          "name": "",
          "type": "bool"
        }
      ],
      "stateMutability": "view",
      "type": "function"
    },
    {
      "inputs": [],
      "name": "founderMint",
      "outputs": [],
      "stateMutability": "payable",
      "type": "function"
    },
    {
      "inputs": [
        {
          "internalType": "address",
          "name": "",
          "type": "address"
        }
      ],
      "name": "founderlist",
      "outputs": [
        {
          "internalType": "uint256",
          "name": "",
          "type": "uint256"
        }
      ],
      "stateMutability": "view",
      "type": "function"
    },
    {
      "inputs": [
        {
          "internalType": "uint256",
          "name": "tokenId",
          "type": "uint256"
        }
      ],
      "name": "getApproved",
      "outputs": [
        {
          "internalType": "address",
          "name": "",
          "type": "address"
        }
      ],
      "stateMutability": "view",
      "type": "function"
    },
    {
      "inputs": [],
      "name": "getFounderPrice",
      "outputs": [
        {
          "internalType": "uint256",
          "name": "",
          "type": "uint256"
        }
      ],
      "stateMutability": "view",
      "type": "function"
    },
    {
      "inputs": [],
      "name": "getMintlistPrice",
      "outputs": [
        {
          "internalType": "uint256",
          "name": "",
          "type": "uint256"
        }
      ],
      "stateMutability": "view",
      "type": "function"
    },
    {
      "inputs": [
        {
          "internalType": "uint256",
          "name": "tokenId",
          "type": "uint256"
        }
      ],
      "name": "getOwnershipData",
      "outputs": [
        {
          "components": [
            {
              "internalType": "address",
              "name": "addr",
              "type": "address"
            },
            {
              "internalType": "uint64",
              "name": "startTimestamp",
              "type": "uint64"
            }
          ],
          "internalType": "struct ERC721A.TokenOwnership",
          "name": "",
          "type": "tuple"
        }
      ],
      "stateMutability": "view",
      "type": "function"
    },
    {
      "inputs": [
        {
          "internalType": "address",
          "name": "owner",
          "type": "address"
        },
        {
          "internalType": "address",
          "name": "operator",
          "type": "address"
        }
      ],
      "name": "isApprovedForAll",
      "outputs": [
        {
          "internalType": "bool",
          "name": "",
          "type": "bool"
        }
      ],
      "stateMutability": "view",
      "type": "function"
    },
    {
      "inputs": [
        {
          "internalType": "address",
          "name": "_user",
          "type": "address"
        }
      ],
      "name": "isFounderlisted",
      "outputs": [
        {
          "internalType": "bool",
          "name": "",
          "type": "bool"
        }
      ],
      "stateMutability": "view",
      "type": "function"
    },
    {
      "inputs": [
        {
          "internalType": "uint256",
          "name": "publicPriceWei",
          "type": "uint256"
        }
      ],
      "name": "isPublicSaleOn",
      "outputs": [
        {
          "internalType": "bool",
          "name": "",
          "type": "bool"
        }
      ],
      "stateMutability": "view",
      "type": "function"
    },
    {
      "inputs": [],
      "name": "isWhistlistSaleOn",
      "outputs": [
        {
          "internalType": "bool",
          "name": "",
          "type": "bool"
        }
      ],
      "stateMutability": "view",
      "type": "function"
    },
    {
      "inputs": [
        {
          "internalType": "address",
          "name": "_user",
          "type": "address"
        }
      ],
      "name": "isWhitelisted",
      "outputs": [
        {
          "internalType": "bool",
          "name": "",
          "type": "bool"
        }
      ],
      "stateMutability": "view",
      "type": "function"
    },
    {
      "inputs": [],
      "name": "maxPerAddressDuringMint",
      "outputs": [
        {
          "internalType": "uint256",
          "name": "",
          "type": "uint256"
        }
      ],
      "stateMutability": "view",
      "type": "function"
    },
    {
      "inputs": [],
      "name": "name",
      "outputs": [
        {
          "internalType": "string",
          "name": "",
          "type": "string"
        }
      ],
      "stateMutability": "view",
      "type": "function"
    },
    {
      "inputs": [],
      "name": "nextOwnerToExplicitlySet",
      "outputs": [
        {
          "internalType": "uint256",
          "name": "",
          "type": "uint256"
        }
      ],
      "stateMutability": "view",
      "type": "function"
    },
    {
      "inputs": [
        {
          "internalType": "address",
          "name": "owner",
          "type": "address"
        }
      ],
      "name": "numberMinted",
      "outputs": [
        {
          "internalType": "uint256",
          "name": "",
          "type": "uint256"
        }
      ],
      "stateMutability": "view",
      "type": "function"
    },
    {
      "inputs": [],
      "name": "owner",
      "outputs": [
        {
          "internalType": "address",
          "name": "",
          "type": "address"
        }
      ],
      "stateMutability": "view",
      "type": "function"
    },
    {
      "inputs": [
        {
          "internalType": "uint256",
          "name": "tokenId",
          "type": "uint256"
        }
      ],
      "name": "ownerOf",
      "outputs": [
        {
          "internalType": "address",
          "name": "",
          "type": "address"
        }
      ],
      "stateMutability": "view",
      "type": "function"
    },
    {
      "inputs": [
        {
          "internalType": "uint256",
          "name": "quantity",
          "type": "uint256"
        }
      ],
      "name": "publicSaleMint",
      "outputs": [],
      "stateMutability": "payable",
      "type": "function"
    },
    {
      "inputs": [],
      "name": "renounceOwnership",
      "outputs": [],
      "stateMutability": "nonpayable",
      "type": "function"
    },
    {
      "inputs": [],
      "name": "returnFounderQty",
      "outputs": [
        {
          "internalType": "uint256",
          "name": "",
          "type": "uint256"
        }
      ],
      "stateMutability": "view",
      "type": "function"
    },
    {
      "inputs": [
        {
          "internalType": "address",
          "name": "from",
          "type": "address"
        },
        {
          "internalType": "address",
          "name": "to",
          "type": "address"
        },
        {
          "internalType": "uint256",
          "name": "tokenId",
          "type": "uint256"
        }
      ],
      "name": "safeTransferFrom",
      "outputs": [],
      "stateMutability": "nonpayable",
      "type": "function"
    },
    {
      "inputs": [
        {
          "internalType": "address",
          "name": "from",
          "type": "address"
        },
        {
          "internalType": "address",
          "name": "to",
          "type": "address"
        },
        {
          "internalType": "uint256",
          "name": "tokenId",
          "type": "uint256"
        },
        {
          "internalType": "bytes",
          "name": "_data",
          "type": "bytes"
        }
      ],
      "name": "safeTransferFrom",
      "outputs": [],
      "stateMutability": "nonpayable",
      "type": "function"
    },
    {
      "inputs": [],
      "name": "saleConfig",
      "outputs": [
        {
          "internalType": "uint64",
          "name": "publicPrice",
          "type": "uint64"
        },
        {
          "internalType": "uint64",
          "name": "mintlistPrice",
          "type": "uint64"
        }
      ],
      "stateMutability": "view",
      "type": "function"
    },
    {
      "inputs": [
        {
          "internalType": "address[]",
          "name": "addresses",
          "type": "address[]"
        },
        {
          "internalType": "uint256[]",
          "name": "numSlots",
          "type": "uint256[]"
        }
      ],
      "name": "seedAllowlist",
      "outputs": [],
      "stateMutability": "nonpayable",
      "type": "function"
    },
    {
      "inputs": [
        {
          "internalType": "address[]",
          "name": "addresses",
          "type": "address[]"
        },
        {
          "internalType": "uint256[]",
          "name": "numSlots",
          "type": "uint256[]"
        }
      ],
      "name": "seedFounderlist",
      "outputs": [],
      "stateMutability": "nonpayable",
      "type": "function"
    },
    {
      "inputs": [
        {
          "internalType": "address",
          "name": "operator",
          "type": "address"
        },
        {
          "internalType": "bool",
          "name": "approved",
          "type": "bool"
        }
      ],
      "name": "setApprovalForAll",
      "outputs": [],
      "stateMutability": "nonpayable",
      "type": "function"
    },
    {
      "inputs": [
        {
          "internalType": "string",
          "name": "_newBaseExtension",
          "type": "string"
        }
      ],
      "name": "setBaseExtension",
      "outputs": [],
      "stateMutability": "nonpayable",
      "type": "function"
    },
    {
      "inputs": [
        {
          "internalType": "string",
          "name": "baseURI",
          "type": "string"
        }
      ],
      "name": "setBaseURI",
      "outputs": [],
      "stateMutability": "nonpayable",
      "type": "function"
    },
    {
      "inputs": [
        {
          "internalType": "uint256",
          "name": "quantity",
          "type": "uint256"
        }
      ],
      "name": "setOwnersExplicit",
      "outputs": [],
      "stateMutability": "nonpayable",
      "type": "function"
    },
    {
      "inputs": [
        {
          "internalType": "bytes4",
          "name": "interfaceId",
          "type": "bytes4"
        }
      ],
      "name": "supportsInterface",
      "outputs": [
        {
          "internalType": "bool",
          "name": "",
          "type": "bool"
        }
      ],
      "stateMutability": "view",
      "type": "function"
    },
    {
      "inputs": [],
      "name": "symbol",
      "outputs": [
        {
          "internalType": "string",
          "name": "",
          "type": "string"
        }
      ],
      "stateMutability": "view",
      "type": "function"
    },
    {
      "inputs": [
        {
          "internalType": "uint256",
          "name": "index",
          "type": "uint256"
        }
      ],
      "name": "tokenByIndex",
      "outputs": [
        {
          "internalType": "uint256",
          "name": "",
          "type": "uint256"
        }
      ],
      "stateMutability": "view",
      "type": "function"
    },
    {
      "inputs": [
        {
          "internalType": "address",
          "name": "owner",
          "type": "address"
        },
        {
          "internalType": "uint256",
          "name": "index",
          "type": "uint256"
        }
      ],
      "name": "tokenOfOwnerByIndex",
      "outputs": [
        {
          "internalType": "uint256",
          "name": "",
          "type": "uint256"
        }
      ],
      "stateMutability": "view",
      "type": "function"
    },
    {
      "inputs": [
        {
          "internalType": "uint256",
          "name": "tokenId",
          "type": "uint256"
        }
      ],
      "name": "tokenURI",
      "outputs": [
        {
          "internalType": "string",
          "name": "",
          "type": "string"
        }
      ],
      "stateMutability": "view",
      "type": "function"
    },
    {
      "inputs": [],
      "name": "totalMinted",
      "outputs": [
        {
          "internalType": "uint256",
          "name": "",
          "type": "uint256"
        }
      ],
      "stateMutability": "view",
      "type": "function"
    },
    {
      "inputs": [],
      "name": "totalSupply",
      "outputs": [
        {
          "internalType": "uint256",
          "name": "",
          "type": "uint256"
        }
      ],
      "stateMutability": "view",
      "type": "function"
    },
    {
      "inputs": [
        {
          "internalType": "address",
          "name": "from",
          "type": "address"
        },
        {
          "internalType": "address",
          "name": "to",
          "type": "address"
        },
        {
          "internalType": "uint256",
          "name": "tokenId",
          "type": "uint256"
        }
      ],
      "name": "transferFrom",
      "outputs": [],
      "stateMutability": "nonpayable",
      "type": "function"
    },
    {
      "inputs": [
        {
          "internalType": "address",
          "name": "newOwner",
          "type": "address"
        }
      ],
      "name": "transferOwnership",
      "outputs": [],
      "stateMutability": "nonpayable",
      "type": "function"
    },
    {
      "inputs": [],
      "name": "withdrawMoney",
      "outputs": [],
      "stateMutability": "nonpayable",
      "type": "function"
    }
  ],
  "bytecode": "0x60008055610160604052600561012081905264173539b7b760d91b6101409081526200002f916001919062000276565b5060006008553480156200004257600080fd5b5060405162003e7b38038062003e7b83398101604081905262000065916200031c565b604051806040016040528060058152602001644e6578753560d81b815250604051806040016040528060038152602001624e583560e81b8152508585600081116200010e5760405162461bcd60e51b815260206004820152602e60248201527f455243373231413a20636f6c6c656374696f6e206d757374206861766520612060448201526d6e6f6e7a65726f20737570706c7960901b60648201526084015b60405180910390fd5b60008211620001705760405162461bcd60e51b815260206004820152602760248201527f455243373231413a206d61782062617463682073697a65206d757374206265206044820152666e6f6e7a65726f60c81b606482015260840162000105565b83516200018590600290602087019062000276565b5082516200019b90600390602086019062000276565b5060a09190915260805250620001b390503362000224565b6001600a5560c084905261010082905260e0819052828211156200021a5760405162461bcd60e51b815260206004820152601d60248201527f6c617267657220636f6c6c656374696f6e2073697a65206e6565646564000000604482015260640162000105565b5050505062000390565b600980546001600160a01b038381166001600160a01b0319831681179093556040519116919082907f8be0079c531659141344cd1fd0a4f28419497f9722a3daafe3b4186f6b6457e090600090a35050565b828054620002849062000353565b90600052602060002090601f016020900481019282620002a85760008555620002f3565b82601f10620002c357805160ff1916838001178555620002f3565b82800160010185558215620002f3579182015b82811115620002f3578251825591602001919060010190620002d6565b506200030192915062000305565b5090565b5b8082111562000301576000815560010162000306565b600080600080608085870312156200033357600080fd5b505082516020840151604085015160609095015191969095509092509050565b600181811c908216806200036857607f821691505b602082108114156200038a57634e487b7160e01b600052602260045260246000fd5b50919050565b60805160a05160c05160e05161010051613a5262000429600039600081816106200152611017015260008181610a0c01526111d2015260008181610696015281816110e60152611e3b01526000818161127e0152818161131d01528181611355015281816129400152818161296a0152612eac0152600081816114ed01528181611db80152818161270101526127330152613a526000f3fe60806040526004361061034a5760003560e01c80638bc35c2f116101bb578063b3ab66b0116100f7578063dc33e68111610095578063edfc2a5f1161006f578063edfc2a5f146109ba578063f2fde38b146109da578063fbe1aa51146109fa578063fc5f712214610a2e57600080fd5b8063dc33e68114610924578063e562c5a714610944578063e985e9c51461097157600080fd5b8063c6682862116100d1578063c6682862146108b9578063c87b56dd146108ce578063d7224ba0146108ee578063da3ef23f1461090457600080fd5b8063b3ab66b014610872578063b88d4fde14610885578063bb9bb91c146108a557600080fd5b806397359f9711610164578063a2f1bc131161013e578063a2f1bc13146107f0578063a7cd52cb14610810578063ac4460021461083d578063b05863d51461085257600080fd5b806397359f97146107a6578063a22cb465146107bb578063a2309ff8146107db57600080fd5b806390aa0b0f1161019557806390aa0b0f146106f65780639231ab2a1461074357806395d89b411461079157600080fd5b80638bc35c2f146106845780638d17e712146106b85780638da5cb5b146106d857600080fd5b806341fbddbd1161028a5780636352211e11610233578063715018a61161020d578063715018a6146105f9578063847954c41461060e57806385790ce91461064257806389430cc01461066457600080fd5b80636352211e146105a45780636c0360eb146105c457806370a08231146105d957600080fd5b80634f6ccce7116102645780634f6ccce71461054457806355f804b3146105645780635ec085191461058457600080fd5b806341fbddbd146104fc57806342842e0e146105045780634f558e791461052457600080fd5b806323b872dd116102f757806335a4dee5116102d157806335a4dee514610494578063375a069a1461049c5780633a67051e146104bc5780633af32abf146104dc57600080fd5b806323b872dd146104345780632d20fb60146104545780632f745c591461047457600080fd5b8063095ea7b311610328578063095ea7b3146103de5780630a65a44a1461040057806318160ddd1461041557600080fd5b806301ffc9a71461034f57806306fdde0314610384578063081812fc146103a6575b600080fd5b34801561035b57600080fd5b5061036f61036a36600461328f565b610a54565b60405190151581526020015b60405180910390f35b34801561039057600080fd5b50610399610ac1565b60405161037b9190613304565b3480156103b257600080fd5b506103c66103c1366004613317565b610b53565b6040516001600160a01b03909116815260200161037b565b3480156103ea57600080fd5b506103fe6103f9366004613347565b610bf3565b005b34801561040c57600080fd5b5061036f610d0b565b34801561042157600080fd5b506000545b60405190815260200161037b565b34801561044057600080fd5b506103fe61044f366004613371565b610d30565b34801561046057600080fd5b506103fe61046f366004613317565b610d3b565b34801561048057600080fd5b5061042661048f366004613347565b610dec565b6103fe610f69565b3480156104a857600080fd5b506103fe6104b7366004613317565b611188565b3480156104c857600080fd5b5061036f6104d73660046133ad565b61138b565b3480156104e857600080fd5b5061036f6104f73660046133ad565b6113b9565b6103fe6113df565b34801561051057600080fd5b506103fe61051f366004613371565b61159c565b34801561053057600080fd5b5061036f61053f366004613317565b6115b7565b34801561055057600080fd5b5061042661055f366004613317565b6115c4565b34801561057057600080fd5b506103fe61057f3660046133c8565b611626565b34801561059057600080fd5b5061036f61059f366004613317565b61167a565b3480156105b057600080fd5b506103c66105bf366004613317565b61168f565b3480156105d057600080fd5b506103996116a1565b3480156105e557600080fd5b506104266105f43660046133ad565b6116b0565b34801561060557600080fd5b506103fe611753565b34801561061a57600080fd5b506104267f000000000000000000000000000000000000000000000000000000000000000081565b34801561064e57600080fd5b50336000908152600d6020526040902054610426565b34801561067057600080fd5b506103fe61067f36600461343a565b6117a7565b34801561069057600080fd5b506104267f000000000000000000000000000000000000000000000000000000000000000081565b3480156106c457600080fd5b506103996106d3366004613317565b611813565b3480156106e457600080fd5b506009546001600160a01b03166103c6565b34801561070257600080fd5b50600b546107229067ffffffffffffffff80821691600160401b90041682565b6040805167ffffffffffffffff93841681529290911660208301520161037b565b34801561074f57600080fd5b5061076361075e366004613317565b61181e565b6040805182516001600160a01b0316815260209283015167ffffffffffffffff16928101929092520161037b565b34801561079d57600080fd5b5061039961183b565b3480156107b257600080fd5b50610426600081565b3480156107c757600080fd5b506103fe6107d6366004613464565b61184a565b3480156107e757600080fd5b50600054610426565b3480156107fc57600080fd5b506103fe61080b366004613576565b61190f565b34801561081c57600080fd5b5061042661082b3660046133ad565b600c6020526000908152604090205481565b34801561084957600080fd5b506103fe611a34565b34801561085e57600080fd5b506103fe61086d366004613576565b611b6c565b6103fe610880366004613317565b611c91565b34801561089157600080fd5b506103fe6108a036600461368e565b611ec6565b3480156108b157600080fd5b506000610426565b3480156108c557600080fd5b50610399611f4b565b3480156108da57600080fd5b506103996108e9366004613317565b611fd9565b3480156108fa57600080fd5b5061042660085481565b34801561091057600080fd5b506103fe61091f36600461370a565b6120b7565b34801561093057600080fd5b5061042661093f3660046133ad565b612112565b34801561095057600080fd5b5061042661095f3660046133ad565b600d6020526000908152604090205481565b34801561097d57600080fd5b5061036f61098c366004613753565b6001600160a01b03918216600090815260076020908152604080832093909416825291909152205460ff1690565b3480156109c657600080fd5b506103fe6109d536600461343a565b61211d565b3480156109e657600080fd5b506103fe6109f53660046133ad565b612198565b348015610a0657600080fd5b506104267f000000000000000000000000000000000000000000000000000000000000000081565b348015610a3a57600080fd5b50600b54600160401b900467ffffffffffffffff16610426565b60006001600160e01b031982166380ac58cd60e01b1480610a8557506001600160e01b03198216635b5e139f60e01b145b80610aa057506001600160e01b0319821663780e9d6360e01b145b80610abb57506301ffc9a760e01b6001600160e01b03198316145b92915050565b606060028054610ad090613786565b80601f0160208091040260200160405190810160405280929190818152602001828054610afc90613786565b8015610b495780601f10610b1e57610100808354040283529160200191610b49565b820191906000526020600020905b815481529060010190602001808311610b2c57829003601f168201915b5050505050905090565b6000610b60826000541190565b610bd75760405162461bcd60e51b815260206004820152602d60248201527f455243373231413a20617070726f76656420717565727920666f72206e6f6e6560448201527f78697374656e7420746f6b656e0000000000000000000000000000000000000060648201526084015b60405180910390fd5b506000908152600660205260409020546001600160a01b031690565b6000610bfe8261168f565b9050806001600160a01b0316836001600160a01b03161415610c6d5760405162461bcd60e51b815260206004820152602260248201527f455243373231413a20617070726f76616c20746f2063757272656e74206f776e60448201526132b960f11b6064820152608401610bce565b336001600160a01b0382161480610c895750610c89813361098c565b610cfb5760405162461bcd60e51b815260206004820152603960248201527f455243373231413a20617070726f76652063616c6c6572206973206e6f74206f60448201527f776e6572206e6f7220617070726f76656420666f7220616c6c000000000000006064820152608401610bce565b610d06838383612265565b505050565b600b54600090600160401b900467ffffffffffffffff1615610d2d5750600190565b90565b610d068383836122ce565b6009546001600160a01b03163314610d835760405162461bcd60e51b815260206004820181905260248201526000805160206139fd8339815191526044820152606401610bce565b6002600a541415610dd65760405162461bcd60e51b815260206004820152601f60248201527f5265656e7472616e637947756172643a207265656e7472616e742063616c6c006044820152606401610bce565b6002600a55610de481612690565b506001600a55565b6000610df7836116b0565b8210610e505760405162461bcd60e51b815260206004820152602260248201527f455243373231413a206f776e657220696e646578206f7574206f6620626f756e604482015261647360f01b6064820152608401610bce565b600080549080805b83811015610efa576000818152600460209081526040918290208251808401909352546001600160a01b038116808452600160a01b90910467ffffffffffffffff169183019190915215610eab57805192505b876001600160a01b0316836001600160a01b03161415610ee75786841415610ed957509350610abb92505050565b83610ee3816137d7565b9450505b5080610ef2816137d7565b915050610e58565b5060405162461bcd60e51b815260206004820152602e60248201527f455243373231413a20756e61626c6520746f2067657420746f6b656e206f662060448201527f6f776e657220627920696e6465780000000000000000000000000000000000006064820152608401610bce565b323314610fb85760405162461bcd60e51b815260206004820152601e60248201527f5468652063616c6c657220697320616e6f7468657220636f6e747261637400006044820152606401610bce565b336000908152600d6020526040902054806110155760405162461bcd60e51b815260206004820152601d60248201527f6e6f7420656c696769626c6520666f7220666f756e646572206d696e740000006044820152606401610bce565b7f00000000000000000000000000000000000000000000000000000000000000008161104060005490565b61104a91906137f2565b11156110e45760405162461bcd60e51b815260206004820152604860248201527f6e6f7420656e6f7567682072656d61696e696e6720726573657276656420666f60448201527f722061756374696f6e20746f20737570706f72742064657369726564206d696e60648201527f7420616d6f756e74000000000000000000000000000000000000000000000000608482015260a401610bce565b7f00000000000000000000000000000000000000000000000000000000000000008161110f33612112565b61111991906137f2565b11156111675760405162461bcd60e51b815260206004820152601660248201527f63616e206e6f74206d696e742074686973206d616e79000000000000000000006044820152606401610bce565b336000818152600d60205260408120819055906111849083612891565b5050565b6009546001600160a01b031633146111d05760405162461bcd60e51b815260206004820181905260248201526000805160206139fd8339815191526044820152606401610bce565b7f0000000000000000000000000000000000000000000000000000000000000000816111fb60005490565b61120591906137f2565b11156112795760405162461bcd60e51b815260206004820152602760248201527f746f6f206d616e7920616c7265616479206d696e746564206265666f7265206460448201527f6576206d696e74000000000000000000000000000000000000000000000000006064820152608401610bce565b6112a37f000000000000000000000000000000000000000000000000000000000000000082613820565b156113165760405162461bcd60e51b815260206004820152602c60248201527f63616e206f6e6c79206d696e742061206d756c7469706c65206f66207468652060448201527f6d6178426174636853697a6500000000000000000000000000000000000000006064820152608401610bce565b60006113427f000000000000000000000000000000000000000000000000000000000000000083613834565b905060005b81811015610d0657611379337f0000000000000000000000000000000000000000000000000000000000000000612891565b80611383816137d7565b915050611347565b6001600160a01b0381166000908152600d6020526040812054156113b157506001919050565b506000919050565b6001600160a01b0381166000908152600c6020526040812054156113b157506001919050565b32331461142e5760405162461bcd60e51b815260206004820152601e60248201527f5468652063616c6c657220697320616e6f7468657220636f6e747261637400006044820152606401610bce565b600b54600160401b900467ffffffffffffffff168061148f5760405162461bcd60e51b815260206004820181905260248201527f616c6c6f776c6973742073616c6520686173206e6f7420626567756e207965746044820152606401610bce565b336000908152600c60205260409020546114eb5760405162461bcd60e51b815260206004820152601f60248201527f6e6f7420656c696769626c6520666f7220616c6c6f776c697374206d696e74006044820152606401610bce565b7f000000000000000000000000000000000000000000000000000000000000000061151560005490565b6115209060016137f2565b111561156e5760405162461bcd60e51b815260206004820152601260248201527f72656163686564206d617820737570706c7900000000000000000000000000006044820152606401610bce565b336000908152600c6020526040812080549161158983613848565b9190505550611599336001612891565b50565b610d0683838360405180602001604052806000815250611ec6565b6000610abb826000541190565b6000805482106116225760405162461bcd60e51b815260206004820152602360248201527f455243373231413a20676c6f62616c20696e646578206f7574206f6620626f756044820152626e647360e81b6064820152608401610bce565b5090565b6009546001600160a01b0316331461166e5760405162461bcd60e51b815260206004820181905260248201526000805160206139fd8339815191526044820152606401610bce565b610d06600e8383613170565b6000811561168a57506001919050565b919050565b600061169a826128ab565b5192915050565b60606116ab612a76565b905090565b60006001600160a01b03821661172e5760405162461bcd60e51b815260206004820152602b60248201527f455243373231413a2062616c616e636520717565727920666f7220746865207a60448201527f65726f20616464726573730000000000000000000000000000000000000000006064820152608401610bce565b506001600160a01b03166000908152600560205260409020546001600160801b031690565b6009546001600160a01b0316331461179b5760405162461bcd60e51b815260206004820181905260248201526000805160206139fd8339815191526044820152606401610bce565b6117a56000612a85565b565b6009546001600160a01b031633146117ef5760405162461bcd60e51b815260206004820181905260248201526000805160206139fd8339815191526044820152606401610bce565b600b805467ffffffffffffffff191667ffffffffffffffff92909216919091179055565b6060610abb82611fd9565b6040805180820190915260008082526020820152610abb826128ab565b606060038054610ad090613786565b6001600160a01b0382163314156118a35760405162461bcd60e51b815260206004820152601a60248201527f455243373231413a20617070726f766520746f2063616c6c65720000000000006044820152606401610bce565b3360008181526007602090815260408083206001600160a01b03871680855290835292819020805460ff191686151590811790915590519081529192917f17307eab39ab6107e8899845ad3d59bd9653f200f220920489ca2b5937696c31910160405180910390a35050565b6009546001600160a01b031633146119575760405162461bcd60e51b815260206004820181905260248201526000805160206139fd8339815191526044820152606401610bce565b80518251146119b95760405162461bcd60e51b815260206004820152602860248201527f61646472657373657320646f6573206e6f74206d61746368206e756d536c6f746044820152670e640d8cadccee8d60c31b6064820152608401610bce565b60005b8251811015610d06578181815181106119d7576119d761385f565b6020026020010151600d60008584815181106119f5576119f561385f565b60200260200101516001600160a01b03166001600160a01b03168152602001908152602001600020819055508080611a2c906137d7565b9150506119bc565b6009546001600160a01b03163314611a7c5760405162461bcd60e51b815260206004820181905260248201526000805160206139fd8339815191526044820152606401610bce565b6002600a541415611acf5760405162461bcd60e51b815260206004820152601f60248201527f5265656e7472616e637947756172643a207265656e7472616e742063616c6c006044820152606401610bce565b6002600a55604051600090339047908381818185875af1925050503d8060008114611b16576040519150601f19603f3d011682016040523d82523d6000602084013e611b1b565b606091505b5050905080610de45760405162461bcd60e51b815260206004820152601060248201527f5472616e73666572206661696c65642e000000000000000000000000000000006044820152606401610bce565b6009546001600160a01b03163314611bb45760405162461bcd60e51b815260206004820181905260248201526000805160206139fd8339815191526044820152606401610bce565b8051825114611c165760405162461bcd60e51b815260206004820152602860248201527f61646472657373657320646f6573206e6f74206d61746368206e756d536c6f746044820152670e640d8cadccee8d60c31b6064820152608401610bce565b60005b8251811015610d0657818181518110611c3457611c3461385f565b6020026020010151600c6000858481518110611c5257611c5261385f565b60200260200101516001600160a01b03166001600160a01b03168152602001908152602001600020819055508080611c89906137d7565b915050611c19565b323314611ce05760405162461bcd60e51b815260206004820152601e60248201527f5468652063616c6c657220697320616e6f7468657220636f6e747261637400006044820152606401610bce565b60408051808201909152600b5467ffffffffffffffff808216808452600160401b90920416602083015233611d615760405162461bcd60e51b815260206004820152602160248201527f455243373231413a206d696e7420746f20746865207a65726f206164647265736044820152607360f81b6064820152608401610bce565b611d6a8161167a565b611db65760405162461bcd60e51b815260206004820152601d60248201527f7075626c69632073616c6520686173206e6f7420626567756e207965740000006044820152606401610bce565b7f000000000000000000000000000000000000000000000000000000000000000083611de160005490565b611deb91906137f2565b1115611e395760405162461bcd60e51b815260206004820152601260248201527f72656163686564206d617820737570706c7900000000000000000000000000006044820152606401610bce565b7f000000000000000000000000000000000000000000000000000000000000000083611e6433612112565b611e6e91906137f2565b1115611ebc5760405162461bcd60e51b815260206004820152601660248201527f63616e206e6f74206d696e742074686973206d616e79000000000000000000006044820152606401610bce565b610d063384612891565b611ed18484846122ce565b611edd84848484612ae4565b611f455760405162461bcd60e51b815260206004820152603360248201527f455243373231413a207472616e7366657220746f206e6f6e204552433732315260448201527232b1b2b4bb32b91034b6b83632b6b2b73a32b960691b6064820152608401610bce565b50505050565b60018054611f5890613786565b80601f0160208091040260200160405190810160405280929190818152602001828054611f8490613786565b8015611fd15780601f10611fa657610100808354040283529160200191611fd1565b820191906000526020600020905b815481529060010190602001808311611fb457829003601f168201915b505050505081565b6060611fe6826000541190565b6120585760405162461bcd60e51b815260206004820152602f60248201527f4552433732314d657461646174613a2055524920717565727920666f72206e6f60448201527f6e6578697374656e7420746f6b656e00000000000000000000000000000000006064820152608401610bce565b6000612062612a76565b9050600081511161208257604051806020016040528060008152506120b0565b8061208c84612c2f565b60016040516020016120a093929190613875565b6040516020818303038152906040525b9392505050565b6009546001600160a01b031633146120ff5760405162461bcd60e51b815260206004820181905260248201526000805160206139fd8339815191526044820152606401610bce565b80516111849060019060208401906131f0565b6000610abb82612d45565b6009546001600160a01b031633146121655760405162461bcd60e51b815260206004820181905260248201526000805160206139fd8339815191526044820152606401610bce565b600b805467ffffffffffffffff909216600160401b026fffffffffffffffff000000000000000019909216919091179055565b6009546001600160a01b031633146121e05760405162461bcd60e51b815260206004820181905260248201526000805160206139fd8339815191526044820152606401610bce565b6001600160a01b03811661225c5760405162461bcd60e51b815260206004820152602660248201527f4f776e61626c653a206e6577206f776e657220697320746865207a65726f206160448201527f64647265737300000000000000000000000000000000000000000000000000006064820152608401610bce565b61159981612a85565b600082815260066020526040808220805473ffffffffffffffffffffffffffffffffffffffff19166001600160a01b0387811691821790925591518593918516917f8c5be1e5ebec7d5bd14f71427d1e84f3dd0314c0f7b2291e5b200ac8c7c3b92591a4505050565b60006122d9826128ab565b80519091506000906001600160a01b0316336001600160a01b0316148061231057503361230584610b53565b6001600160a01b0316145b8061232257508151612322903361098c565b9050806123975760405162461bcd60e51b815260206004820152603260248201527f455243373231413a207472616e736665722063616c6c6572206973206e6f742060448201527f6f776e6572206e6f7220617070726f76656400000000000000000000000000006064820152608401610bce565b846001600160a01b031682600001516001600160a01b0316146124225760405162461bcd60e51b815260206004820152602660248201527f455243373231413a207472616e736665722066726f6d20696e636f727265637460448201527f206f776e657200000000000000000000000000000000000000000000000000006064820152608401610bce565b6001600160a01b03841661249e5760405162461bcd60e51b815260206004820152602560248201527f455243373231413a207472616e7366657220746f20746865207a65726f20616460448201527f64726573730000000000000000000000000000000000000000000000000000006064820152608401610bce565b6124ae6000848460000151612265565b6001600160a01b03851660009081526005602052604081208054600192906124e09084906001600160801b0316613939565b82546101009290920a6001600160801b038181021990931691831602179091556001600160a01b0386166000908152600560205260408120805460019450909261252c91859116613961565b82546001600160801b039182166101009390930a9283029190920219909116179055506040805180820182526001600160a01b03808716825267ffffffffffffffff428116602080850191825260008981526004909152948520935184549151909216600160a01b026001600160e01b031990911691909216171790556125b48460016137f2565b6000818152600460205260409020549091506001600160a01b0316612646576125de816000541190565b156126465760408051808201825284516001600160a01b03908116825260208087015167ffffffffffffffff9081168285019081526000878152600490935294909120925183549451909116600160a01b026001600160e01b03199094169116179190911790555b83856001600160a01b0316876001600160a01b03167fddf252ad1be2c89b69c2b068fc378daa952ba7f163c4a11628f55a4df523b3ef60405160405180910390a45b505050505050565b600854816126e05760405162461bcd60e51b815260206004820152601860248201527f7175616e74697479206d757374206265206e6f6e7a65726f00000000000000006044820152606401610bce565b600060016126ee84846137f2565b6126f8919061398c565b905061272560017f000000000000000000000000000000000000000000000000000000000000000061398c565b81111561275a5761275760017f000000000000000000000000000000000000000000000000000000000000000061398c565b90505b612765816000541190565b6127d75760405162461bcd60e51b815260206004820152602660248201527f6e6f7420656e6f756768206d696e7465642079657420666f722074686973206360448201527f6c65616e757000000000000000000000000000000000000000000000000000006064820152608401610bce565b815b81811161287d576000818152600460205260409020546001600160a01b031661286b576000612807826128ab565b60408051808201825282516001600160a01b03908116825260209384015167ffffffffffffffff9081168584019081526000888152600490965293909420915182549351909416600160a01b026001600160e01b0319909316931692909217179055505b80612875816137d7565b9150506127d9565b506128898160016137f2565b600855505050565b611184828260405180602001604052806000815250612def565b60408051808201909152600080825260208201526128ca826000541190565b61293c5760405162461bcd60e51b815260206004820152602a60248201527f455243373231413a206f776e657220717565727920666f72206e6f6e6578697360448201527f74656e7420746f6b656e000000000000000000000000000000000000000000006064820152608401610bce565b60007f0000000000000000000000000000000000000000000000000000000000000000831061299d5761298f7f00000000000000000000000000000000000000000000000000000000000000008461398c565b61299a9060016137f2565b90505b825b818110612a07576000818152600460209081526040918290208251808401909352546001600160a01b038116808452600160a01b90910467ffffffffffffffff1691830191909152156129f457949350505050565b50806129ff81613848565b91505061299f565b5060405162461bcd60e51b815260206004820152602f60248201527f455243373231413a20756e61626c6520746f2064657465726d696e652074686560448201527f206f776e6572206f6620746f6b656e00000000000000000000000000000000006064820152608401610bce565b6060600e8054610ad090613786565b600980546001600160a01b0383811673ffffffffffffffffffffffffffffffffffffffff19831681179093556040519116919082907f8be0079c531659141344cd1fd0a4f28419497f9722a3daafe3b4186f6b6457e090600090a35050565b60006001600160a01b0384163b15612c2357604051630a85bd0160e11b81526001600160a01b0385169063150b7a0290612b289033908990889088906004016139a3565b6020604051808303816000875af1925050508015612b63575060408051601f3d908101601f19168201909252612b60918101906139df565b60015b612c09573d808015612b91576040519150601f19603f3d011682016040523d82523d6000602084013e612b96565b606091505b508051612c015760405162461bcd60e51b815260206004820152603360248201527f455243373231413a207472616e7366657220746f206e6f6e204552433732315260448201527232b1b2b4bb32b91034b6b83632b6b2b73a32b960691b6064820152608401610bce565b805181602001fd5b6001600160e01b031916630a85bd0160e11b149050612c27565b5060015b949350505050565b606081612c535750506040805180820190915260018152600360fc1b602082015290565b8160005b8115612c7d5780612c67816137d7565b9150612c769050600a83613834565b9150612c57565b60008167ffffffffffffffff811115612c9857612c986134a0565b6040519080825280601f01601f191660200182016040528015612cc2576020820181803683370190505b5090505b8415612c2757612cd760018361398c565b9150612ce4600a86613820565b612cef9060306137f2565b60f81b818381518110612d0457612d0461385f565b60200101907effffffffffffffffffffffffffffffffffffffffffffffffffffffffffffff1916908160001a905350612d3e600a86613834565b9450612cc6565b60006001600160a01b038216612dc35760405162461bcd60e51b815260206004820152603160248201527f455243373231413a206e756d626572206d696e74656420717565727920666f7260448201527f20746865207a65726f20616464726573730000000000000000000000000000006064820152608401610bce565b506001600160a01b0316600090815260056020526040902054600160801b90046001600160801b031690565b6000546001600160a01b038416612e525760405162461bcd60e51b815260206004820152602160248201527f455243373231413a206d696e7420746f20746865207a65726f206164647265736044820152607360f81b6064820152608401610bce565b612e5d816000541190565b15612eaa5760405162461bcd60e51b815260206004820152601d60248201527f455243373231413a20746f6b656e20616c7265616479206d696e7465640000006044820152606401610bce565b7f0000000000000000000000000000000000000000000000000000000000000000831115612f255760405162461bcd60e51b815260206004820152602260248201527f455243373231413a207175616e7469747920746f206d696e7420746f6f2068696044820152610ced60f31b6064820152608401610bce565b60008311612f7f5760405162461bcd60e51b815260206004820152602160248201527f455243373231413a207175616e7469747920746f206d696e7420746f6f206c6f6044820152607760f81b6064820152608401610bce565b6001600160a01b0384166000908152600560209081526040918290208251808401845290546001600160801b038082168352600160801b9091041691810191909152815180830190925280519091908190612fdb908790613961565b6001600160801b03168152602001858360200151612ff99190613961565b6001600160801b039081169091526001600160a01b0380881660008181526005602090815260408083208751978301518716600160801b0297909616969096179094558451808601865291825267ffffffffffffffff4281168386019081528883526004909552948120915182549451909516600160a01b026001600160e01b031990941694909216939093179190911790915582905b858110156131655760405182906001600160a01b038916906000907fddf252ad1be2c89b69c2b068fc378daa952ba7f163c4a11628f55a4df523b3ef908290a46130dd6000888488612ae4565b6131455760405162461bcd60e51b815260206004820152603360248201527f455243373231413a207472616e7366657220746f206e6f6e204552433732315260448201527232b1b2b4bb32b91034b6b83632b6b2b73a32b960691b6064820152608401610bce565b8161314f816137d7565b925050808061315d906137d7565b915050613090565b506000819055612688565b82805461317c90613786565b90600052602060002090601f01602090048101928261319e57600085556131e4565b82601f106131b75782800160ff198235161785556131e4565b828001600101855582156131e4579182015b828111156131e45782358255916020019190600101906131c9565b50611622929150613264565b8280546131fc90613786565b90600052602060002090601f01602090048101928261321e57600085556131e4565b82601f1061323757805160ff19168380011785556131e4565b828001600101855582156131e4579182015b828111156131e4578251825591602001919060010190613249565b5b808211156116225760008155600101613265565b6001600160e01b03198116811461159957600080fd5b6000602082840312156132a157600080fd5b81356120b081613279565b60005b838110156132c75781810151838201526020016132af565b83811115611f455750506000910152565b600081518084526132f08160208601602086016132ac565b601f01601f19169290920160200192915050565b6020815260006120b060208301846132d8565b60006020828403121561332957600080fd5b5035919050565b80356001600160a01b038116811461168a57600080fd5b6000806040838503121561335a57600080fd5b61336383613330565b946020939093013593505050565b60008060006060848603121561338657600080fd5b61338f84613330565b925061339d60208501613330565b9150604084013590509250925092565b6000602082840312156133bf57600080fd5b6120b082613330565b600080602083850312156133db57600080fd5b823567ffffffffffffffff808211156133f357600080fd5b818501915085601f83011261340757600080fd5b81358181111561341657600080fd5b86602082850101111561342857600080fd5b60209290920196919550909350505050565b60006020828403121561344c57600080fd5b813567ffffffffffffffff811681146120b057600080fd5b6000806040838503121561347757600080fd5b61348083613330565b91506020830135801515811461349557600080fd5b809150509250929050565b634e487b7160e01b600052604160045260246000fd5b604051601f8201601f1916810167ffffffffffffffff811182821017156134df576134df6134a0565b604052919050565b600067ffffffffffffffff821115613501576135016134a0565b5060051b60200190565b600082601f83011261351c57600080fd5b8135602061353161352c836134e7565b6134b6565b82815260059290921b8401810191818101908684111561355057600080fd5b8286015b8481101561356b5780358352918301918301613554565b509695505050505050565b6000806040838503121561358957600080fd5b823567ffffffffffffffff808211156135a157600080fd5b818501915085601f8301126135b557600080fd5b813560206135c561352c836134e7565b82815260059290921b840181019181810190898411156135e457600080fd5b948201945b83861015613609576135fa86613330565b825294820194908201906135e9565b9650508601359250508082111561361f57600080fd5b5061362c8582860161350b565b9150509250929050565b600067ffffffffffffffff831115613650576136506134a0565b613663601f8401601f19166020016134b6565b905082815283838301111561367757600080fd5b828260208301376000602084830101529392505050565b600080600080608085870312156136a457600080fd5b6136ad85613330565b93506136bb60208601613330565b925060408501359150606085013567ffffffffffffffff8111156136de57600080fd5b8501601f810187136136ef57600080fd5b6136fe87823560208401613636565b91505092959194509250565b60006020828403121561371c57600080fd5b813567ffffffffffffffff81111561373357600080fd5b8201601f8101841361374457600080fd5b612c2784823560208401613636565b6000806040838503121561376657600080fd5b61376f83613330565b915061377d60208401613330565b90509250929050565b600181811c9082168061379a57607f821691505b602082108114156137bb57634e487b7160e01b600052602260045260246000fd5b50919050565b634e487b7160e01b600052601160045260246000fd5b60006000198214156137eb576137eb6137c1565b5060010190565b60008219821115613805576138056137c1565b500190565b634e487b7160e01b600052601260045260246000fd5b60008261382f5761382f61380a565b500690565b6000826138435761384361380a565b500490565b600081613857576138576137c1565b506000190190565b634e487b7160e01b600052603260045260246000fd5b6000845160206138888285838a016132ac565b85519184019161389b8184848a016132ac565b8554920191600090600181811c90808316806138b857607f831692505b8583108114156138d657634e487b7160e01b85526022600452602485fd5b8080156138ea57600181146138fb57613928565b60ff19851688528388019550613928565b60008b81526020902060005b858110156139205781548a820152908401908801613907565b505083880195505b50939b9a5050505050505050505050565b60006001600160801b0383811690831681811015613959576139596137c1565b039392505050565b60006001600160801b03808316818516808303821115613983576139836137c1565b01949350505050565b60008282101561399e5761399e6137c1565b500390565b60006001600160a01b038087168352808616602084015250836040830152608060608301526139d560808301846132d8565b9695505050505050565b6000602082840312156139f157600080fd5b81516120b08161327956fe4f776e61626c653a2063616c6c6572206973206e6f7420746865206f776e6572a2646970667358221220f8af4e97e981525348ef0c613a1d086d0726b5696770d32ebdc12c81dd2b3ba864736f6c634300080b0033",
  "linkReferences": {},
  "deployedLinkReferences": {}
}