{
  "_format": "hh-sol-artifact-1",
  "contractName": "Nexu5",
  "sourceName": "contracts/Nexu5.sol",
  "abi": [
    {
      "inputs": [
        {
          "internalType": "uint256",
          "name": "maxBatchSize_",
          "type": "uint256"
        },
        {
          "internalType": "uint256",
          "name": "collectionSize_",
          "type": "uint256"
        },
        {
          "internalType": "uint256",
          "name": "amountForFounders_",
          "type": "uint256"
        },
        {
          "internalType": "uint256",
          "name": "amountForDevs_",
          "type": "uint256"
        }
      ],
      "stateMutability": "nonpayable",
      "type": "constructor"
    },
    {
      "anonymous": false,
      "inputs": [
        {
          "indexed": true,
          "internalType": "address",
          "name": "owner",
          "type": "address"
        },
        {
          "indexed": true,
          "internalType": "address",
          "name": "approved",
          "type": "address"
        },
        {
          "indexed": true,
          "internalType": "uint256",
          "name": "tokenId",
          "type": "uint256"
        }
      ],
      "name": "Approval",
      "type": "event"
    },
    {
      "anonymous": false,
      "inputs": [
        {
          "indexed": true,
          "internalType": "address",
          "name": "owner",
          "type": "address"
        },
        {
          "indexed": true,
          "internalType": "address",
          "name": "operator",
          "type": "address"
        },
        {
          "indexed": false,
          "internalType": "bool",
          "name": "approved",
          "type": "bool"
        }
      ],
      "name": "ApprovalForAll",
      "type": "event"
    },
    {
      "anonymous": false,
      "inputs": [
        {
          "indexed": true,
          "internalType": "address",
          "name": "previousOwner",
          "type": "address"
        },
        {
          "indexed": true,
          "internalType": "address",
          "name": "newOwner",
          "type": "address"
        }
      ],
      "name": "OwnershipTransferred",
      "type": "event"
    },
    {
      "anonymous": false,
      "inputs": [
        {
          "indexed": true,
          "internalType": "address",
          "name": "from",
          "type": "address"
        },
        {
          "indexed": true,
          "internalType": "address",
          "name": "to",
          "type": "address"
        },
        {
          "indexed": true,
          "internalType": "uint256",
          "name": "tokenId",
          "type": "uint256"
        }
      ],
      "name": "Transfer",
      "type": "event"
    },
    {
      "inputs": [],
      "name": "FOUNDER_TOKEN_PRICE",
      "outputs": [
        {
          "internalType": "uint256",
          "name": "",
          "type": "uint256"
        }
      ],
      "stateMutability": "view",
      "type": "function"
    },
    {
      "inputs": [
        {
          "internalType": "uint64",
          "name": "_publicPriceWei",
          "type": "uint64"
        }
      ],
      "name": "SetupPublicSaleInfo",
      "outputs": [],
      "stateMutability": "nonpayable",
      "type": "function"
    },
    {
      "inputs": [
        {
          "internalType": "uint64",
          "name": "_WhiteListPriceWei",
          "type": "uint64"
        }
      ],
      "name": "SetupWhitelistSale",
      "outputs": [],
      "stateMutability": "nonpayable",
      "type": "function"
    },
    {
      "inputs": [
        {
          "internalType": "uint256",
          "name": "tokenId",
          "type": "uint256"
        }
      ],
      "name": "_tokenURI",
      "outputs": [
        {
          "internalType": "string",
          "name": "",
          "type": "string"
        }
      ],
      "stateMutability": "view",
      "type": "function"
    },
    {
      "inputs": [
        {
          "internalType": "address",
          "name": "",
          "type": "address"
        }
      ],
      "name": "allowlist",
      "outputs": [
        {
          "internalType": "uint256",
          "name": "",
          "type": "uint256"
        }
      ],
      "stateMutability": "view",
      "type": "function"
    },
    {
      "inputs": [],
      "name": "allowlistMint",
      "outputs": [],
      "stateMutability": "payable",
      "type": "function"
    },
    {
      "inputs": [],
      "name": "amountForDevs",
      "outputs": [
        {
          "internalType": "uint256",
          "name": "",
          "type": "uint256"
        }
      ],
      "stateMutability": "view",
      "type": "function"
    },
    {
      "inputs": [],
      "name": "amountForFounders",
      "outputs": [
        {
          "internalType": "uint256",
          "name": "",
          "type": "uint256"
        }
      ],
      "stateMutability": "view",
      "type": "function"
    },
    {
      "inputs": [
        {
          "internalType": "address",
          "name": "to",
          "type": "address"
        },
        {
          "internalType": "uint256",
          "name": "tokenId",
          "type": "uint256"
        }
      ],
      "name": "approve",
      "outputs": [],
      "stateMutability": "nonpayable",
      "type": "function"
    },
    {
      "inputs": [
        {
          "internalType": "address",
          "name": "owner",
          "type": "address"
        }
      ],
      "name": "balanceOf",
      "outputs": [
        {
          "internalType": "uint256",
          "name": "",
          "type": "uint256"
        }
      ],
      "stateMutability": "view",
      "type": "function"
    },
    {
      "inputs": [],
      "name": "baseExtension",
      "outputs": [
        {
          "internalType": "string",
          "name": "",
          "type": "string"
        }
      ],
      "stateMutability": "view",
      "type": "function"
    },
    {
      "inputs": [],
      "name": "baseURI",
      "outputs": [
        {
          "internalType": "string",
          "name": "",
          "type": "string"
        }
      ],
      "stateMutability": "view",
      "type": "function"
    },
    {
      "inputs": [
        {
          "internalType": "uint256",
          "name": "quantity",
          "type": "uint256"
        }
      ],
      "name": "devMint",
      "outputs": [],
      "stateMutability": "nonpayable",
      "type": "function"
    },
    {
      "inputs": [
        {
          "internalType": "uint256",
          "name": "tokenId",
          "type": "uint256"
        }
      ],
      "name": "exists",
      "outputs": [
        {
          "internalType": "bool",
          "name": "",
          "type": "bool"
        }
      ],
      "stateMutability": "view",
      "type": "function"
    },
    {
      "inputs": [
        {
          "internalType": "uint256",
          "name": "quantity",
          "type": "uint256"
        }
      ],
      "name": "founderMint",
      "outputs": [],
      "stateMutability": "payable",
      "type": "function"
    },
    {
      "inputs": [
        {
          "internalType": "address",
          "name": "",
          "type": "address"
        }
      ],
      "name": "founderlist",
      "outputs": [
        {
          "internalType": "uint256",
          "name": "",
          "type": "uint256"
        }
      ],
      "stateMutability": "view",
      "type": "function"
    },
    {
      "inputs": [
        {
          "internalType": "uint256",
          "name": "tokenId",
          "type": "uint256"
        }
      ],
      "name": "getApproved",
      "outputs": [
        {
          "internalType": "address",
          "name": "",
          "type": "address"
        }
      ],
      "stateMutability": "view",
      "type": "function"
    },
    {
      "inputs": [],
      "name": "getFounderPrice",
      "outputs": [
        {
          "internalType": "uint256",
          "name": "",
          "type": "uint256"
        }
      ],
      "stateMutability": "view",
      "type": "function"
    },
    {
      "inputs": [],
      "name": "getMintlistPrice",
      "outputs": [
        {
          "internalType": "uint256",
          "name": "",
          "type": "uint256"
        }
      ],
      "stateMutability": "view",
      "type": "function"
    },
    {
      "inputs": [
        {
          "internalType": "uint256",
          "name": "tokenId",
          "type": "uint256"
        }
      ],
      "name": "getOwnershipData",
      "outputs": [
        {
          "components": [
            {
              "internalType": "address",
              "name": "addr",
              "type": "address"
            },
            {
              "internalType": "uint64",
              "name": "startTimestamp",
              "type": "uint64"
            }
          ],
          "internalType": "struct ERC721A.TokenOwnership",
          "name": "",
          "type": "tuple"
        }
      ],
      "stateMutability": "view",
      "type": "function"
    },
    {
      "inputs": [
        {
          "internalType": "address",
          "name": "owner",
          "type": "address"
        },
        {
          "internalType": "address",
          "name": "operator",
          "type": "address"
        }
      ],
      "name": "isApprovedForAll",
      "outputs": [
        {
          "internalType": "bool",
          "name": "",
          "type": "bool"
        }
      ],
      "stateMutability": "view",
      "type": "function"
    },
    {
      "inputs": [
        {
          "internalType": "address",
          "name": "_user",
          "type": "address"
        }
      ],
      "name": "isFounderlisted",
      "outputs": [
        {
          "internalType": "bool",
          "name": "",
          "type": "bool"
        }
      ],
      "stateMutability": "view",
      "type": "function"
    },
    {
      "inputs": [
        {
          "internalType": "uint256",
          "name": "publicPriceWei",
          "type": "uint256"
        }
      ],
      "name": "isPublicSaleOn",
      "outputs": [
        {
          "internalType": "bool",
          "name": "",
          "type": "bool"
        }
      ],
      "stateMutability": "view",
      "type": "function"
    },
    {
      "inputs": [],
      "name": "isWhistlistSaleOn",
      "outputs": [
        {
          "internalType": "bool",
          "name": "",
          "type": "bool"
        }
      ],
      "stateMutability": "view",
      "type": "function"
    },
    {
      "inputs": [
        {
          "internalType": "address",
          "name": "_user",
          "type": "address"
        }
      ],
      "name": "isWhitelisted",
      "outputs": [
        {
          "internalType": "bool",
          "name": "",
          "type": "bool"
        }
      ],
      "stateMutability": "view",
      "type": "function"
    },
    {
      "inputs": [],
      "name": "maxPerAddressDuringMint",
      "outputs": [
        {
          "internalType": "uint256",
          "name": "",
          "type": "uint256"
        }
      ],
      "stateMutability": "view",
      "type": "function"
    },
    {
      "inputs": [],
      "name": "name",
      "outputs": [
        {
          "internalType": "string",
          "name": "",
          "type": "string"
        }
      ],
      "stateMutability": "view",
      "type": "function"
    },
    {
      "inputs": [],
      "name": "nextOwnerToExplicitlySet",
      "outputs": [
        {
          "internalType": "uint256",
          "name": "",
          "type": "uint256"
        }
      ],
      "stateMutability": "view",
      "type": "function"
    },
    {
      "inputs": [
        {
          "internalType": "address",
          "name": "owner",
          "type": "address"
        }
      ],
      "name": "numberMinted",
      "outputs": [
        {
          "internalType": "uint256",
          "name": "",
          "type": "uint256"
        }
      ],
      "stateMutability": "view",
      "type": "function"
    },
    {
      "inputs": [],
      "name": "owner",
      "outputs": [
        {
          "internalType": "address",
          "name": "",
          "type": "address"
        }
      ],
      "stateMutability": "view",
      "type": "function"
    },
    {
      "inputs": [
        {
          "internalType": "uint256",
          "name": "tokenId",
          "type": "uint256"
        }
      ],
      "name": "ownerOf",
      "outputs": [
        {
          "internalType": "address",
          "name": "",
          "type": "address"
        }
      ],
      "stateMutability": "view",
      "type": "function"
    },
    {
      "inputs": [
        {
          "internalType": "uint256",
          "name": "quantity",
          "type": "uint256"
        }
      ],
      "name": "publicSaleMint",
      "outputs": [],
      "stateMutability": "payable",
      "type": "function"
    },
    {
      "inputs": [],
      "name": "renounceOwnership",
      "outputs": [],
      "stateMutability": "nonpayable",
      "type": "function"
    },
    {
      "inputs": [
        {
          "internalType": "address",
          "name": "from",
          "type": "address"
        },
        {
          "internalType": "address",
          "name": "to",
          "type": "address"
        },
        {
          "internalType": "uint256",
          "name": "tokenId",
          "type": "uint256"
        }
      ],
      "name": "safeTransferFrom",
      "outputs": [],
      "stateMutability": "nonpayable",
      "type": "function"
    },
    {
      "inputs": [
        {
          "internalType": "address",
          "name": "from",
          "type": "address"
        },
        {
          "internalType": "address",
          "name": "to",
          "type": "address"
        },
        {
          "internalType": "uint256",
          "name": "tokenId",
          "type": "uint256"
        },
        {
          "internalType": "bytes",
          "name": "_data",
          "type": "bytes"
        }
      ],
      "name": "safeTransferFrom",
      "outputs": [],
      "stateMutability": "nonpayable",
      "type": "function"
    },
    {
      "inputs": [],
      "name": "saleConfig",
      "outputs": [
        {
          "internalType": "uint64",
          "name": "publicPrice",
          "type": "uint64"
        },
        {
          "internalType": "uint64",
          "name": "mintlistPrice",
          "type": "uint64"
        }
      ],
      "stateMutability": "view",
      "type": "function"
    },
    {
      "inputs": [
        {
          "internalType": "address[]",
          "name": "addresses",
          "type": "address[]"
        },
        {
          "internalType": "uint256[]",
          "name": "numSlots",
          "type": "uint256[]"
        }
      ],
      "name": "seedAllowlist",
      "outputs": [],
      "stateMutability": "nonpayable",
      "type": "function"
    },
    {
      "inputs": [
        {
          "internalType": "address[]",
          "name": "addresses",
          "type": "address[]"
        },
        {
          "internalType": "uint256[]",
          "name": "numSlots",
          "type": "uint256[]"
        }
      ],
      "name": "seedFounderlist",
      "outputs": [],
      "stateMutability": "nonpayable",
      "type": "function"
    },
    {
      "inputs": [
        {
          "internalType": "address",
          "name": "operator",
          "type": "address"
        },
        {
          "internalType": "bool",
          "name": "approved",
          "type": "bool"
        }
      ],
      "name": "setApprovalForAll",
      "outputs": [],
      "stateMutability": "nonpayable",
      "type": "function"
    },
    {
      "inputs": [
        {
          "internalType": "string",
          "name": "_newBaseExtension",
          "type": "string"
        }
      ],
      "name": "setBaseExtension",
      "outputs": [],
      "stateMutability": "nonpayable",
      "type": "function"
    },
    {
      "inputs": [
        {
          "internalType": "string",
          "name": "baseURI",
          "type": "string"
        }
      ],
      "name": "setBaseURI",
      "outputs": [],
      "stateMutability": "nonpayable",
      "type": "function"
    },
    {
      "inputs": [
        {
          "internalType": "uint256",
          "name": "quantity",
          "type": "uint256"
        }
      ],
      "name": "setOwnersExplicit",
      "outputs": [],
      "stateMutability": "nonpayable",
      "type": "function"
    },
    {
      "inputs": [
        {
          "internalType": "bytes4",
          "name": "interfaceId",
          "type": "bytes4"
        }
      ],
      "name": "supportsInterface",
      "outputs": [
        {
          "internalType": "bool",
          "name": "",
          "type": "bool"
        }
      ],
      "stateMutability": "view",
      "type": "function"
    },
    {
      "inputs": [],
      "name": "symbol",
      "outputs": [
        {
          "internalType": "string",
          "name": "",
          "type": "string"
        }
      ],
      "stateMutability": "view",
      "type": "function"
    },
    {
      "inputs": [
        {
          "internalType": "uint256",
          "name": "index",
          "type": "uint256"
        }
      ],
      "name": "tokenByIndex",
      "outputs": [
        {
          "internalType": "uint256",
          "name": "",
          "type": "uint256"
        }
      ],
      "stateMutability": "view",
      "type": "function"
    },
    {
      "inputs": [
        {
          "internalType": "address",
          "name": "owner",
          "type": "address"
        },
        {
          "internalType": "uint256",
          "name": "index",
          "type": "uint256"
        }
      ],
      "name": "tokenOfOwnerByIndex",
      "outputs": [
        {
          "internalType": "uint256",
          "name": "",
          "type": "uint256"
        }
      ],
      "stateMutability": "view",
      "type": "function"
    },
    {
      "inputs": [
        {
          "internalType": "uint256",
          "name": "tokenId",
          "type": "uint256"
        }
      ],
      "name": "tokenURI",
      "outputs": [
        {
          "internalType": "string",
          "name": "",
          "type": "string"
        }
      ],
      "stateMutability": "view",
      "type": "function"
    },
    {
      "inputs": [],
      "name": "totalMinted",
      "outputs": [
        {
          "internalType": "uint256",
          "name": "",
          "type": "uint256"
        }
      ],
      "stateMutability": "view",
      "type": "function"
    },
    {
      "inputs": [],
      "name": "totalSupply",
      "outputs": [
        {
          "internalType": "uint256",
          "name": "",
          "type": "uint256"
        }
      ],
      "stateMutability": "view",
      "type": "function"
    },
    {
      "inputs": [
        {
          "internalType": "address",
          "name": "from",
          "type": "address"
        },
        {
          "internalType": "address",
          "name": "to",
          "type": "address"
        },
        {
          "internalType": "uint256",
          "name": "tokenId",
          "type": "uint256"
        }
      ],
      "name": "transferFrom",
      "outputs": [],
      "stateMutability": "nonpayable",
      "type": "function"
    },
    {
      "inputs": [
        {
          "internalType": "address",
          "name": "newOwner",
          "type": "address"
        }
      ],
      "name": "transferOwnership",
      "outputs": [],
      "stateMutability": "nonpayable",
      "type": "function"
    },
    {
      "inputs": [],
      "name": "withdrawMoney",
      "outputs": [],
      "stateMutability": "nonpayable",
      "type": "function"
    }
  ],
  "bytecode": "0x60008055610160604052600561012081905264173539b7b760d91b6101409081526200002f916001919062000276565b5060006008553480156200004257600080fd5b5060405162003f3238038062003f3283398101604081905262000065916200031c565b604051806040016040528060058152602001644e6578753560d81b815250604051806040016040528060038152602001624e583560e81b8152508585600081116200010e5760405162461bcd60e51b815260206004820152602e60248201527f455243373231413a20636f6c6c656374696f6e206d757374206861766520612060448201526d6e6f6e7a65726f20737570706c7960901b60648201526084015b60405180910390fd5b60008211620001705760405162461bcd60e51b815260206004820152602760248201527f455243373231413a206d61782062617463682073697a65206d757374206265206044820152666e6f6e7a65726f60c81b606482015260840162000105565b83516200018590600290602087019062000276565b5082516200019b90600390602086019062000276565b5060a09190915260805250620001b390503362000224565b6001600a5560c084905261010082905260e0819052828211156200021a5760405162461bcd60e51b815260206004820152601d60248201527f6c617267657220636f6c6c656374696f6e2073697a65206e6565646564000000604482015260640162000105565b5050505062000390565b600980546001600160a01b038381166001600160a01b0319831681179093556040519116919082907f8be0079c531659141344cd1fd0a4f28419497f9722a3daafe3b4186f6b6457e090600090a35050565b828054620002849062000353565b90600052602060002090601f016020900481019282620002a85760008555620002f3565b82601f10620002c357805160ff1916838001178555620002f3565b82800160010185558215620002f3579182015b82811115620002f3578251825591602001919060010190620002d6565b506200030192915062000305565b5090565b5b8082111562000301576000815560010162000306565b600080600080608085870312156200033357600080fd5b505082516020840151604085015160609095015191969095509092509050565b600181811c908216806200036857607f821691505b602082108114156200038a57634e487b7160e01b600052602260045260246000fd5b50919050565b60805160a05160c05160e05161010051613b09620004296000396000818161060d01526120f00152600081816109ea0152610f9101526000818161066101528181611c0301526121bf01526000818161103d015281816110dc01528181611114015281816129d801528181612a020152612f440152600081816112ac01528181611b800152818161270b015261273d0152613b096000f3fe60806040526004361061033f5760003560e01c80638da5cb5b116101b0578063bb9bb91c116100ec578063e562c5a711610095578063f2fde38b1161006f578063f2fde38b146109a5578063f42202e8146109c5578063fbe1aa51146109d8578063fc5f712214610a0c57600080fd5b8063e562c5a71461090f578063e985e9c51461093c578063edfc2a5f1461098557600080fd5b8063d7224ba0116100c6578063d7224ba0146108b9578063da3ef23f146108cf578063dc33e681146108ef57600080fd5b8063bb9bb91c14610870578063c668286214610884578063c87b56dd1461089957600080fd5b8063a2309ff811610159578063ac44600211610133578063ac44600214610808578063b05863d51461081d578063b3ab66b01461083d578063b88d4fde1461085057600080fd5b8063a2309ff8146107a6578063a2f1bc13146107bb578063a7cd52cb146107db57600080fd5b806395d89b411161018a57806395d89b411461075c57806397359f9714610771578063a22cb4651461078657600080fd5b80638da5cb5b146106a357806390aa0b0f146106c15780639231ab2a1461070e57600080fd5b806342842e0e1161027f5780636c0360eb11610228578063847954c411610202578063847954c4146105fb57806389430cc01461062f5780638bc35c2f1461064f5780638d17e7121461068357600080fd5b80636c0360eb146105b157806370a08231146105c6578063715018a6146105e657600080fd5b806355f804b31161025957806355f804b3146105515780635ec08519146105715780636352211e1461059157600080fd5b806342842e0e146104f15780634f558e79146105115780634f6ccce71461053157600080fd5b806323b872dd116102ec578063375a069a116102c6578063375a069a146104895780633a67051e146104a95780633af32abf146104c957806341fbddbd146104e957600080fd5b806323b872dd146104295780632d20fb60146104495780632f745c591461046957600080fd5b8063095ea7b31161031d578063095ea7b3146103d35780630a65a44a146103f557806318160ddd1461040a57600080fd5b806301ffc9a71461034457806306fdde0314610379578063081812fc1461039b575b600080fd5b34801561035057600080fd5b5061036461035f366004613327565b610a32565b60405190151581526020015b60405180910390f35b34801561038557600080fd5b5061038e610a9f565b604051610370919061339c565b3480156103a757600080fd5b506103bb6103b63660046133af565b610b31565b6040516001600160a01b039091168152602001610370565b3480156103df57600080fd5b506103f36103ee3660046133df565b610bd1565b005b34801561040157600080fd5b50610364610ce9565b34801561041657600080fd5b506000545b604051908152602001610370565b34801561043557600080fd5b506103f3610444366004613409565b610d0e565b34801561045557600080fd5b506103f36104643660046133af565b610d19565b34801561047557600080fd5b5061041b6104843660046133df565b610dca565b34801561049557600080fd5b506103f36104a43660046133af565b610f47565b3480156104b557600080fd5b506103646104c4366004613445565b61114a565b3480156104d557600080fd5b506103646104e4366004613445565b611178565b6103f361119e565b3480156104fd57600080fd5b506103f361050c366004613409565b611364565b34801561051d57600080fd5b5061036461052c3660046133af565b61137f565b34801561053d57600080fd5b5061041b61054c3660046133af565b61138c565b34801561055d57600080fd5b506103f361056c366004613460565b6113ee565b34801561057d57600080fd5b5061036461058c3660046133af565b611442565b34801561059d57600080fd5b506103bb6105ac3660046133af565b611457565b3480156105bd57600080fd5b5061038e611469565b3480156105d257600080fd5b5061041b6105e1366004613445565b611478565b3480156105f257600080fd5b506103f361151b565b34801561060757600080fd5b5061041b7f000000000000000000000000000000000000000000000000000000000000000081565b34801561063b57600080fd5b506103f361064a3660046134d2565b61156f565b34801561065b57600080fd5b5061041b7f000000000000000000000000000000000000000000000000000000000000000081565b34801561068f57600080fd5b5061038e61069e3660046133af565b6115db565b3480156106af57600080fd5b506009546001600160a01b03166103bb565b3480156106cd57600080fd5b50600b546106ed9067ffffffffffffffff80821691600160401b90041682565b6040805167ffffffffffffffff938416815292909116602083015201610370565b34801561071a57600080fd5b5061072e6107293660046133af565b6115e6565b6040805182516001600160a01b0316815260209283015167ffffffffffffffff169281019290925201610370565b34801561076857600080fd5b5061038e611603565b34801561077d57600080fd5b5061041b600081565b34801561079257600080fd5b506103f36107a13660046134fc565b611612565b3480156107b257600080fd5b5060005461041b565b3480156107c757600080fd5b506103f36107d636600461360e565b6116d7565b3480156107e757600080fd5b5061041b6107f6366004613445565b600c6020526000908152604090205481565b34801561081457600080fd5b506103f36117fc565b34801561082957600080fd5b506103f361083836600461360e565b611934565b6103f361084b3660046133af565b611a59565b34801561085c57600080fd5b506103f361086b366004613726565b611ca0565b34801561087c57600080fd5b50600061041b565b34801561089057600080fd5b5061038e611d25565b3480156108a557600080fd5b5061038e6108b43660046133af565b611db3565b3480156108c557600080fd5b5061041b60085481565b3480156108db57600080fd5b506103f36108ea3660046137a2565b611e91565b3480156108fb57600080fd5b5061041b61090a366004613445565b611ef0565b34801561091b57600080fd5b5061041b61092a366004613445565b600d6020526000908152604090205481565b34801561094857600080fd5b506103646109573660046137eb565b6001600160a01b03918216600090815260076020908152604080832093909416825291909152205460ff1690565b34801561099157600080fd5b506103f36109a03660046134d2565b611efb565b3480156109b157600080fd5b506103f36109c0366004613445565b611f76565b6103f36109d33660046133af565b612043565b3480156109e457600080fd5b5061041b7f000000000000000000000000000000000000000000000000000000000000000081565b348015610a1857600080fd5b50600b54600160401b900467ffffffffffffffff1661041b565b60006001600160e01b031982166380ac58cd60e01b1480610a6357506001600160e01b03198216635b5e139f60e01b145b80610a7e57506001600160e01b0319821663780e9d6360e01b145b80610a9957506301ffc9a760e01b6001600160e01b03198316145b92915050565b606060028054610aae9061381e565b80601f0160208091040260200160405190810160405280929190818152602001828054610ada9061381e565b8015610b275780601f10610afc57610100808354040283529160200191610b27565b820191906000526020600020905b815481529060010190602001808311610b0a57829003601f168201915b5050505050905090565b6000610b3e826000541190565b610bb55760405162461bcd60e51b815260206004820152602d60248201527f455243373231413a20617070726f76656420717565727920666f72206e6f6e6560448201527f78697374656e7420746f6b656e0000000000000000000000000000000000000060648201526084015b60405180910390fd5b506000908152600660205260409020546001600160a01b031690565b6000610bdc82611457565b9050806001600160a01b0316836001600160a01b03161415610c4b5760405162461bcd60e51b815260206004820152602260248201527f455243373231413a20617070726f76616c20746f2063757272656e74206f776e60448201526132b960f11b6064820152608401610bac565b336001600160a01b0382161480610c675750610c678133610957565b610cd95760405162461bcd60e51b815260206004820152603960248201527f455243373231413a20617070726f76652063616c6c6572206973206e6f74206f60448201527f776e6572206e6f7220617070726f76656420666f7220616c6c000000000000006064820152608401610bac565b610ce483838361226f565b505050565b600b54600090600160401b900467ffffffffffffffff1615610d0b5750600190565b90565b610ce48383836122d8565b6009546001600160a01b03163314610d615760405162461bcd60e51b81526020600482018190526024820152600080516020613ab48339815191526044820152606401610bac565b6002600a541415610db45760405162461bcd60e51b815260206004820152601f60248201527f5265656e7472616e637947756172643a207265656e7472616e742063616c6c006044820152606401610bac565b6002600a55610dc28161269a565b506001600a55565b6000610dd583611478565b8210610e2e5760405162461bcd60e51b815260206004820152602260248201527f455243373231413a206f776e657220696e646578206f7574206f6620626f756e604482015261647360f01b6064820152608401610bac565b600080549080805b83811015610ed8576000818152600460209081526040918290208251808401909352546001600160a01b038116808452600160a01b90910467ffffffffffffffff169183019190915215610e8957805192505b876001600160a01b0316836001600160a01b03161415610ec55786841415610eb757509350610a9992505050565b83610ec18161386f565b9450505b5080610ed08161386f565b915050610e36565b5060405162461bcd60e51b815260206004820152602e60248201527f455243373231413a20756e61626c6520746f2067657420746f6b656e206f662060448201527f6f776e657220627920696e6465780000000000000000000000000000000000006064820152608401610bac565b6009546001600160a01b03163314610f8f5760405162461bcd60e51b81526020600482018190526024820152600080516020613ab48339815191526044820152606401610bac565b7f000000000000000000000000000000000000000000000000000000000000000081610fba60005490565b610fc4919061388a565b11156110385760405162461bcd60e51b815260206004820152602760248201527f746f6f206d616e7920616c7265616479206d696e746564206265666f7265206460448201527f6576206d696e74000000000000000000000000000000000000000000000000006064820152608401610bac565b6110627f0000000000000000000000000000000000000000000000000000000000000000826138b8565b156110d55760405162461bcd60e51b815260206004820152602c60248201527f63616e206f6e6c79206d696e742061206d756c7469706c65206f66207468652060448201527f6d6178426174636853697a6500000000000000000000000000000000000000006064820152608401610bac565b60006111017f0000000000000000000000000000000000000000000000000000000000000000836138cc565b905060005b81811015610ce457611138337f000000000000000000000000000000000000000000000000000000000000000061289b565b806111428161386f565b915050611106565b6001600160a01b0381166000908152600d60205260408120541561117057506001919050565b506000919050565b6001600160a01b0381166000908152600c60205260408120541561117057506001919050565b3233146111ed5760405162461bcd60e51b815260206004820152601e60248201527f5468652063616c6c657220697320616e6f7468657220636f6e747261637400006044820152606401610bac565b600b54600160401b900467ffffffffffffffff168061124e5760405162461bcd60e51b815260206004820181905260248201527f616c6c6f776c6973742073616c6520686173206e6f7420626567756e207965746044820152606401610bac565b336000908152600c60205260409020546112aa5760405162461bcd60e51b815260206004820152601f60248201527f6e6f7420656c696769626c6520666f7220616c6c6f776c697374206d696e74006044820152606401610bac565b7f00000000000000000000000000000000000000000000000000000000000000006112d460005490565b6112df90600161388a565b111561132d5760405162461bcd60e51b815260206004820152601260248201527f72656163686564206d617820737570706c7900000000000000000000000000006044820152606401610bac565b336000908152600c60205260408120805491611348836138e0565b919050555061135833600161289b565b611361816128b5565b50565b610ce483838360405180602001604052806000815250611ca0565b6000610a99826000541190565b6000805482106113ea5760405162461bcd60e51b815260206004820152602360248201527f455243373231413a20676c6f62616c20696e646578206f7574206f6620626f756044820152626e647360e81b6064820152608401610bac565b5090565b6009546001600160a01b031633146114365760405162461bcd60e51b81526020600482018190526024820152600080516020613ab48339815191526044820152606401610bac565b610ce4600e8383613208565b6000811561145257506001919050565b919050565b600061146282612943565b5192915050565b6060611473612b0e565b905090565b60006001600160a01b0382166114f65760405162461bcd60e51b815260206004820152602b60248201527f455243373231413a2062616c616e636520717565727920666f7220746865207a60448201527f65726f20616464726573730000000000000000000000000000000000000000006064820152608401610bac565b506001600160a01b03166000908152600560205260409020546001600160801b031690565b6009546001600160a01b031633146115635760405162461bcd60e51b81526020600482018190526024820152600080516020613ab48339815191526044820152606401610bac565b61156d6000612b1d565b565b6009546001600160a01b031633146115b75760405162461bcd60e51b81526020600482018190526024820152600080516020613ab48339815191526044820152606401610bac565b600b805467ffffffffffffffff191667ffffffffffffffff92909216919091179055565b6060610a9982611db3565b6040805180820190915260008082526020820152610a9982612943565b606060038054610aae9061381e565b6001600160a01b03821633141561166b5760405162461bcd60e51b815260206004820152601a60248201527f455243373231413a20617070726f766520746f2063616c6c65720000000000006044820152606401610bac565b3360008181526007602090815260408083206001600160a01b03871680855290835292819020805460ff191686151590811790915590519081529192917f17307eab39ab6107e8899845ad3d59bd9653f200f220920489ca2b5937696c31910160405180910390a35050565b6009546001600160a01b0316331461171f5760405162461bcd60e51b81526020600482018190526024820152600080516020613ab48339815191526044820152606401610bac565b80518251146117815760405162461bcd60e51b815260206004820152602860248201527f61646472657373657320646f6573206e6f74206d61746368206e756d536c6f746044820152670e640d8cadccee8d60c31b6064820152608401610bac565b60005b8251811015610ce45781818151811061179f5761179f6138f7565b6020026020010151600d60008584815181106117bd576117bd6138f7565b60200260200101516001600160a01b03166001600160a01b031681526020019081526020016000208190555080806117f49061386f565b915050611784565b6009546001600160a01b031633146118445760405162461bcd60e51b81526020600482018190526024820152600080516020613ab48339815191526044820152606401610bac565b6002600a5414156118975760405162461bcd60e51b815260206004820152601f60248201527f5265656e7472616e637947756172643a207265656e7472616e742063616c6c006044820152606401610bac565b6002600a55604051600090339047908381818185875af1925050503d80600081146118de576040519150601f19603f3d011682016040523d82523d6000602084013e6118e3565b606091505b5050905080610dc25760405162461bcd60e51b815260206004820152601060248201527f5472616e73666572206661696c65642e000000000000000000000000000000006044820152606401610bac565b6009546001600160a01b0316331461197c5760405162461bcd60e51b81526020600482018190526024820152600080516020613ab48339815191526044820152606401610bac565b80518251146119de5760405162461bcd60e51b815260206004820152602860248201527f61646472657373657320646f6573206e6f74206d61746368206e756d536c6f746044820152670e640d8cadccee8d60c31b6064820152608401610bac565b60005b8251811015610ce4578181815181106119fc576119fc6138f7565b6020026020010151600c6000858481518110611a1a57611a1a6138f7565b60200260200101516001600160a01b03166001600160a01b03168152602001908152602001600020819055508080611a519061386f565b9150506119e1565b323314611aa85760405162461bcd60e51b815260206004820152601e60248201527f5468652063616c6c657220697320616e6f7468657220636f6e747261637400006044820152606401610bac565b60408051808201909152600b5467ffffffffffffffff808216808452600160401b90920416602083015233611b295760405162461bcd60e51b815260206004820152602160248201527f455243373231413a206d696e7420746f20746865207a65726f206164647265736044820152607360f81b6064820152608401610bac565b611b3281611442565b611b7e5760405162461bcd60e51b815260206004820152601d60248201527f7075626c69632073616c6520686173206e6f7420626567756e207965740000006044820152606401610bac565b7f000000000000000000000000000000000000000000000000000000000000000083611ba960005490565b611bb3919061388a565b1115611c015760405162461bcd60e51b815260206004820152601260248201527f72656163686564206d617820737570706c7900000000000000000000000000006044820152606401610bac565b7f000000000000000000000000000000000000000000000000000000000000000083611c2c33611ef0565b611c36919061388a565b1115611c845760405162461bcd60e51b815260206004820152601660248201527f63616e206e6f74206d696e742074686973206d616e79000000000000000000006044820152606401610bac565b611c8e338461289b565b610ce4611c9b848361390d565b6128b5565b611cab8484846122d8565b611cb784848484612b7c565b611d1f5760405162461bcd60e51b815260206004820152603360248201527f455243373231413a207472616e7366657220746f206e6f6e204552433732315260448201527232b1b2b4bb32b91034b6b83632b6b2b73a32b960691b6064820152608401610bac565b50505050565b60018054611d329061381e565b80601f0160208091040260200160405190810160405280929190818152602001828054611d5e9061381e565b8015611dab5780601f10611d8057610100808354040283529160200191611dab565b820191906000526020600020905b815481529060010190602001808311611d8e57829003601f168201915b505050505081565b6060611dc0826000541190565b611e325760405162461bcd60e51b815260206004820152602f60248201527f4552433732314d657461646174613a2055524920717565727920666f72206e6f60448201527f6e6578697374656e7420746f6b656e00000000000000000000000000000000006064820152608401610bac565b6000611e3c612b0e565b90506000815111611e5c5760405180602001604052806000815250611e8a565b80611e6684612cc7565b6001604051602001611e7a9392919061392c565b6040516020818303038152906040525b9392505050565b6009546001600160a01b03163314611ed95760405162461bcd60e51b81526020600482018190526024820152600080516020613ab48339815191526044820152606401610bac565b8051611eec906001906020840190613288565b5050565b6000610a9982612ddd565b6009546001600160a01b03163314611f435760405162461bcd60e51b81526020600482018190526024820152600080516020613ab48339815191526044820152606401610bac565b600b805467ffffffffffffffff909216600160401b026fffffffffffffffff000000000000000019909216919091179055565b6009546001600160a01b03163314611fbe5760405162461bcd60e51b81526020600482018190526024820152600080516020613ab48339815191526044820152606401610bac565b6001600160a01b03811661203a5760405162461bcd60e51b815260206004820152602660248201527f4f776e61626c653a206e6577206f776e657220697320746865207a65726f206160448201527f64647265737300000000000000000000000000000000000000000000000000006064820152608401610bac565b61136181612b1d565b3233146120925760405162461bcd60e51b815260206004820152601e60248201527f5468652063616c6c657220697320616e6f7468657220636f6e747261637400006044820152606401610bac565b336000908152600d60205260409020546120ee5760405162461bcd60e51b815260206004820152601d60248201527f6e6f7420656c696769626c6520666f7220666f756e646572206d696e740000006044820152606401610bac565b7f00000000000000000000000000000000000000000000000000000000000000008161211960005490565b612123919061388a565b11156121bd5760405162461bcd60e51b815260206004820152604860248201527f6e6f7420656e6f7567682072656d61696e696e6720726573657276656420666f60448201527f722061756374696f6e20746f20737570706f72742064657369726564206d696e60648201527f7420616d6f756e74000000000000000000000000000000000000000000000000608482015260a401610bac565b7f0000000000000000000000000000000000000000000000000000000000000000816121e833611ef0565b6121f2919061388a565b11156122405760405162461bcd60e51b815260206004820152601660248201527f63616e206e6f74206d696e742074686973206d616e79000000000000000000006044820152606401610bac565b336000908152600d602052604081205461225b9083906139f0565b50612266338361289b565b611eec816128b5565b600082815260066020526040808220805473ffffffffffffffffffffffffffffffffffffffff19166001600160a01b0387811691821790925591518593918516917f8c5be1e5ebec7d5bd14f71427d1e84f3dd0314c0f7b2291e5b200ac8c7c3b92591a4505050565b60006122e382612943565b80519091506000906001600160a01b0316336001600160a01b0316148061231a57503361230f84610b31565b6001600160a01b0316145b8061232c5750815161232c9033610957565b9050806123a15760405162461bcd60e51b815260206004820152603260248201527f455243373231413a207472616e736665722063616c6c6572206973206e6f742060448201527f6f776e6572206e6f7220617070726f76656400000000000000000000000000006064820152608401610bac565b846001600160a01b031682600001516001600160a01b03161461242c5760405162461bcd60e51b815260206004820152602660248201527f455243373231413a207472616e736665722066726f6d20696e636f727265637460448201527f206f776e657200000000000000000000000000000000000000000000000000006064820152608401610bac565b6001600160a01b0384166124a85760405162461bcd60e51b815260206004820152602560248201527f455243373231413a207472616e7366657220746f20746865207a65726f20616460448201527f64726573730000000000000000000000000000000000000000000000000000006064820152608401610bac565b6124b8600084846000015161226f565b6001600160a01b03851660009081526005602052604081208054600192906124ea9084906001600160801b0316613a07565b82546101009290920a6001600160801b038181021990931691831602179091556001600160a01b0386166000908152600560205260408120805460019450909261253691859116613a2f565b82546001600160801b039182166101009390930a9283029190920219909116179055506040805180820182526001600160a01b03808716825267ffffffffffffffff428116602080850191825260008981526004909152948520935184549151909216600160a01b026001600160e01b031990911691909216171790556125be84600161388a565b6000818152600460205260409020549091506001600160a01b0316612650576125e8816000541190565b156126505760408051808201825284516001600160a01b03908116825260208087015167ffffffffffffffff9081168285019081526000878152600490935294909120925183549451909116600160a01b026001600160e01b03199094169116179190911790555b83856001600160a01b0316876001600160a01b03167fddf252ad1be2c89b69c2b068fc378daa952ba7f163c4a11628f55a4df523b3ef60405160405180910390a45b505050505050565b600854816126ea5760405162461bcd60e51b815260206004820152601860248201527f7175616e74697479206d757374206265206e6f6e7a65726f00000000000000006044820152606401610bac565b600060016126f8848461388a565b61270291906139f0565b905061272f60017f00000000000000000000000000000000000000000000000000000000000000006139f0565b8111156127645761276160017f00000000000000000000000000000000000000000000000000000000000000006139f0565b90505b61276f816000541190565b6127e15760405162461bcd60e51b815260206004820152602660248201527f6e6f7420656e6f756768206d696e7465642079657420666f722074686973206360448201527f6c65616e757000000000000000000000000000000000000000000000000000006064820152608401610bac565b815b818111612887576000818152600460205260409020546001600160a01b031661287557600061281182612943565b60408051808201825282516001600160a01b03908116825260209384015167ffffffffffffffff9081168584019081526000888152600490965293909420915182549351909416600160a01b026001600160e01b0319909316931692909217179055505b8061287f8161386f565b9150506127e3565b5061289381600161388a565b600855505050565b611eec828260405180602001604052806000815250612e87565b803410156129055760405162461bcd60e51b815260206004820152601660248201527f4e65656420746f2073656e64206d6f7265204554482e000000000000000000006044820152606401610bac565b8034111561136157336108fc61291b83346139f0565b6040518115909202916000818181858888f19350505050158015611eec573d6000803e3d6000fd5b6040805180820190915260008082526020820152612962826000541190565b6129d45760405162461bcd60e51b815260206004820152602a60248201527f455243373231413a206f776e657220717565727920666f72206e6f6e6578697360448201527f74656e7420746f6b656e000000000000000000000000000000000000000000006064820152608401610bac565b60007f00000000000000000000000000000000000000000000000000000000000000008310612a3557612a277f0000000000000000000000000000000000000000000000000000000000000000846139f0565b612a3290600161388a565b90505b825b818110612a9f576000818152600460209081526040918290208251808401909352546001600160a01b038116808452600160a01b90910467ffffffffffffffff169183019190915215612a8c57949350505050565b5080612a97816138e0565b915050612a37565b5060405162461bcd60e51b815260206004820152602f60248201527f455243373231413a20756e61626c6520746f2064657465726d696e652074686560448201527f206f776e6572206f6620746f6b656e00000000000000000000000000000000006064820152608401610bac565b6060600e8054610aae9061381e565b600980546001600160a01b0383811673ffffffffffffffffffffffffffffffffffffffff19831681179093556040519116919082907f8be0079c531659141344cd1fd0a4f28419497f9722a3daafe3b4186f6b6457e090600090a35050565b60006001600160a01b0384163b15612cbb57604051630a85bd0160e11b81526001600160a01b0385169063150b7a0290612bc0903390899088908890600401613a5a565b6020604051808303816000875af1925050508015612bfb575060408051601f3d908101601f19168201909252612bf891810190613a96565b60015b612ca1573d808015612c29576040519150601f19603f3d011682016040523d82523d6000602084013e612c2e565b606091505b508051612c995760405162461bcd60e51b815260206004820152603360248201527f455243373231413a207472616e7366657220746f206e6f6e204552433732315260448201527232b1b2b4bb32b91034b6b83632b6b2b73a32b960691b6064820152608401610bac565b805181602001fd5b6001600160e01b031916630a85bd0160e11b149050612cbf565b5060015b949350505050565b606081612ceb5750506040805180820190915260018152600360fc1b602082015290565b8160005b8115612d155780612cff8161386f565b9150612d0e9050600a836138cc565b9150612cef565b60008167ffffffffffffffff811115612d3057612d30613538565b6040519080825280601f01601f191660200182016040528015612d5a576020820181803683370190505b5090505b8415612cbf57612d6f6001836139f0565b9150612d7c600a866138b8565b612d8790603061388a565b60f81b818381518110612d9c57612d9c6138f7565b60200101907effffffffffffffffffffffffffffffffffffffffffffffffffffffffffffff1916908160001a905350612dd6600a866138cc565b9450612d5e565b60006001600160a01b038216612e5b5760405162461bcd60e51b815260206004820152603160248201527f455243373231413a206e756d626572206d696e74656420717565727920666f7260448201527f20746865207a65726f20616464726573730000000000000000000000000000006064820152608401610bac565b506001600160a01b0316600090815260056020526040902054600160801b90046001600160801b031690565b6000546001600160a01b038416612eea5760405162461bcd60e51b815260206004820152602160248201527f455243373231413a206d696e7420746f20746865207a65726f206164647265736044820152607360f81b6064820152608401610bac565b612ef5816000541190565b15612f425760405162461bcd60e51b815260206004820152601d60248201527f455243373231413a20746f6b656e20616c7265616479206d696e7465640000006044820152606401610bac565b7f0000000000000000000000000000000000000000000000000000000000000000831115612fbd5760405162461bcd60e51b815260206004820152602260248201527f455243373231413a207175616e7469747920746f206d696e7420746f6f2068696044820152610ced60f31b6064820152608401610bac565b600083116130175760405162461bcd60e51b815260206004820152602160248201527f455243373231413a207175616e7469747920746f206d696e7420746f6f206c6f6044820152607760f81b6064820152608401610bac565b6001600160a01b0384166000908152600560209081526040918290208251808401845290546001600160801b038082168352600160801b9091041691810191909152815180830190925280519091908190613073908790613a2f565b6001600160801b031681526020018583602001516130919190613a2f565b6001600160801b039081169091526001600160a01b0380881660008181526005602090815260408083208751978301518716600160801b0297909616969096179094558451808601865291825267ffffffffffffffff4281168386019081528883526004909552948120915182549451909516600160a01b026001600160e01b031990941694909216939093179190911790915582905b858110156131fd5760405182906001600160a01b038916906000907fddf252ad1be2c89b69c2b068fc378daa952ba7f163c4a11628f55a4df523b3ef908290a46131756000888488612b7c565b6131dd5760405162461bcd60e51b815260206004820152603360248201527f455243373231413a207472616e7366657220746f206e6f6e204552433732315260448201527232b1b2b4bb32b91034b6b83632b6b2b73a32b960691b6064820152608401610bac565b816131e78161386f565b92505080806131f59061386f565b915050613128565b506000819055612692565b8280546132149061381e565b90600052602060002090601f016020900481019282613236576000855561327c565b82601f1061324f5782800160ff1982351617855561327c565b8280016001018555821561327c579182015b8281111561327c578235825591602001919060010190613261565b506113ea9291506132fc565b8280546132949061381e565b90600052602060002090601f0160209004810192826132b6576000855561327c565b82601f106132cf57805160ff191683800117855561327c565b8280016001018555821561327c579182015b8281111561327c5782518255916020019190600101906132e1565b5b808211156113ea57600081556001016132fd565b6001600160e01b03198116811461136157600080fd5b60006020828403121561333957600080fd5b8135611e8a81613311565b60005b8381101561335f578181015183820152602001613347565b83811115611d1f5750506000910152565b60008151808452613388816020860160208601613344565b601f01601f19169290920160200192915050565b602081526000611e8a6020830184613370565b6000602082840312156133c157600080fd5b5035919050565b80356001600160a01b038116811461145257600080fd5b600080604083850312156133f257600080fd5b6133fb836133c8565b946020939093013593505050565b60008060006060848603121561341e57600080fd5b613427846133c8565b9250613435602085016133c8565b9150604084013590509250925092565b60006020828403121561345757600080fd5b611e8a826133c8565b6000806020838503121561347357600080fd5b823567ffffffffffffffff8082111561348b57600080fd5b818501915085601f83011261349f57600080fd5b8135818111156134ae57600080fd5b8660208285010111156134c057600080fd5b60209290920196919550909350505050565b6000602082840312156134e457600080fd5b813567ffffffffffffffff81168114611e8a57600080fd5b6000806040838503121561350f57600080fd5b613518836133c8565b91506020830135801515811461352d57600080fd5b809150509250929050565b634e487b7160e01b600052604160045260246000fd5b604051601f8201601f1916810167ffffffffffffffff8111828210171561357757613577613538565b604052919050565b600067ffffffffffffffff82111561359957613599613538565b5060051b60200190565b600082601f8301126135b457600080fd5b813560206135c96135c48361357f565b61354e565b82815260059290921b840181019181810190868411156135e857600080fd5b8286015b8481101561360357803583529183019183016135ec565b509695505050505050565b6000806040838503121561362157600080fd5b823567ffffffffffffffff8082111561363957600080fd5b818501915085601f83011261364d57600080fd5b8135602061365d6135c48361357f565b82815260059290921b8401810191818101908984111561367c57600080fd5b948201945b838610156136a157613692866133c8565b82529482019490820190613681565b965050860135925050808211156136b757600080fd5b506136c4858286016135a3565b9150509250929050565b600067ffffffffffffffff8311156136e8576136e8613538565b6136fb601f8401601f191660200161354e565b905082815283838301111561370f57600080fd5b828260208301376000602084830101529392505050565b6000806000806080858703121561373c57600080fd5b613745856133c8565b9350613753602086016133c8565b925060408501359150606085013567ffffffffffffffff81111561377657600080fd5b8501601f8101871361378757600080fd5b613796878235602084016136ce565b91505092959194509250565b6000602082840312156137b457600080fd5b813567ffffffffffffffff8111156137cb57600080fd5b8201601f810184136137dc57600080fd5b612cbf848235602084016136ce565b600080604083850312156137fe57600080fd5b613807836133c8565b9150613815602084016133c8565b90509250929050565b600181811c9082168061383257607f821691505b6020821081141561385357634e487b7160e01b600052602260045260246000fd5b50919050565b634e487b7160e01b600052601160045260246000fd5b600060001982141561388357613883613859565b5060010190565b6000821982111561389d5761389d613859565b500190565b634e487b7160e01b600052601260045260246000fd5b6000826138c7576138c76138a2565b500690565b6000826138db576138db6138a2565b500490565b6000816138ef576138ef613859565b506000190190565b634e487b7160e01b600052603260045260246000fd5b600081600019048311821515161561392757613927613859565b500290565b60008451602061393f8285838a01613344565b8551918401916139528184848a01613344565b8554920191600090600181811c908083168061396f57607f831692505b85831081141561398d57634e487b7160e01b85526022600452602485fd5b8080156139a157600181146139b2576139df565b60ff198516885283880195506139df565b60008b81526020902060005b858110156139d75781548a8201529084019088016139be565b505083880195505b50939b9a5050505050505050505050565b600082821015613a0257613a02613859565b500390565b60006001600160801b0383811690831681811015613a2757613a27613859565b039392505050565b60006001600160801b03808316818516808303821115613a5157613a51613859565b01949350505050565b60006001600160a01b03808716835280861660208401525083604083015260806060830152613a8c6080830184613370565b9695505050505050565b600060208284031215613aa857600080fd5b8151611e8a8161331156fe4f776e61626c653a2063616c6c6572206973206e6f7420746865206f776e6572a264697066735822122035f61711cd48d0e4ab49ff169bc1652e7a5c8870e8e2770c4ed6a0bd11a77f6a64736f6c634300080b0033",
  "linkReferences": {},
  "deployedLinkReferences": {}
}