{
  "_format": "hh-sol-artifact-1",
  "contractName": "ERC721AGasReporterMock",
  "sourceName": "contracts/ERC721AGasReporterMock.sol",
  "abi": [
    {
      "inputs": [
        {
          "internalType": "string",
          "name": "name_",
          "type": "string"
        },
        {
          "internalType": "string",
          "name": "symbol_",
          "type": "string"
        },
        {
          "internalType": "uint256",
          "name": "maxBatchSize_",
          "type": "uint256"
        },
        {
          "internalType": "uint256",
          "name": "collectionSize_",
          "type": "uint256"
        }
      ],
      "stateMutability": "nonpayable",
      "type": "constructor"
    },
    {
      "anonymous": false,
      "inputs": [
        {
          "indexed": true,
          "internalType": "address",
          "name": "owner",
          "type": "address"
        },
        {
          "indexed": true,
          "internalType": "address",
          "name": "approved",
          "type": "address"
        },
        {
          "indexed": true,
          "internalType": "uint256",
          "name": "tokenId",
          "type": "uint256"
        }
      ],
      "name": "Approval",
      "type": "event"
    },
    {
      "anonymous": false,
      "inputs": [
        {
          "indexed": true,
          "internalType": "address",
          "name": "owner",
          "type": "address"
        },
        {
          "indexed": true,
          "internalType": "address",
          "name": "operator",
          "type": "address"
        },
        {
          "indexed": false,
          "internalType": "bool",
          "name": "approved",
          "type": "bool"
        }
      ],
      "name": "ApprovalForAll",
      "type": "event"
    },
    {
      "anonymous": false,
      "inputs": [
        {
          "indexed": true,
          "internalType": "address",
          "name": "from",
          "type": "address"
        },
        {
          "indexed": true,
          "internalType": "address",
          "name": "to",
          "type": "address"
        },
        {
          "indexed": true,
          "internalType": "uint256",
          "name": "tokenId",
          "type": "uint256"
        }
      ],
      "name": "Transfer",
      "type": "event"
    },
    {
      "inputs": [
        {
          "internalType": "address",
          "name": "to",
          "type": "address"
        },
        {
          "internalType": "uint256",
          "name": "tokenId",
          "type": "uint256"
        }
      ],
      "name": "approve",
      "outputs": [],
      "stateMutability": "nonpayable",
      "type": "function"
    },
    {
      "inputs": [
        {
          "internalType": "address",
          "name": "owner",
          "type": "address"
        }
      ],
      "name": "balanceOf",
      "outputs": [
        {
          "internalType": "uint256",
          "name": "",
          "type": "uint256"
        }
      ],
      "stateMutability": "view",
      "type": "function"
    },
    {
      "inputs": [],
      "name": "baseExtension",
      "outputs": [
        {
          "internalType": "string",
          "name": "",
          "type": "string"
        }
      ],
      "stateMutability": "view",
      "type": "function"
    },
    {
      "inputs": [
        {
          "internalType": "uint256",
          "name": "tokenId",
          "type": "uint256"
        }
      ],
      "name": "getApproved",
      "outputs": [
        {
          "internalType": "address",
          "name": "",
          "type": "address"
        }
      ],
      "stateMutability": "view",
      "type": "function"
    },
    {
      "inputs": [
        {
          "internalType": "address",
          "name": "owner",
          "type": "address"
        },
        {
          "internalType": "address",
          "name": "operator",
          "type": "address"
        }
      ],
      "name": "isApprovedForAll",
      "outputs": [
        {
          "internalType": "bool",
          "name": "",
          "type": "bool"
        }
      ],
      "stateMutability": "view",
      "type": "function"
    },
    {
      "inputs": [],
      "name": "name",
      "outputs": [
        {
          "internalType": "string",
          "name": "",
          "type": "string"
        }
      ],
      "stateMutability": "view",
      "type": "function"
    },
    {
      "inputs": [],
      "name": "nextOwnerToExplicitlySet",
      "outputs": [
        {
          "internalType": "uint256",
          "name": "",
          "type": "uint256"
        }
      ],
      "stateMutability": "view",
      "type": "function"
    },
    {
      "inputs": [
        {
          "internalType": "uint256",
          "name": "tokenId",
          "type": "uint256"
        }
      ],
      "name": "ownerOf",
      "outputs": [
        {
          "internalType": "address",
          "name": "",
          "type": "address"
        }
      ],
      "stateMutability": "view",
      "type": "function"
    },
    {
      "inputs": [
        {
          "internalType": "address",
          "name": "to",
          "type": "address"
        }
      ],
      "name": "safeMintOne",
      "outputs": [],
      "stateMutability": "nonpayable",
      "type": "function"
    },
    {
      "inputs": [
        {
          "internalType": "address",
          "name": "to",
          "type": "address"
        }
      ],
      "name": "safeMintTen",
      "outputs": [],
      "stateMutability": "nonpayable",
      "type": "function"
    },
    {
      "inputs": [
        {
          "internalType": "address",
          "name": "from",
          "type": "address"
        },
        {
          "internalType": "address",
          "name": "to",
          "type": "address"
        },
        {
          "internalType": "uint256",
          "name": "tokenId",
          "type": "uint256"
        }
      ],
      "name": "safeTransferFrom",
      "outputs": [],
      "stateMutability": "nonpayable",
      "type": "function"
    },
    {
      "inputs": [
        {
          "internalType": "address",
          "name": "from",
          "type": "address"
        },
        {
          "internalType": "address",
          "name": "to",
          "type": "address"
        },
        {
          "internalType": "uint256",
          "name": "tokenId",
          "type": "uint256"
        },
        {
          "internalType": "bytes",
          "name": "_data",
          "type": "bytes"
        }
      ],
      "name": "safeTransferFrom",
      "outputs": [],
      "stateMutability": "nonpayable",
      "type": "function"
    },
    {
      "inputs": [
        {
          "internalType": "address",
          "name": "operator",
          "type": "address"
        },
        {
          "internalType": "bool",
          "name": "approved",
          "type": "bool"
        }
      ],
      "name": "setApprovalForAll",
      "outputs": [],
      "stateMutability": "nonpayable",
      "type": "function"
    },
    {
      "inputs": [
        {
          "internalType": "bytes4",
          "name": "interfaceId",
          "type": "bytes4"
        }
      ],
      "name": "supportsInterface",
      "outputs": [
        {
          "internalType": "bool",
          "name": "",
          "type": "bool"
        }
      ],
      "stateMutability": "view",
      "type": "function"
    },
    {
      "inputs": [],
      "name": "symbol",
      "outputs": [
        {
          "internalType": "string",
          "name": "",
          "type": "string"
        }
      ],
      "stateMutability": "view",
      "type": "function"
    },
    {
      "inputs": [
        {
          "internalType": "uint256",
          "name": "index",
          "type": "uint256"
        }
      ],
      "name": "tokenByIndex",
      "outputs": [
        {
          "internalType": "uint256",
          "name": "",
          "type": "uint256"
        }
      ],
      "stateMutability": "view",
      "type": "function"
    },
    {
      "inputs": [
        {
          "internalType": "address",
          "name": "owner",
          "type": "address"
        },
        {
          "internalType": "uint256",
          "name": "index",
          "type": "uint256"
        }
      ],
      "name": "tokenOfOwnerByIndex",
      "outputs": [
        {
          "internalType": "uint256",
          "name": "",
          "type": "uint256"
        }
      ],
      "stateMutability": "view",
      "type": "function"
    },
    {
      "inputs": [
        {
          "internalType": "uint256",
          "name": "tokenId",
          "type": "uint256"
        }
      ],
      "name": "tokenURI",
      "outputs": [
        {
          "internalType": "string",
          "name": "",
          "type": "string"
        }
      ],
      "stateMutability": "view",
      "type": "function"
    },
    {
      "inputs": [],
      "name": "totalSupply",
      "outputs": [
        {
          "internalType": "uint256",
          "name": "",
          "type": "uint256"
        }
      ],
      "stateMutability": "view",
      "type": "function"
    },
    {
      "inputs": [
        {
          "internalType": "address",
          "name": "from",
          "type": "address"
        },
        {
          "internalType": "address",
          "name": "to",
          "type": "address"
        },
        {
          "internalType": "uint256",
          "name": "tokenId",
          "type": "uint256"
        }
      ],
      "name": "transferFrom",
      "outputs": [],
      "stateMutability": "nonpayable",
      "type": "function"
    }
  ],
  "bytecode": "0x60008055610100604052600560c081905264173539b7b760d91b60e09081526200002d916001919062000178565b5060006008553480156200004057600080fd5b50604051620020b7380380620020b78339810160408190526200006391620002eb565b8383838360008111620000d45760405162461bcd60e51b815260206004820152602e60248201527f455243373231413a20636f6c6c656374696f6e206d757374206861766520612060448201526d6e6f6e7a65726f20737570706c7960901b60648201526084015b60405180910390fd5b60008211620001365760405162461bcd60e51b815260206004820152602760248201527f455243373231413a206d61782062617463682073697a65206d757374206265206044820152666e6f6e7a65726f60c81b6064820152608401620000cb565b83516200014b90600290602087019062000178565b5082516200016190600390602086019062000178565b5060a09190915260805250620003a2945050505050565b828054620001869062000365565b90600052602060002090601f016020900481019282620001aa5760008555620001f5565b82601f10620001c557805160ff1916838001178555620001f5565b82800160010185558215620001f5579182015b82811115620001f5578251825591602001919060010190620001d8565b506200020392915062000207565b5090565b5b8082111562000203576000815560010162000208565b634e487b7160e01b600052604160045260246000fd5b600082601f8301126200024657600080fd5b81516001600160401b03808211156200026357620002636200021e565b604051601f8301601f19908116603f011681019082821181831017156200028e576200028e6200021e565b81604052838152602092508683858801011115620002ab57600080fd5b600091505b83821015620002cf5785820183015181830184015290820190620002b0565b83821115620002e15760008385830101525b9695505050505050565b600080600080608085870312156200030257600080fd5b84516001600160401b03808211156200031a57600080fd5b620003288883890162000234565b955060208701519150808211156200033f57600080fd5b506200034e8782880162000234565b604087015160609097015195989097509350505050565b600181811c908216806200037a57607f821691505b602082108114156200039c57634e487b7160e01b600052602260045260246000fd5b50919050565b60805160a051611ce4620003d36000396000818161104d0152818161107701526114bf015260005050611ce46000f3fe608060405234801561001057600080fd5b506004361061016c5760003560e01c806370a08231116100cd578063c668286211610081578063d7224ba011610066578063d7224ba0146102ce578063db6745f8146102d7578063e985e9c5146102ea57600080fd5b8063c6682862146102b3578063c87b56dd146102bb57600080fd5b806395d89b41116100b257806395d89b4114610285578063a22cb4651461028d578063b88d4fde146102a057600080fd5b806370a082311461025f57806381861f841461027257600080fd5b806323b872dd1161012457806342842e0e1161010957806342842e0e146102265780634f6ccce7146102395780636352211e1461024c57600080fd5b806323b872dd146102005780632f745c591461021357600080fd5b8063081812fc11610155578063081812fc146101ae578063095ea7b3146101d957806318160ddd146101ee57600080fd5b806301ffc9a71461017157806306fdde0314610199575b600080fd5b61018461017f366004611799565b610326565b60405190151581526020015b60405180910390f35b6101a1610393565b604051610190919061180e565b6101c16101bc366004611821565b610425565b6040516001600160a01b039091168152602001610190565b6101ec6101e7366004611856565b6104c5565b005b6000545b604051908152602001610190565b6101ec61020e366004611880565b6105dd565b6101f2610221366004611856565b6105e8565b6101ec610234366004611880565b610765565b6101f2610247366004611821565b610780565b6101c161025a366004611821565b6107e2565b6101f261026d3660046118bc565b6107f4565b6101ec6102803660046118bc565b610897565b6101a16108a5565b6101ec61029b3660046118d7565b6108b4565b6101ec6102ae366004611929565b610979565b6101a16109fe565b6101a16102c9366004611821565b610a8c565b6101f260085481565b6101ec6102e53660046118bc565b610b77565b6101846102f8366004611a05565b6001600160a01b03918216600090815260076020908152604080832093909416825291909152205460ff1690565b60006001600160e01b031982166380ac58cd60e01b148061035757506001600160e01b03198216635b5e139f60e01b145b8061037257506001600160e01b0319821663780e9d6360e01b145b8061038d57506301ffc9a760e01b6001600160e01b03198316145b92915050565b6060600280546103a290611a38565b80601f01602080910402602001604051908101604052809291908181526020018280546103ce90611a38565b801561041b5780601f106103f05761010080835404028352916020019161041b565b820191906000526020600020905b8154815290600101906020018083116103fe57829003601f168201915b5050505050905090565b6000610432826000541190565b6104a95760405162461bcd60e51b815260206004820152602d60248201527f455243373231413a20617070726f76656420717565727920666f72206e6f6e6560448201527f78697374656e7420746f6b656e0000000000000000000000000000000000000060648201526084015b60405180910390fd5b506000908152600660205260409020546001600160a01b031690565b60006104d0826107e2565b9050806001600160a01b0316836001600160a01b0316141561053f5760405162461bcd60e51b815260206004820152602260248201527f455243373231413a20617070726f76616c20746f2063757272656e74206f776e60448201526132b960f11b60648201526084016104a0565b336001600160a01b038216148061055b575061055b81336102f8565b6105cd5760405162461bcd60e51b815260206004820152603960248201527f455243373231413a20617070726f76652063616c6c6572206973206e6f74206f60448201527f776e6572206e6f7220617070726f76656420666f7220616c6c0000000000000060648201526084016104a0565b6105d8838383610b82565b505050565b6105d8838383610bf6565b60006105f3836107f4565b821061064c5760405162461bcd60e51b815260206004820152602260248201527f455243373231413a206f776e657220696e646578206f7574206f6620626f756e604482015261647360f01b60648201526084016104a0565b600080549080805b838110156106f6576000818152600460209081526040918290208251808401909352546001600160a01b038116808452600160a01b90910467ffffffffffffffff1691830191909152156106a757805192505b876001600160a01b0316836001600160a01b031614156106e357868414156106d55750935061038d92505050565b836106df81611a89565b9450505b50806106ee81611a89565b915050610654565b5060405162461bcd60e51b815260206004820152602e60248201527f455243373231413a20756e61626c6520746f2067657420746f6b656e206f662060448201527f6f776e657220627920696e64657800000000000000000000000000000000000060648201526084016104a0565b6105d883838360405180602001604052806000815250610979565b6000805482106107de5760405162461bcd60e51b815260206004820152602360248201527f455243373231413a20676c6f62616c20696e646578206f7574206f6620626f756044820152626e647360e81b60648201526084016104a0565b5090565b60006107ed82610fb8565b5192915050565b60006001600160a01b0382166108725760405162461bcd60e51b815260206004820152602b60248201527f455243373231413a2062616c616e636520717565727920666f7220746865207a60448201527f65726f206164647265737300000000000000000000000000000000000000000060648201526084016104a0565b506001600160a01b03166000908152600560205260409020546001600160801b031690565b6108a281600a611183565b50565b6060600380546103a290611a38565b6001600160a01b03821633141561090d5760405162461bcd60e51b815260206004820152601a60248201527f455243373231413a20617070726f766520746f2063616c6c657200000000000060448201526064016104a0565b3360008181526007602090815260408083206001600160a01b03871680855290835292819020805460ff191686151590811790915590519081529192917f17307eab39ab6107e8899845ad3d59bd9653f200f220920489ca2b5937696c31910160405180910390a35050565b610984848484610bf6565b610990848484846111a1565b6109f85760405162461bcd60e51b815260206004820152603360248201527f455243373231413a207472616e7366657220746f206e6f6e204552433732315260448201527232b1b2b4bb32b91034b6b83632b6b2b73a32b960691b60648201526084016104a0565b50505050565b60018054610a0b90611a38565b80601f0160208091040260200160405190810160405280929190818152602001828054610a3790611a38565b8015610a845780601f10610a5957610100808354040283529160200191610a84565b820191906000526020600020905b815481529060010190602001808311610a6757829003601f168201915b505050505081565b6060610a99826000541190565b610b0b5760405162461bcd60e51b815260206004820152602f60248201527f4552433732314d657461646174613a2055524920717565727920666f72206e6f60448201527f6e6578697374656e7420746f6b656e000000000000000000000000000000000060648201526084016104a0565b6000610b2260408051602081019091526000815290565b90506000815111610b425760405180602001604052806000815250610b70565b80610b4c846112ec565b6001604051602001610b6093929190611aa4565b6040516020818303038152906040525b9392505050565b6108a2816001611183565b60008281526006602052604080822080547fffffffffffffffffffffffff0000000000000000000000000000000000000000166001600160a01b0387811691821790925591518593918516917f8c5be1e5ebec7d5bd14f71427d1e84f3dd0314c0f7b2291e5b200ac8c7c3b92591a4505050565b6000610c0182610fb8565b80519091506000906001600160a01b0316336001600160a01b03161480610c38575033610c2d84610425565b6001600160a01b0316145b80610c4a57508151610c4a90336102f8565b905080610cbf5760405162461bcd60e51b815260206004820152603260248201527f455243373231413a207472616e736665722063616c6c6572206973206e6f742060448201527f6f776e6572206e6f7220617070726f766564000000000000000000000000000060648201526084016104a0565b846001600160a01b031682600001516001600160a01b031614610d4a5760405162461bcd60e51b815260206004820152602660248201527f455243373231413a207472616e736665722066726f6d20696e636f727265637460448201527f206f776e6572000000000000000000000000000000000000000000000000000060648201526084016104a0565b6001600160a01b038416610dc65760405162461bcd60e51b815260206004820152602560248201527f455243373231413a207472616e7366657220746f20746865207a65726f20616460448201527f647265737300000000000000000000000000000000000000000000000000000060648201526084016104a0565b610dd66000848460000151610b82565b6001600160a01b0385166000908152600560205260408120805460019290610e089084906001600160801b0316611b68565b82546101009290920a6001600160801b038181021990931691831602179091556001600160a01b03861660009081526005602052604081208054600194509092610e5491859116611b90565b82546001600160801b039182166101009390930a9283029190920219909116179055506040805180820182526001600160a01b03808716825267ffffffffffffffff428116602080850191825260008981526004909152948520935184549151909216600160a01b026001600160e01b03199091169190921617179055610edc846001611bbb565b6000818152600460205260409020549091506001600160a01b0316610f6e57610f06816000541190565b15610f6e5760408051808201825284516001600160a01b03908116825260208087015167ffffffffffffffff9081168285019081526000878152600490935294909120925183549451909116600160a01b026001600160e01b03199094169116179190911790555b83856001600160a01b0316876001600160a01b03167fddf252ad1be2c89b69c2b068fc378daa952ba7f163c4a11628f55a4df523b3ef60405160405180910390a45b505050505050565b6040805180820190915260008082526020820152610fd7826000541190565b6110495760405162461bcd60e51b815260206004820152602a60248201527f455243373231413a206f776e657220717565727920666f72206e6f6e6578697360448201527f74656e7420746f6b656e0000000000000000000000000000000000000000000060648201526084016104a0565b60007f000000000000000000000000000000000000000000000000000000000000000083106110aa5761109c7f000000000000000000000000000000000000000000000000000000000000000084611bd3565b6110a7906001611bbb565b90505b825b818110611114576000818152600460209081526040918290208251808401909352546001600160a01b038116808452600160a01b90910467ffffffffffffffff16918301919091521561110157949350505050565b508061110c81611bea565b9150506110ac565b5060405162461bcd60e51b815260206004820152602f60248201527f455243373231413a20756e61626c6520746f2064657465726d696e652074686560448201527f206f776e6572206f6620746f6b656e000000000000000000000000000000000060648201526084016104a0565b61119d828260405180602001604052806000815250611402565b5050565b60006001600160a01b0384163b156112e057604051630a85bd0160e11b81526001600160a01b0385169063150b7a02906111e5903390899088908890600401611c01565b6020604051808303816000875af1925050508015611220575060408051601f3d908101601f1916820190925261121d91810190611c3d565b60015b6112c6573d80801561124e576040519150601f19603f3d011682016040523d82523d6000602084013e611253565b606091505b5080516112be5760405162461bcd60e51b815260206004820152603360248201527f455243373231413a207472616e7366657220746f206e6f6e204552433732315260448201527232b1b2b4bb32b91034b6b83632b6b2b73a32b960691b60648201526084016104a0565b805181602001fd5b6001600160e01b031916630a85bd0160e11b1490506112e4565b5060015b949350505050565b6060816113105750506040805180820190915260018152600360fc1b602082015290565b8160005b811561133a578061132481611a89565b91506113339050600a83611c70565b9150611314565b60008167ffffffffffffffff81111561135557611355611913565b6040519080825280601f01601f19166020018201604052801561137f576020820181803683370190505b5090505b84156112e457611394600183611bd3565b91506113a1600a86611c84565b6113ac906030611bbb565b60f81b8183815181106113c1576113c1611c98565b60200101907effffffffffffffffffffffffffffffffffffffffffffffffffffffffffffff1916908160001a9053506113fb600a86611c70565b9450611383565b6000546001600160a01b0384166114655760405162461bcd60e51b815260206004820152602160248201527f455243373231413a206d696e7420746f20746865207a65726f206164647265736044820152607360f81b60648201526084016104a0565b611470816000541190565b156114bd5760405162461bcd60e51b815260206004820152601d60248201527f455243373231413a20746f6b656e20616c7265616479206d696e74656400000060448201526064016104a0565b7f00000000000000000000000000000000000000000000000000000000000000008311156115385760405162461bcd60e51b815260206004820152602260248201527f455243373231413a207175616e7469747920746f206d696e7420746f6f2068696044820152610ced60f31b60648201526084016104a0565b600083116115925760405162461bcd60e51b815260206004820152602160248201527f455243373231413a207175616e7469747920746f206d696e7420746f6f206c6f6044820152607760f81b60648201526084016104a0565b6001600160a01b0384166000908152600560209081526040918290208251808401845290546001600160801b038082168352600160801b90910416918101919091528151808301909252805190919081906115ee908790611b90565b6001600160801b0316815260200185836020015161160c9190611b90565b6001600160801b039081169091526001600160a01b0380881660008181526005602090815260408083208751978301518716600160801b0297909616969096179094558451808601865291825267ffffffffffffffff4281168386019081528883526004909552948120915182549451909516600160a01b026001600160e01b031990941694909216939093179190911790915582905b858110156117785760405182906001600160a01b038916906000907fddf252ad1be2c89b69c2b068fc378daa952ba7f163c4a11628f55a4df523b3ef908290a46116f060008884886111a1565b6117585760405162461bcd60e51b815260206004820152603360248201527f455243373231413a207472616e7366657220746f206e6f6e204552433732315260448201527232b1b2b4bb32b91034b6b83632b6b2b73a32b960691b60648201526084016104a0565b8161176281611a89565b925050808061177090611a89565b9150506116a3565b506000819055610fb0565b6001600160e01b0319811681146108a257600080fd5b6000602082840312156117ab57600080fd5b8135610b7081611783565b60005b838110156117d15781810151838201526020016117b9565b838111156109f85750506000910152565b600081518084526117fa8160208601602086016117b6565b601f01601f19169290920160200192915050565b602081526000610b7060208301846117e2565b60006020828403121561183357600080fd5b5035919050565b80356001600160a01b038116811461185157600080fd5b919050565b6000806040838503121561186957600080fd5b6118728361183a565b946020939093013593505050565b60008060006060848603121561189557600080fd5b61189e8461183a565b92506118ac6020850161183a565b9150604084013590509250925092565b6000602082840312156118ce57600080fd5b610b708261183a565b600080604083850312156118ea57600080fd5b6118f38361183a565b91506020830135801515811461190857600080fd5b809150509250929050565b634e487b7160e01b600052604160045260246000fd5b6000806000806080858703121561193f57600080fd5b6119488561183a565b93506119566020860161183a565b925060408501359150606085013567ffffffffffffffff8082111561197a57600080fd5b818701915087601f83011261198e57600080fd5b8135818111156119a0576119a0611913565b604051601f8201601f19908116603f011681019083821181831017156119c8576119c8611913565b816040528281528a60208487010111156119e157600080fd5b82602086016020830137600060208483010152809550505050505092959194509250565b60008060408385031215611a1857600080fd5b611a218361183a565b9150611a2f6020840161183a565b90509250929050565b600181811c90821680611a4c57607f821691505b60208210811415611a6d57634e487b7160e01b600052602260045260246000fd5b50919050565b634e487b7160e01b600052601160045260246000fd5b6000600019821415611a9d57611a9d611a73565b5060010190565b600084516020611ab78285838a016117b6565b855191840191611aca8184848a016117b6565b8554920191600090600181811c9080831680611ae757607f831692505b858310811415611b0557634e487b7160e01b85526022600452602485fd5b808015611b195760018114611b2a57611b57565b60ff19851688528388019550611b57565b60008b81526020902060005b85811015611b4f5781548a820152908401908801611b36565b505083880195505b50939b9a5050505050505050505050565b60006001600160801b0383811690831681811015611b8857611b88611a73565b039392505050565b60006001600160801b03808316818516808303821115611bb257611bb2611a73565b01949350505050565b60008219821115611bce57611bce611a73565b500190565b600082821015611be557611be5611a73565b500390565b600081611bf957611bf9611a73565b506000190190565b60006001600160a01b03808716835280861660208401525083604083015260806060830152611c3360808301846117e2565b9695505050505050565b600060208284031215611c4f57600080fd5b8151610b7081611783565b634e487b7160e01b600052601260045260246000fd5b600082611c7f57611c7f611c5a565b500490565b600082611c9357611c93611c5a565b500690565b634e487b7160e01b600052603260045260246000fdfea2646970667358221220d50cfc5e8f275c43ebe7b54e09c6cdf371eb37f2ffddedb230f41b02292ba05e64736f6c634300080b0033",
  "linkReferences": {},
  "deployedLinkReferences": {}
}