{
  "_format": "hh-sol-artifact-1",
  "contractName": "Nexu5",
  "sourceName": "contracts/Nexu5v2.sol",
  "abi": [
    {
      "inputs": [
        {
          "internalType": "uint256",
          "name": "maxBatchSize_",
          "type": "uint256"
        },
        {
          "internalType": "uint256",
          "name": "collectionSize_",
          "type": "uint256"
        },
        {
          "internalType": "uint256",
          "name": "amountForFounders_",
          "type": "uint256"
        },
        {
          "internalType": "uint256",
          "name": "amountForDevs_",
          "type": "uint256"
        }
      ],
      "stateMutability": "nonpayable",
      "type": "constructor"
    },
    {
      "anonymous": false,
      "inputs": [
        {
          "indexed": true,
          "internalType": "address",
          "name": "owner",
          "type": "address"
        },
        {
          "indexed": true,
          "internalType": "address",
          "name": "approved",
          "type": "address"
        },
        {
          "indexed": true,
          "internalType": "uint256",
          "name": "tokenId",
          "type": "uint256"
        }
      ],
      "name": "Approval",
      "type": "event"
    },
    {
      "anonymous": false,
      "inputs": [
        {
          "indexed": true,
          "internalType": "address",
          "name": "owner",
          "type": "address"
        },
        {
          "indexed": true,
          "internalType": "address",
          "name": "operator",
          "type": "address"
        },
        {
          "indexed": false,
          "internalType": "bool",
          "name": "approved",
          "type": "bool"
        }
      ],
      "name": "ApprovalForAll",
      "type": "event"
    },
    {
      "anonymous": false,
      "inputs": [
        {
          "indexed": true,
          "internalType": "address",
          "name": "previousOwner",
          "type": "address"
        },
        {
          "indexed": true,
          "internalType": "address",
          "name": "newOwner",
          "type": "address"
        }
      ],
      "name": "OwnershipTransferred",
      "type": "event"
    },
    {
      "anonymous": false,
      "inputs": [
        {
          "indexed": true,
          "internalType": "address",
          "name": "from",
          "type": "address"
        },
        {
          "indexed": true,
          "internalType": "address",
          "name": "to",
          "type": "address"
        },
        {
          "indexed": true,
          "internalType": "uint256",
          "name": "tokenId",
          "type": "uint256"
        }
      ],
      "name": "Transfer",
      "type": "event"
    },
    {
      "inputs": [],
      "name": "FOUNDER_TOKEN_PRICE",
      "outputs": [
        {
          "internalType": "uint256",
          "name": "",
          "type": "uint256"
        }
      ],
      "stateMutability": "view",
      "type": "function"
    },
    {
      "inputs": [
        {
          "internalType": "uint64",
          "name": "_publicPriceWei",
          "type": "uint64"
        }
      ],
      "name": "SetupPublicSaleInfo",
      "outputs": [],
      "stateMutability": "nonpayable",
      "type": "function"
    },
    {
      "inputs": [
        {
          "internalType": "uint64",
          "name": "_WhiteListPriceWei",
          "type": "uint64"
        }
      ],
      "name": "SetupWhitelistSale",
      "outputs": [],
      "stateMutability": "nonpayable",
      "type": "function"
    },
    {
      "inputs": [
        {
          "internalType": "uint256",
          "name": "tokenId",
          "type": "uint256"
        }
      ],
      "name": "_tokenURI",
      "outputs": [
        {
          "internalType": "string",
          "name": "",
          "type": "string"
        }
      ],
      "stateMutability": "view",
      "type": "function"
    },
    {
      "inputs": [
        {
          "internalType": "address",
          "name": "",
          "type": "address"
        }
      ],
      "name": "allowlist",
      "outputs": [
        {
          "internalType": "uint256",
          "name": "",
          "type": "uint256"
        }
      ],
      "stateMutability": "view",
      "type": "function"
    },
    {
      "inputs": [],
      "name": "allowlistMint",
      "outputs": [],
      "stateMutability": "payable",
      "type": "function"
    },
    {
      "inputs": [],
      "name": "amountForDevs",
      "outputs": [
        {
          "internalType": "uint256",
          "name": "",
          "type": "uint256"
        }
      ],
      "stateMutability": "view",
      "type": "function"
    },
    {
      "inputs": [],
      "name": "amountForFounders",
      "outputs": [
        {
          "internalType": "uint256",
          "name": "",
          "type": "uint256"
        }
      ],
      "stateMutability": "view",
      "type": "function"
    },
    {
      "inputs": [
        {
          "internalType": "address",
          "name": "to",
          "type": "address"
        },
        {
          "internalType": "uint256",
          "name": "tokenId",
          "type": "uint256"
        }
      ],
      "name": "approve",
      "outputs": [],
      "stateMutability": "nonpayable",
      "type": "function"
    },
    {
      "inputs": [
        {
          "internalType": "address",
          "name": "owner",
          "type": "address"
        }
      ],
      "name": "balanceOf",
      "outputs": [
        {
          "internalType": "uint256",
          "name": "",
          "type": "uint256"
        }
      ],
      "stateMutability": "view",
      "type": "function"
    },
    {
      "inputs": [],
      "name": "baseExtension",
      "outputs": [
        {
          "internalType": "string",
          "name": "",
          "type": "string"
        }
      ],
      "stateMutability": "view",
      "type": "function"
    },
    {
      "inputs": [
        {
          "internalType": "uint256",
          "name": "quantity",
          "type": "uint256"
        }
      ],
      "name": "devMint",
      "outputs": [],
      "stateMutability": "nonpayable",
      "type": "function"
    },
    {
      "inputs": [
        {
          "internalType": "uint256",
          "name": "tokenId",
          "type": "uint256"
        }
      ],
      "name": "exists",
      "outputs": [
        {
          "internalType": "bool",
          "name": "",
          "type": "bool"
        }
      ],
      "stateMutability": "view",
      "type": "function"
    },
    {
      "inputs": [
        {
          "internalType": "uint256",
          "name": "quantity",
          "type": "uint256"
        }
      ],
      "name": "founderMint",
      "outputs": [],
      "stateMutability": "payable",
      "type": "function"
    },
    {
      "inputs": [
        {
          "internalType": "address",
          "name": "",
          "type": "address"
        }
      ],
      "name": "founderlist",
      "outputs": [
        {
          "internalType": "uint256",
          "name": "",
          "type": "uint256"
        }
      ],
      "stateMutability": "view",
      "type": "function"
    },
    {
      "inputs": [
        {
          "internalType": "uint256",
          "name": "tokenId",
          "type": "uint256"
        }
      ],
      "name": "getApproved",
      "outputs": [
        {
          "internalType": "address",
          "name": "",
          "type": "address"
        }
      ],
      "stateMutability": "view",
      "type": "function"
    },
    {
      "inputs": [],
      "name": "getFounderPrice",
      "outputs": [
        {
          "internalType": "uint256",
          "name": "",
          "type": "uint256"
        }
      ],
      "stateMutability": "pure",
      "type": "function"
    },
    {
      "inputs": [],
      "name": "getMintlistPrice",
      "outputs": [
        {
          "internalType": "uint256",
          "name": "",
          "type": "uint256"
        }
      ],
      "stateMutability": "view",
      "type": "function"
    },
    {
      "inputs": [
        {
          "internalType": "uint256",
          "name": "tokenId",
          "type": "uint256"
        }
      ],
      "name": "getOwnershipData",
      "outputs": [
        {
          "components": [
            {
              "internalType": "address",
              "name": "addr",
              "type": "address"
            },
            {
              "internalType": "uint64",
              "name": "startTimestamp",
              "type": "uint64"
            }
          ],
          "internalType": "struct ERC721A.TokenOwnership",
          "name": "",
          "type": "tuple"
        }
      ],
      "stateMutability": "view",
      "type": "function"
    },
    {
      "inputs": [
        {
          "internalType": "address",
          "name": "owner",
          "type": "address"
        },
        {
          "internalType": "address",
          "name": "operator",
          "type": "address"
        }
      ],
      "name": "isApprovedForAll",
      "outputs": [
        {
          "internalType": "bool",
          "name": "",
          "type": "bool"
        }
      ],
      "stateMutability": "view",
      "type": "function"
    },
    {
      "inputs": [
        {
          "internalType": "address",
          "name": "_user",
          "type": "address"
        }
      ],
      "name": "isFounderlisted",
      "outputs": [
        {
          "internalType": "bool",
          "name": "",
          "type": "bool"
        }
      ],
      "stateMutability": "view",
      "type": "function"
    },
    {
      "inputs": [
        {
          "internalType": "uint256",
          "name": "publicPriceWei",
          "type": "uint256"
        }
      ],
      "name": "isPublicSaleOn",
      "outputs": [
        {
          "internalType": "bool",
          "name": "",
          "type": "bool"
        }
      ],
      "stateMutability": "pure",
      "type": "function"
    },
    {
      "inputs": [],
      "name": "isWhistlistSaleOn",
      "outputs": [
        {
          "internalType": "uint64",
          "name": "mintListTrueFalse",
          "type": "uint64"
        }
      ],
      "stateMutability": "view",
      "type": "function"
    },
    {
      "inputs": [
        {
          "internalType": "address",
          "name": "_user",
          "type": "address"
        }
      ],
      "name": "isWhitelisted",
      "outputs": [
        {
          "internalType": "bool",
          "name": "",
          "type": "bool"
        }
      ],
      "stateMutability": "view",
      "type": "function"
    },
    {
      "inputs": [],
      "name": "maxPerAddressDuringMint",
      "outputs": [
        {
          "internalType": "uint256",
          "name": "",
          "type": "uint256"
        }
      ],
      "stateMutability": "view",
      "type": "function"
    },
    {
      "inputs": [],
      "name": "name",
      "outputs": [
        {
          "internalType": "string",
          "name": "",
          "type": "string"
        }
      ],
      "stateMutability": "view",
      "type": "function"
    },
    {
      "inputs": [],
      "name": "nextOwnerToExplicitlySet",
      "outputs": [
        {
          "internalType": "uint256",
          "name": "",
          "type": "uint256"
        }
      ],
      "stateMutability": "view",
      "type": "function"
    },
    {
      "inputs": [
        {
          "internalType": "address",
          "name": "owner",
          "type": "address"
        }
      ],
      "name": "numberMinted",
      "outputs": [
        {
          "internalType": "uint256",
          "name": "",
          "type": "uint256"
        }
      ],
      "stateMutability": "view",
      "type": "function"
    },
    {
      "inputs": [],
      "name": "owner",
      "outputs": [
        {
          "internalType": "address",
          "name": "",
          "type": "address"
        }
      ],
      "stateMutability": "view",
      "type": "function"
    },
    {
      "inputs": [
        {
          "internalType": "uint256",
          "name": "tokenId",
          "type": "uint256"
        }
      ],
      "name": "ownerOf",
      "outputs": [
        {
          "internalType": "address",
          "name": "",
          "type": "address"
        }
      ],
      "stateMutability": "view",
      "type": "function"
    },
    {
      "inputs": [
        {
          "internalType": "uint256",
          "name": "quantity",
          "type": "uint256"
        }
      ],
      "name": "publicSaleMint",
      "outputs": [],
      "stateMutability": "payable",
      "type": "function"
    },
    {
      "inputs": [],
      "name": "renounceOwnership",
      "outputs": [],
      "stateMutability": "nonpayable",
      "type": "function"
    },
    {
      "inputs": [],
      "name": "returnFounderQty",
      "outputs": [
        {
          "internalType": "uint256",
          "name": "",
          "type": "uint256"
        }
      ],
      "stateMutability": "view",
      "type": "function"
    },
    {
      "inputs": [
        {
          "internalType": "address",
          "name": "from",
          "type": "address"
        },
        {
          "internalType": "address",
          "name": "to",
          "type": "address"
        },
        {
          "internalType": "uint256",
          "name": "tokenId",
          "type": "uint256"
        }
      ],
      "name": "safeTransferFrom",
      "outputs": [],
      "stateMutability": "nonpayable",
      "type": "function"
    },
    {
      "inputs": [
        {
          "internalType": "address",
          "name": "from",
          "type": "address"
        },
        {
          "internalType": "address",
          "name": "to",
          "type": "address"
        },
        {
          "internalType": "uint256",
          "name": "tokenId",
          "type": "uint256"
        },
        {
          "internalType": "bytes",
          "name": "_data",
          "type": "bytes"
        }
      ],
      "name": "safeTransferFrom",
      "outputs": [],
      "stateMutability": "nonpayable",
      "type": "function"
    },
    {
      "inputs": [],
      "name": "saleConfig",
      "outputs": [
        {
          "internalType": "uint64",
          "name": "publicPrice",
          "type": "uint64"
        },
        {
          "internalType": "uint64",
          "name": "mintlistPrice",
          "type": "uint64"
        }
      ],
      "stateMutability": "view",
      "type": "function"
    },
    {
      "inputs": [
        {
          "internalType": "address[]",
          "name": "addresses",
          "type": "address[]"
        },
        {
          "internalType": "uint256[]",
          "name": "numSlots",
          "type": "uint256[]"
        }
      ],
      "name": "seedAllowlist",
      "outputs": [],
      "stateMutability": "nonpayable",
      "type": "function"
    },
    {
      "inputs": [
        {
          "internalType": "address[]",
          "name": "addresses",
          "type": "address[]"
        },
        {
          "internalType": "uint256[]",
          "name": "numSlots",
          "type": "uint256[]"
        }
      ],
      "name": "seedFounderlist",
      "outputs": [],
      "stateMutability": "nonpayable",
      "type": "function"
    },
    {
      "inputs": [
        {
          "internalType": "address",
          "name": "operator",
          "type": "address"
        },
        {
          "internalType": "bool",
          "name": "approved",
          "type": "bool"
        }
      ],
      "name": "setApprovalForAll",
      "outputs": [],
      "stateMutability": "nonpayable",
      "type": "function"
    },
    {
      "inputs": [
        {
          "internalType": "string",
          "name": "_newBaseExtension",
          "type": "string"
        }
      ],
      "name": "setBaseExtension",
      "outputs": [],
      "stateMutability": "nonpayable",
      "type": "function"
    },
    {
      "inputs": [
        {
          "internalType": "string",
          "name": "baseURI",
          "type": "string"
        }
      ],
      "name": "setBaseURI",
      "outputs": [],
      "stateMutability": "nonpayable",
      "type": "function"
    },
    {
      "inputs": [
        {
          "internalType": "uint256",
          "name": "quantity",
          "type": "uint256"
        }
      ],
      "name": "setOwnersExplicit",
      "outputs": [],
      "stateMutability": "nonpayable",
      "type": "function"
    },
    {
      "inputs": [
        {
          "internalType": "bytes4",
          "name": "interfaceId",
          "type": "bytes4"
        }
      ],
      "name": "supportsInterface",
      "outputs": [
        {
          "internalType": "bool",
          "name": "",
          "type": "bool"
        }
      ],
      "stateMutability": "view",
      "type": "function"
    },
    {
      "inputs": [],
      "name": "symbol",
      "outputs": [
        {
          "internalType": "string",
          "name": "",
          "type": "string"
        }
      ],
      "stateMutability": "view",
      "type": "function"
    },
    {
      "inputs": [
        {
          "internalType": "uint256",
          "name": "index",
          "type": "uint256"
        }
      ],
      "name": "tokenByIndex",
      "outputs": [
        {
          "internalType": "uint256",
          "name": "",
          "type": "uint256"
        }
      ],
      "stateMutability": "view",
      "type": "function"
    },
    {
      "inputs": [
        {
          "internalType": "address",
          "name": "owner",
          "type": "address"
        },
        {
          "internalType": "uint256",
          "name": "index",
          "type": "uint256"
        }
      ],
      "name": "tokenOfOwnerByIndex",
      "outputs": [
        {
          "internalType": "uint256",
          "name": "",
          "type": "uint256"
        }
      ],
      "stateMutability": "view",
      "type": "function"
    },
    {
      "inputs": [
        {
          "internalType": "uint256",
          "name": "tokenId",
          "type": "uint256"
        }
      ],
      "name": "tokenURI",
      "outputs": [
        {
          "internalType": "string",
          "name": "",
          "type": "string"
        }
      ],
      "stateMutability": "view",
      "type": "function"
    },
    {
      "inputs": [],
      "name": "totalMinted",
      "outputs": [
        {
          "internalType": "uint256",
          "name": "",
          "type": "uint256"
        }
      ],
      "stateMutability": "view",
      "type": "function"
    },
    {
      "inputs": [],
      "name": "totalSupply",
      "outputs": [
        {
          "internalType": "uint256",
          "name": "",
          "type": "uint256"
        }
      ],
      "stateMutability": "view",
      "type": "function"
    },
    {
      "inputs": [
        {
          "internalType": "address",
          "name": "from",
          "type": "address"
        },
        {
          "internalType": "address",
          "name": "to",
          "type": "address"
        },
        {
          "internalType": "uint256",
          "name": "tokenId",
          "type": "uint256"
        }
      ],
      "name": "transferFrom",
      "outputs": [],
      "stateMutability": "nonpayable",
      "type": "function"
    },
    {
      "inputs": [
        {
          "internalType": "address",
          "name": "newOwner",
          "type": "address"
        }
      ],
      "name": "transferOwnership",
      "outputs": [],
      "stateMutability": "nonpayable",
      "type": "function"
    },
    {
      "inputs": [],
      "name": "withdrawMoney",
      "outputs": [],
      "stateMutability": "nonpayable",
      "type": "function"
    }
  ],
  "bytecode": "0x60008055610160604052600561012081905264173539b7b760d91b6101409081526200002f916001919062000276565b5060006008553480156200004257600080fd5b5060405162003eab38038062003eab83398101604081905262000065916200031c565b604051806040016040528060058152602001644e6578753560d81b815250604051806040016040528060038152602001624e583560e81b8152508585600081116200010e5760405162461bcd60e51b815260206004820152602e60248201527f455243373231413a20636f6c6c656374696f6e206d757374206861766520612060448201526d6e6f6e7a65726f20737570706c7960901b60648201526084015b60405180910390fd5b60008211620001705760405162461bcd60e51b815260206004820152602760248201527f455243373231413a206d61782062617463682073697a65206d757374206265206044820152666e6f6e7a65726f60c81b606482015260840162000105565b83516200018590600290602087019062000276565b5082516200019b90600390602086019062000276565b5060a09190915260805250620001b390503362000224565b6001600a5560c084905261010082905260e0819052828211156200021a5760405162461bcd60e51b815260206004820152601d60248201527f6c617267657220636f6c6c656374696f6e2073697a65206e6565646564000000604482015260640162000105565b5050505062000390565b600980546001600160a01b038381166001600160a01b0319831681179093556040519116919082907f8be0079c531659141344cd1fd0a4f28419497f9722a3daafe3b4186f6b6457e090600090a35050565b828054620002849062000353565b90600052602060002090601f016020900481019282620002a85760008555620002f3565b82601f10620002c357805160ff1916838001178555620002f3565b82800160010185558215620002f3579182015b82811115620002f3578251825591602001919060010190620002d6565b506200030192915062000305565b5090565b5b8082111562000301576000815560010162000306565b600080600080608085870312156200033357600080fd5b505082516020840151604085015160609095015191969095509092509050565b600181811c908216806200036857607f821691505b602082108114156200038a57634e487b7160e01b600052602260045260246000fd5b50919050565b60805160a05160c05160e05161010051613a8262000429600039600081816106110152612143015260008181610a100152610fd501526000818161068701528181611c2301526121c601526000818161105b015281816110d40152818161110c015281816129510152818161297b0152612ebd0152600081816112a401528181611ba00152818161271201526127440152613a826000f3fe60806040526004361061033f5760003560e01c80638da5cb5b116101b0578063bb9bb91c116100ec578063e562c5a711610095578063f2fde38b1161006f578063f2fde38b146109cb578063f42202e8146109eb578063fbe1aa51146109fe578063fc5f712214610a3257600080fd5b8063e562c5a714610935578063e985e9c514610962578063edfc2a5f146109ab57600080fd5b8063d7224ba0116100c6578063d7224ba0146108df578063da3ef23f146108f5578063dc33e6811461091557600080fd5b8063bb9bb91c14610896578063c6682862146108aa578063c87b56dd146108bf57600080fd5b8063a2309ff811610159578063ac44600211610133578063ac4460021461082e578063b05863d514610843578063b3ab66b014610863578063b88d4fde1461087657600080fd5b8063a2309ff8146107cc578063a2f1bc13146107e1578063a7cd52cb1461080157600080fd5b806395d89b411161018a57806395d89b411461078257806397359f9714610797578063a22cb465146107ac57600080fd5b80638da5cb5b146106c957806390aa0b0f146106e75780639231ab2a1461073457600080fd5b806342842e0e1161027f57806370a082311161022857806385790ce91161020257806385790ce91461063357806389430cc0146106555780638bc35c2f146106755780638d17e712146106a957600080fd5b806370a08231146105ca578063715018a6146105ea578063847954c4146105ff57600080fd5b806355f804b31161025957806355f804b31461056a5780635ec085191461058a5780636352211e146105aa57600080fd5b806342842e0e1461050a5780634f558e791461052a5780634f6ccce71461054a57600080fd5b806323b872dd116102ec578063375a069a116102c6578063375a069a146104a25780633a67051e146104c25780633af32abf146104e257806341fbddbd1461050257600080fd5b806323b872dd146104425780632d20fb60146104625780632f745c591461048257600080fd5b8063095ea7b31161031d578063095ea7b3146103d35780630a65a44a146103f557806318160ddd1461042357600080fd5b806301ffc9a71461034457806306fdde0314610379578063081812fc1461039b575b600080fd5b34801561035057600080fd5b5061036461035f3660046132a0565b610a58565b60405190151581526020015b60405180910390f35b34801561038557600080fd5b5061038e610ac5565b6040516103709190613315565b3480156103a757600080fd5b506103bb6103b6366004613328565b610b57565b6040516001600160a01b039091168152602001610370565b3480156103df57600080fd5b506103f36103ee366004613358565b610bf7565b005b34801561040157600080fd5b5061040a610d0f565b60405167ffffffffffffffff9091168152602001610370565b34801561042f57600080fd5b506000545b604051908152602001610370565b34801561044e57600080fd5b506103f361045d366004613382565b610d52565b34801561046e57600080fd5b506103f361047d366004613328565b610d5d565b34801561048e57600080fd5b5061043461049d366004613358565b610e0e565b3480156104ae57600080fd5b506103f36104bd366004613328565b610f8b565b3480156104ce57600080fd5b506103646104dd3660046133be565b611142565b3480156104ee57600080fd5b506103646104fd3660046133be565b611170565b6103f3611196565b34801561051657600080fd5b506103f3610525366004613382565b61138f565b34801561053657600080fd5b50610364610545366004613328565b6113aa565b34801561055657600080fd5b50610434610565366004613328565b6113b7565b34801561057657600080fd5b506103f36105853660046133d9565b611419565b34801561059657600080fd5b506103646105a5366004613328565b61146d565b3480156105b657600080fd5b506103bb6105c5366004613328565b611482565b3480156105d657600080fd5b506104346105e53660046133be565b611494565b3480156105f657600080fd5b506103f3611537565b34801561060b57600080fd5b506104347f000000000000000000000000000000000000000000000000000000000000000081565b34801561063f57600080fd5b50336000908152600d6020526040902054610434565b34801561066157600080fd5b506103f361067036600461344b565b61158b565b34801561068157600080fd5b506104347f000000000000000000000000000000000000000000000000000000000000000081565b3480156106b557600080fd5b5061038e6106c4366004613328565b6115f7565b3480156106d557600080fd5b506009546001600160a01b03166103bb565b3480156106f357600080fd5b50600b546107139067ffffffffffffffff80821691600160401b90041682565b6040805167ffffffffffffffff938416815292909116602083015201610370565b34801561074057600080fd5b5061075461074f366004613328565b611602565b6040805182516001600160a01b0316815260209283015167ffffffffffffffff169281019290925201610370565b34801561078e57600080fd5b5061038e61161f565b3480156107a357600080fd5b50610434600081565b3480156107b857600080fd5b506103f36107c7366004613475565b61162e565b3480156107d857600080fd5b50600054610434565b3480156107ed57600080fd5b506103f36107fc366004613587565b6116f3565b34801561080d57600080fd5b5061043461081c3660046133be565b600c6020526000908152604090205481565b34801561083a57600080fd5b506103f3611807565b34801561084f57600080fd5b506103f361085e366004613587565b61193f565b6103f3610871366004613328565b611a79565b34801561088257600080fd5b506103f361089136600461369f565b611cf3565b3480156108a257600080fd5b506000610434565b3480156108b657600080fd5b5061038e611d78565b3480156108cb57600080fd5b5061038e6108da366004613328565b611e06565b3480156108eb57600080fd5b5061043460085481565b34801561090157600080fd5b506103f361091036600461371b565b611ee4565b34801561092157600080fd5b506104346109303660046133be565b611f43565b34801561094157600080fd5b506104346109503660046133be565b600d6020526000908152604090205481565b34801561096e57600080fd5b5061036461097d366004613764565b6001600160a01b03918216600090815260076020908152604080832093909416825291909152205460ff1690565b3480156109b757600080fd5b506103f36109c636600461344b565b611f4e565b3480156109d757600080fd5b506103f36109e63660046133be565b611fc9565b6103f36109f9366004613328565b612096565b348015610a0a57600080fd5b506104347f000000000000000000000000000000000000000000000000000000000000000081565b348015610a3e57600080fd5b50600b54600160401b900467ffffffffffffffff16610434565b60006001600160e01b031982166380ac58cd60e01b1480610a8957506001600160e01b03198216635b5e139f60e01b145b80610aa457506001600160e01b0319821663780e9d6360e01b145b80610abf57506301ffc9a760e01b6001600160e01b03198316145b92915050565b606060028054610ad490613797565b80601f0160208091040260200160405190810160405280929190818152602001828054610b0090613797565b8015610b4d5780601f10610b2257610100808354040283529160200191610b4d565b820191906000526020600020905b815481529060010190602001808311610b3057829003601f168201915b5050505050905090565b6000610b64826000541190565b610bdb5760405162461bcd60e51b815260206004820152602d60248201527f455243373231413a20617070726f76656420717565727920666f72206e6f6e6560448201527f78697374656e7420746f6b656e0000000000000000000000000000000000000060648201526084015b60405180910390fd5b506000908152600660205260409020546001600160a01b031690565b6000610c0282611482565b9050806001600160a01b0316836001600160a01b03161415610c715760405162461bcd60e51b815260206004820152602260248201527f455243373231413a20617070726f76616c20746f2063757272656e74206f776e60448201526132b960f11b6064820152608401610bd2565b336001600160a01b0382161480610c8d5750610c8d813361097d565b610cff5760405162461bcd60e51b815260206004820152603960248201527f455243373231413a20617070726f76652063616c6c6572206973206e6f74206f60448201527f776e6572206e6f7220617070726f76656420666f7220616c6c000000000000006064820152608401610bd2565b610d0a838383612276565b505050565b600b54600090600160401b900467ffffffffffffffff1615610d315750600190565b600b54600160401b900467ffffffffffffffff16610d4f5750600090565b90565b610d0a8383836122df565b6009546001600160a01b03163314610da55760405162461bcd60e51b81526020600482018190526024820152600080516020613a2d8339815191526044820152606401610bd2565b6002600a541415610df85760405162461bcd60e51b815260206004820152601f60248201527f5265656e7472616e637947756172643a207265656e7472616e742063616c6c006044820152606401610bd2565b6002600a55610e06816126a1565b506001600a55565b6000610e1983611494565b8210610e725760405162461bcd60e51b815260206004820152602260248201527f455243373231413a206f776e657220696e646578206f7574206f6620626f756e604482015261647360f01b6064820152608401610bd2565b600080549080805b83811015610f1c576000818152600460209081526040918290208251808401909352546001600160a01b038116808452600160a01b90910467ffffffffffffffff169183019190915215610ecd57805192505b876001600160a01b0316836001600160a01b03161415610f095786841415610efb57509350610abf92505050565b83610f05816137e8565b9450505b5080610f14816137e8565b915050610e7a565b5060405162461bcd60e51b815260206004820152602e60248201527f455243373231413a20756e61626c6520746f2067657420746f6b656e206f662060448201527f6f776e657220627920696e6465780000000000000000000000000000000000006064820152608401610bd2565b6009546001600160a01b03163314610fd35760405162461bcd60e51b81526020600482018190526024820152600080516020613a2d8339815191526044820152606401610bd2565b7f000000000000000000000000000000000000000000000000000000000000000081610ffe60005490565b6110089190613803565b11156110565760405162461bcd60e51b815260206004820152600e60248201527f446576204d696e742046697273740000000000000000000000000000000000006044820152606401610bd2565b6110807f000000000000000000000000000000000000000000000000000000000000000082613831565b156110cd5760405162461bcd60e51b815260206004820152601660248201527f2a206f66206d6178426174636853697a65206f6e6c79000000000000000000006044820152606401610bd2565b60006110f97f000000000000000000000000000000000000000000000000000000000000000083613845565b905060005b81811015610d0a57611130337f00000000000000000000000000000000000000000000000000000000000000006128a2565b8061113a816137e8565b9150506110fe565b6001600160a01b0381166000908152600d60205260408120541561116857506001919050565b506000919050565b6001600160a01b0381166000908152600c60205260408120541561116857506001919050565b3233146111e55760405162461bcd60e51b815260206004820152601560248201527f5468652063616c6c6572203d20636f6e747261637400000000000000000000006044820152606401610bd2565b600b54600160401b900467ffffffffffffffff16806112465760405162461bcd60e51b815260206004820181905260248201527f616c6c6f776c6973742073616c6520686173206e6f7420626567756e207965746044820152606401610bd2565b336000908152600c60205260409020546112a25760405162461bcd60e51b815260206004820152601f60248201527f6e6f7420656c696769626c6520666f7220616c6c6f776c697374206d696e74006044820152606401610bd2565b7f00000000000000000000000000000000000000000000000000000000000000006112cc60005490565b6112d7906001613803565b11156113255760405162461bcd60e51b815260206004820152601260248201527f72656163686564206d617820737570706c7900000000000000000000000000006044820152606401610bd2565b803410156113615760405162461bcd60e51b81526020600482015260096024820152686164642066756e647360b81b6044820152606401610bd2565b336000908152600c6020526040812080549161137c83613859565b919050555061138c3360016128a2565b50565b610d0a83838360405180602001604052806000815250611cf3565b6000610abf826000541190565b6000805482106114155760405162461bcd60e51b815260206004820152602360248201527f455243373231413a20676c6f62616c20696e646578206f7574206f6620626f756044820152626e647360e81b6064820152608401610bd2565b5090565b6009546001600160a01b031633146114615760405162461bcd60e51b81526020600482018190526024820152600080516020613a2d8339815191526044820152606401610bd2565b610d0a600e8383613181565b6000811561147d57506001919050565b919050565b600061148d826128bc565b5192915050565b60006001600160a01b0382166115125760405162461bcd60e51b815260206004820152602b60248201527f455243373231413a2062616c616e636520717565727920666f7220746865207a60448201527f65726f20616464726573730000000000000000000000000000000000000000006064820152608401610bd2565b506001600160a01b03166000908152600560205260409020546001600160801b031690565b6009546001600160a01b0316331461157f5760405162461bcd60e51b81526020600482018190526024820152600080516020613a2d8339815191526044820152606401610bd2565b6115896000612a87565b565b6009546001600160a01b031633146115d35760405162461bcd60e51b81526020600482018190526024820152600080516020613a2d8339815191526044820152606401610bd2565b600b805467ffffffffffffffff191667ffffffffffffffff92909216919091179055565b6060610abf82611e06565b6040805180820190915260008082526020820152610abf826128bc565b606060038054610ad490613797565b6001600160a01b0382163314156116875760405162461bcd60e51b815260206004820152601a60248201527f455243373231413a20617070726f766520746f2063616c6c65720000000000006044820152606401610bd2565b3360008181526007602090815260408083206001600160a01b03871680855290835292819020805460ff191686151590811790915590519081529192917f17307eab39ab6107e8899845ad3d59bd9653f200f220920489ca2b5937696c31910160405180910390a35050565b6009546001600160a01b0316331461173b5760405162461bcd60e51b81526020600482018190526024820152600080516020613a2d8339815191526044820152606401610bd2565b805182511461178c5760405162461bcd60e51b815260206004820152601960248201527f61646472657373657320213d206e756d536c6f74732e6c656e000000000000006044820152606401610bd2565b60005b8251811015610d0a578181815181106117aa576117aa613870565b6020026020010151600d60008584815181106117c8576117c8613870565b60200260200101516001600160a01b03166001600160a01b031681526020019081526020016000208190555080806117ff906137e8565b91505061178f565b6009546001600160a01b0316331461184f5760405162461bcd60e51b81526020600482018190526024820152600080516020613a2d8339815191526044820152606401610bd2565b6002600a5414156118a25760405162461bcd60e51b815260206004820152601f60248201527f5265656e7472616e637947756172643a207265656e7472616e742063616c6c006044820152606401610bd2565b6002600a55604051600090339047908381818185875af1925050503d80600081146118e9576040519150601f19603f3d011682016040523d82523d6000602084013e6118ee565b606091505b5050905080610e065760405162461bcd60e51b815260206004820152600b60248201527f54786e206661696c65642e0000000000000000000000000000000000000000006044820152606401610bd2565b6009546001600160a01b031633146119875760405162461bcd60e51b81526020600482018190526024820152600080516020613a2d8339815191526044820152606401610bd2565b80518251146119fe5760405162461bcd60e51b815260206004820152602860248201527f61646472657373657320646f6573206e6f74206d61746368206e756d536c6f7460448201527f73206c656e6774680000000000000000000000000000000000000000000000006064820152608401610bd2565b60005b8251811015610d0a57818181518110611a1c57611a1c613870565b6020026020010151600c6000858481518110611a3a57611a3a613870565b60200260200101516001600160a01b03166001600160a01b03168152602001908152602001600020819055508080611a71906137e8565b915050611a01565b323314611ac85760405162461bcd60e51b815260206004820152601560248201527f5468652063616c6c6572203d20636f6e747261637400000000000000000000006044820152606401610bd2565b60408051808201909152600b5467ffffffffffffffff808216808452600160401b90920416602083015233611b495760405162461bcd60e51b815260206004820152602160248201527f455243373231413a206d696e7420746f20746865207a65726f206164647265736044820152607360f81b6064820152608401610bd2565b611b528161146d565b611b9e5760405162461bcd60e51b815260206004820152601360248201527f7075626c69632073616c6520213d2074727565000000000000000000000000006044820152606401610bd2565b7f000000000000000000000000000000000000000000000000000000000000000083611bc960005490565b611bd39190613803565b1115611c215760405162461bcd60e51b815260206004820152600c60248201527f40206d617820737570706c7900000000000000000000000000000000000000006044820152606401610bd2565b7f000000000000000000000000000000000000000000000000000000000000000083611c4c33611f43565b611c569190613803565b1115611ca45760405162461bcd60e51b815260206004820152601660248201527f63616e206e6f74206d696e742074686973206d616e79000000000000000000006044820152606401610bd2565b611cae8382613886565b341015611ce95760405162461bcd60e51b81526020600482015260096024820152686164642066756e647360b81b6044820152606401610bd2565b610d0a33846128a2565b611cfe8484846122df565b611d0a84848484612ae6565b611d725760405162461bcd60e51b815260206004820152603360248201527f455243373231413a207472616e7366657220746f206e6f6e204552433732315260448201527232b1b2b4bb32b91034b6b83632b6b2b73a32b960691b6064820152608401610bd2565b50505050565b60018054611d8590613797565b80601f0160208091040260200160405190810160405280929190818152602001828054611db190613797565b8015611dfe5780601f10611dd357610100808354040283529160200191611dfe565b820191906000526020600020905b815481529060010190602001808311611de157829003601f168201915b505050505081565b6060611e13826000541190565b611e855760405162461bcd60e51b815260206004820152602f60248201527f4552433732314d657461646174613a2055524920717565727920666f72206e6f60448201527f6e6578697374656e7420746f6b656e00000000000000000000000000000000006064820152608401610bd2565b6000611e8f612c31565b90506000815111611eaf5760405180602001604052806000815250611edd565b80611eb984612c40565b6001604051602001611ecd939291906138a5565b6040516020818303038152906040525b9392505050565b6009546001600160a01b03163314611f2c5760405162461bcd60e51b81526020600482018190526024820152600080516020613a2d8339815191526044820152606401610bd2565b8051611f3f906001906020840190613201565b5050565b6000610abf82612d56565b6009546001600160a01b03163314611f965760405162461bcd60e51b81526020600482018190526024820152600080516020613a2d8339815191526044820152606401610bd2565b600b805467ffffffffffffffff909216600160401b026fffffffffffffffff000000000000000019909216919091179055565b6009546001600160a01b031633146120115760405162461bcd60e51b81526020600482018190526024820152600080516020613a2d8339815191526044820152606401610bd2565b6001600160a01b03811661208d5760405162461bcd60e51b815260206004820152602660248201527f4f776e61626c653a206e6577206f776e657220697320746865207a65726f206160448201527f64647265737300000000000000000000000000000000000000000000000000006064820152608401610bd2565b61138c81612a87565b3233146120e55760405162461bcd60e51b815260206004820152601560248201527f5468652063616c6c6572203d20636f6e747261637400000000000000000000006044820152606401610bd2565b336000908152600d60205260409020546121415760405162461bcd60e51b815260206004820152600c60248201527f6e6f7420656c696769626c6500000000000000000000000000000000000000006044820152606401610bd2565b7f00000000000000000000000000000000000000000000000000000000000000008161216c60005490565b6121769190613803565b11156121c45760405162461bcd60e51b815260206004820152601d60248201527f6e6f7420656e6f7567682072656d61696e696e672072657365727665640000006044820152606401610bd2565b7f0000000000000000000000000000000000000000000000000000000000000000816121ef33611f43565b6121f99190613803565b11156122475760405162461bcd60e51b815260206004820152600860248201527f746f6f206d616e790000000000000000000000000000000000000000000000006044820152606401610bd2565b336000908152600d602052604081208054839290612266908490613969565b9091555061138c905033826128a2565b600082815260066020526040808220805473ffffffffffffffffffffffffffffffffffffffff19166001600160a01b0387811691821790925591518593918516917f8c5be1e5ebec7d5bd14f71427d1e84f3dd0314c0f7b2291e5b200ac8c7c3b92591a4505050565b60006122ea826128bc565b80519091506000906001600160a01b0316336001600160a01b0316148061232157503361231684610b57565b6001600160a01b0316145b8061233357508151612333903361097d565b9050806123a85760405162461bcd60e51b815260206004820152603260248201527f455243373231413a207472616e736665722063616c6c6572206973206e6f742060448201527f6f776e6572206e6f7220617070726f76656400000000000000000000000000006064820152608401610bd2565b846001600160a01b031682600001516001600160a01b0316146124335760405162461bcd60e51b815260206004820152602660248201527f455243373231413a207472616e736665722066726f6d20696e636f727265637460448201527f206f776e657200000000000000000000000000000000000000000000000000006064820152608401610bd2565b6001600160a01b0384166124af5760405162461bcd60e51b815260206004820152602560248201527f455243373231413a207472616e7366657220746f20746865207a65726f20616460448201527f64726573730000000000000000000000000000000000000000000000000000006064820152608401610bd2565b6124bf6000848460000151612276565b6001600160a01b03851660009081526005602052604081208054600192906124f19084906001600160801b0316613980565b82546101009290920a6001600160801b038181021990931691831602179091556001600160a01b0386166000908152600560205260408120805460019450909261253d918591166139a8565b82546001600160801b039182166101009390930a9283029190920219909116179055506040805180820182526001600160a01b03808716825267ffffffffffffffff428116602080850191825260008981526004909152948520935184549151909216600160a01b026001600160e01b031990911691909216171790556125c5846001613803565b6000818152600460205260409020549091506001600160a01b0316612657576125ef816000541190565b156126575760408051808201825284516001600160a01b03908116825260208087015167ffffffffffffffff9081168285019081526000878152600490935294909120925183549451909116600160a01b026001600160e01b03199094169116179190911790555b83856001600160a01b0316876001600160a01b03167fddf252ad1be2c89b69c2b068fc378daa952ba7f163c4a11628f55a4df523b3ef60405160405180910390a45b505050505050565b600854816126f15760405162461bcd60e51b815260206004820152601860248201527f7175616e74697479206d757374206265206e6f6e7a65726f00000000000000006044820152606401610bd2565b600060016126ff8484613803565b6127099190613969565b905061273660017f0000000000000000000000000000000000000000000000000000000000000000613969565b81111561276b5761276860017f0000000000000000000000000000000000000000000000000000000000000000613969565b90505b612776816000541190565b6127e85760405162461bcd60e51b815260206004820152602660248201527f6e6f7420656e6f756768206d696e7465642079657420666f722074686973206360448201527f6c65616e757000000000000000000000000000000000000000000000000000006064820152608401610bd2565b815b81811161288e576000818152600460205260409020546001600160a01b031661287c576000612818826128bc565b60408051808201825282516001600160a01b03908116825260209384015167ffffffffffffffff9081168584019081526000888152600490965293909420915182549351909416600160a01b026001600160e01b0319909316931692909217179055505b80612886816137e8565b9150506127ea565b5061289a816001613803565b600855505050565b611f3f828260405180602001604052806000815250612e00565b60408051808201909152600080825260208201526128db826000541190565b61294d5760405162461bcd60e51b815260206004820152602a60248201527f455243373231413a206f776e657220717565727920666f72206e6f6e6578697360448201527f74656e7420746f6b656e000000000000000000000000000000000000000000006064820152608401610bd2565b60007f000000000000000000000000000000000000000000000000000000000000000083106129ae576129a07f000000000000000000000000000000000000000000000000000000000000000084613969565b6129ab906001613803565b90505b825b818110612a18576000818152600460209081526040918290208251808401909352546001600160a01b038116808452600160a01b90910467ffffffffffffffff169183019190915215612a0557949350505050565b5080612a1081613859565b9150506129b0565b5060405162461bcd60e51b815260206004820152602f60248201527f455243373231413a20756e61626c6520746f2064657465726d696e652074686560448201527f206f776e6572206f6620746f6b656e00000000000000000000000000000000006064820152608401610bd2565b600980546001600160a01b0383811673ffffffffffffffffffffffffffffffffffffffff19831681179093556040519116919082907f8be0079c531659141344cd1fd0a4f28419497f9722a3daafe3b4186f6b6457e090600090a35050565b60006001600160a01b0384163b15612c2557604051630a85bd0160e11b81526001600160a01b0385169063150b7a0290612b2a9033908990889088906004016139d3565b6020604051808303816000875af1925050508015612b65575060408051601f3d908101601f19168201909252612b6291810190613a0f565b60015b612c0b573d808015612b93576040519150601f19603f3d011682016040523d82523d6000602084013e612b98565b606091505b508051612c035760405162461bcd60e51b815260206004820152603360248201527f455243373231413a207472616e7366657220746f206e6f6e204552433732315260448201527232b1b2b4bb32b91034b6b83632b6b2b73a32b960691b6064820152608401610bd2565b805181602001fd5b6001600160e01b031916630a85bd0160e11b149050612c29565b5060015b949350505050565b6060600e8054610ad490613797565b606081612c645750506040805180820190915260018152600360fc1b602082015290565b8160005b8115612c8e5780612c78816137e8565b9150612c879050600a83613845565b9150612c68565b60008167ffffffffffffffff811115612ca957612ca96134b1565b6040519080825280601f01601f191660200182016040528015612cd3576020820181803683370190505b5090505b8415612c2957612ce8600183613969565b9150612cf5600a86613831565b612d00906030613803565b60f81b818381518110612d1557612d15613870565b60200101907effffffffffffffffffffffffffffffffffffffffffffffffffffffffffffff1916908160001a905350612d4f600a86613845565b9450612cd7565b60006001600160a01b038216612dd45760405162461bcd60e51b815260206004820152603160248201527f455243373231413a206e756d626572206d696e74656420717565727920666f7260448201527f20746865207a65726f20616464726573730000000000000000000000000000006064820152608401610bd2565b506001600160a01b0316600090815260056020526040902054600160801b90046001600160801b031690565b6000546001600160a01b038416612e635760405162461bcd60e51b815260206004820152602160248201527f455243373231413a206d696e7420746f20746865207a65726f206164647265736044820152607360f81b6064820152608401610bd2565b612e6e816000541190565b15612ebb5760405162461bcd60e51b815260206004820152601d60248201527f455243373231413a20746f6b656e20616c7265616479206d696e7465640000006044820152606401610bd2565b7f0000000000000000000000000000000000000000000000000000000000000000831115612f365760405162461bcd60e51b815260206004820152602260248201527f455243373231413a207175616e7469747920746f206d696e7420746f6f2068696044820152610ced60f31b6064820152608401610bd2565b60008311612f905760405162461bcd60e51b815260206004820152602160248201527f455243373231413a207175616e7469747920746f206d696e7420746f6f206c6f6044820152607760f81b6064820152608401610bd2565b6001600160a01b0384166000908152600560209081526040918290208251808401845290546001600160801b038082168352600160801b9091041691810191909152815180830190925280519091908190612fec9087906139a8565b6001600160801b0316815260200185836020015161300a91906139a8565b6001600160801b039081169091526001600160a01b0380881660008181526005602090815260408083208751978301518716600160801b0297909616969096179094558451808601865291825267ffffffffffffffff4281168386019081528883526004909552948120915182549451909516600160a01b026001600160e01b031990941694909216939093179190911790915582905b858110156131765760405182906001600160a01b038916906000907fddf252ad1be2c89b69c2b068fc378daa952ba7f163c4a11628f55a4df523b3ef908290a46130ee6000888488612ae6565b6131565760405162461bcd60e51b815260206004820152603360248201527f455243373231413a207472616e7366657220746f206e6f6e204552433732315260448201527232b1b2b4bb32b91034b6b83632b6b2b73a32b960691b6064820152608401610bd2565b81613160816137e8565b925050808061316e906137e8565b9150506130a1565b506000819055612699565b82805461318d90613797565b90600052602060002090601f0160209004810192826131af57600085556131f5565b82601f106131c85782800160ff198235161785556131f5565b828001600101855582156131f5579182015b828111156131f55782358255916020019190600101906131da565b50611415929150613275565b82805461320d90613797565b90600052602060002090601f01602090048101928261322f57600085556131f5565b82601f1061324857805160ff19168380011785556131f5565b828001600101855582156131f5579182015b828111156131f557825182559160200191906001019061325a565b5b808211156114155760008155600101613276565b6001600160e01b03198116811461138c57600080fd5b6000602082840312156132b257600080fd5b8135611edd8161328a565b60005b838110156132d85781810151838201526020016132c0565b83811115611d725750506000910152565b600081518084526133018160208601602086016132bd565b601f01601f19169290920160200192915050565b602081526000611edd60208301846132e9565b60006020828403121561333a57600080fd5b5035919050565b80356001600160a01b038116811461147d57600080fd5b6000806040838503121561336b57600080fd5b61337483613341565b946020939093013593505050565b60008060006060848603121561339757600080fd5b6133a084613341565b92506133ae60208501613341565b9150604084013590509250925092565b6000602082840312156133d057600080fd5b611edd82613341565b600080602083850312156133ec57600080fd5b823567ffffffffffffffff8082111561340457600080fd5b818501915085601f83011261341857600080fd5b81358181111561342757600080fd5b86602082850101111561343957600080fd5b60209290920196919550909350505050565b60006020828403121561345d57600080fd5b813567ffffffffffffffff81168114611edd57600080fd5b6000806040838503121561348857600080fd5b61349183613341565b9150602083013580151581146134a657600080fd5b809150509250929050565b634e487b7160e01b600052604160045260246000fd5b604051601f8201601f1916810167ffffffffffffffff811182821017156134f0576134f06134b1565b604052919050565b600067ffffffffffffffff821115613512576135126134b1565b5060051b60200190565b600082601f83011261352d57600080fd5b8135602061354261353d836134f8565b6134c7565b82815260059290921b8401810191818101908684111561356157600080fd5b8286015b8481101561357c5780358352918301918301613565565b509695505050505050565b6000806040838503121561359a57600080fd5b823567ffffffffffffffff808211156135b257600080fd5b818501915085601f8301126135c657600080fd5b813560206135d661353d836134f8565b82815260059290921b840181019181810190898411156135f557600080fd5b948201945b8386101561361a5761360b86613341565b825294820194908201906135fa565b9650508601359250508082111561363057600080fd5b5061363d8582860161351c565b9150509250929050565b600067ffffffffffffffff831115613661576136616134b1565b613674601f8401601f19166020016134c7565b905082815283838301111561368857600080fd5b828260208301376000602084830101529392505050565b600080600080608085870312156136b557600080fd5b6136be85613341565b93506136cc60208601613341565b925060408501359150606085013567ffffffffffffffff8111156136ef57600080fd5b8501601f8101871361370057600080fd5b61370f87823560208401613647565b91505092959194509250565b60006020828403121561372d57600080fd5b813567ffffffffffffffff81111561374457600080fd5b8201601f8101841361375557600080fd5b612c2984823560208401613647565b6000806040838503121561377757600080fd5b61378083613341565b915061378e60208401613341565b90509250929050565b600181811c908216806137ab57607f821691505b602082108114156137cc57634e487b7160e01b600052602260045260246000fd5b50919050565b634e487b7160e01b600052601160045260246000fd5b60006000198214156137fc576137fc6137d2565b5060010190565b60008219821115613816576138166137d2565b500190565b634e487b7160e01b600052601260045260246000fd5b6000826138405761384061381b565b500690565b6000826138545761385461381b565b500490565b600081613868576138686137d2565b506000190190565b634e487b7160e01b600052603260045260246000fd5b60008160001904831182151516156138a0576138a06137d2565b500290565b6000845160206138b88285838a016132bd565b8551918401916138cb8184848a016132bd565b8554920191600090600181811c90808316806138e857607f831692505b85831081141561390657634e487b7160e01b85526022600452602485fd5b80801561391a576001811461392b57613958565b60ff19851688528388019550613958565b60008b81526020902060005b858110156139505781548a820152908401908801613937565b505083880195505b50939b9a5050505050505050505050565b60008282101561397b5761397b6137d2565b500390565b60006001600160801b03838116908316818110156139a0576139a06137d2565b039392505050565b60006001600160801b038083168185168083038211156139ca576139ca6137d2565b01949350505050565b60006001600160a01b03808716835280861660208401525083604083015260806060830152613a0560808301846132e9565b9695505050505050565b600060208284031215613a2157600080fd5b8151611edd8161328a56fe4f776e61626c653a2063616c6c6572206973206e6f7420746865206f776e6572a264697066735822122016397d9cf98c77676cbe71a70bae784e7b62998627e8d213096d3b0b6eb03f3b64736f6c634300080b0033",
  "linkReferences": {},
  "deployedLinkReferences": {}
}