{
  "_format": "hh-sol-artifact-1",
  "contractName": "ERC721ReceiverMock",
  "sourceName": "contracts/ERC721ReceiverMock.sol",
  "abi": [
    {
      "inputs": [
        {
          "internalType": "bytes4",
          "name": "retval",
          "type": "bytes4"
        }
      ],
      "stateMutability": "nonpayable",
      "type": "constructor"
    },
    {
      "anonymous": false,
      "inputs": [
        {
          "indexed": false,
          "internalType": "address",
          "name": "operator",
          "type": "address"
        },
        {
          "indexed": false,
          "internalType": "address",
          "name": "from",
          "type": "address"
        },
        {
          "indexed": false,
          "internalType": "uint256",
          "name": "tokenId",
          "type": "uint256"
        },
        {
          "indexed": false,
          "internalType": "bytes",
          "name": "data",
          "type": "bytes"
        },
        {
          "indexed": false,
          "internalType": "uint256",
          "name": "gas",
          "type": "uint256"
        }
      ],
      "name": "Received",
      "type": "event"
    },
    {
      "inputs": [
        {
          "internalType": "address",
          "name": "operator",
          "type": "address"
        },
        {
          "internalType": "address",
          "name": "from",
          "type": "address"
        },
        {
          "internalType": "uint256",
          "name": "tokenId",
          "type": "uint256"
        },
        {
          "internalType": "bytes",
          "name": "data",
          "type": "bytes"
        }
      ],
      "name": "onERC721Received",
      "outputs": [
        {
          "internalType": "bytes4",
          "name": "",
          "type": "bytes4"
        }
      ],
      "stateMutability": "nonpayable",
      "type": "function"
    }
  ],
  "bytecode": "0x60a060405234801561001057600080fd5b5060405161035038038061035083398101604081905261002f91610041565b6001600160e01b031916608052610072565b60006020828403121561005357600080fd5b81516001600160e01b03198116811461006b57600080fd5b9392505050565b6080516102c461008c600039600060be01526102c46000f3fe608060405234801561001057600080fd5b506004361061002b5760003560e01c8063150b7a0214610030575b600080fd5b61004361003e366004610124565b610078565b6040517fffffffff00000000000000000000000000000000000000000000000000000000909116815260200160405180910390f35b60007f28fa6e16458f9c24aa59ddd4085264573006dbe30304837873c7deafc702b03885858585614e206040516100b3959493929190610200565b60405180910390a1507f0000000000000000000000000000000000000000000000000000000000000000949350505050565b803573ffffffffffffffffffffffffffffffffffffffff8116811461010957600080fd5b919050565b634e487b7160e01b600052604160045260246000fd5b6000806000806080858703121561013a57600080fd5b610143856100e5565b9350610151602086016100e5565b925060408501359150606085013567ffffffffffffffff8082111561017557600080fd5b818701915087601f83011261018957600080fd5b81358181111561019b5761019b61010e565b604051601f8201601f19908116603f011681019083821181831017156101c3576101c361010e565b816040528281528a60208487010111156101dc57600080fd5b82602086016020830137600060208483010152809550505050505092959194509250565b600073ffffffffffffffffffffffffffffffffffffffff808816835260208188168185015286604085015260a06060850152855191508160a085015260005b8281101561025b5786810182015185820160c00152810161023f565b8281111561026d57600060c084870101525b5050608083019390935250601f91909101601f19160160c00194935050505056fea2646970667358221220032c7b9b38e8f184d5f556c38c49b5b0c5e990495312a11517cd1d33b4c8584d64736f6c634300080b0033",
  "linkReferences": {},
  "deployedLinkReferences": {}
}